:020000040800F2
:1000000070400020CD010008F9050008F105000846
:10001000F5050008870200089506000800000000AA
:10002000000000000000000000000000270600089B
:100030008B020008000000002506000829060008C1
:10004000E7010008E7010008E7010008E7010008F0
:10005000E7010008E7010008E7010008E7010008E0
:10006000E7010008E7010008E7010008E7010008D0
:10007000E7010008E7010008E7010008E7010008C0
:10008000E7010008E7010008E7010008E7010008B0
:10009000E7010008E7010008E7010008E7010008A0
:1000A000E7010008E7010008E7010008E701000890
:1000B000E7010008E7010008E7010008E701000880
:1000C000E7010008E7010008E7010008E701000870
:1000D000E7010008E7010008E7010008E701000860
:1000E000E7010008E7010008E7010008E701000850
:1000F000E7010008E7010008E7010008E701000840
:10010000E7010008E7010008E7010008E70100082F
:10011000E7010008E7010008E7010008E70100081F
:10012000E7010008E7010008E7010008E70100080F
:1001300000F002F800F03AF80AA090E8000C8244BF
:100140008344AAF10107DA4501D100F02FF8AFF29C
:10015000090EBAE80F0013F0010F18BFFB1A43F0A5
:1001600001031847C4070000E4070000103A24BF49
:1001700078C878C1FAD8520724BF30C830C144BF0C
:1001800004680C607047000000230024002500264E
:10019000103A28BF78C1FBD8520728BF30C148BFEA
:1001A0000B6070471FB51FBD10B510BD00F031F8D2
:1001B0001146FFF7F7FF00F0E9FA00F04FF803B43B
:1001C000FFF7F2FF03BC00F057F800000948804732
:1001D00009480047FEE7FEE7FEE7FEE7FEE7FEE729
:1001E000FEE7FEE7FEE7FEE704480549054A064B41
:1001F000704700003106000831010008700000203F
:100200007040002070200020702000207047704750
:100210007047754600F02CF8AE4605006946534617
:1002200020F00700854618B020B5FFF7DDFFBDE8D8
:1002300020404FF000064FF000074FF000084FF04D
:10024000000B21F00701AC46ACE8C009ACE8C009DE
:10025000ACE8C009ACE8C0098D46704710B504464B
:10026000AFF300802046BDE81040FFF7A8BF0000B4
:10027000004870470C00002001491820ABBEFEE783
:1002800026000200704700BFFEE7704770B50646C3
:100290000C46154600F002F9304600F0CFF800F0A9
:1002A00041F918B100F01CF9012070BD204600F0A2
:1002B000C5F800F037F9284600F0C0F800F032F930
:1002C00018B100F00DF90120EFE700F009F9002066
:1002D000EBE7000010B500224FF480610E4800F0FB
:1002E000F1F900F075F900224FF400610A4800F0BE
:1002F000E9F9012000F012F801229102064800F00D
:10030000E1F9022000F00AF800224FF4806102486F
:1003100000F0D8F910BD0000000C0140014600209B
:1003200000E0401C1E28FCDB7047000010B500F008
:100330002FF900F04DF901229102044800F0C2F9B2
:100340000122D102014800F0BDF910BD000C0140AE
:1003500010B500224FF480610D4800F0B3F900F0B1
:1003600037F90122D1020A4800F0ACF90120FFF769
:10037000D5FF01229102064800F0A4F90120FFF701
:10038000CDFF00224FF48061014800F09BF910BDC1
:10039000000C014070B50546002400F009F9002664
:1003A00019E000224FF48061104800F08BF9012021
:1003B000FFF7B4FF012291020C4800F083F96006B8
:1003C000040E00F0DBF808B1601CC4B20120FFF796
:1003D000A5FF701CC6B2082EE3DB15B1FFF77AFF4C
:1003E00001E0FFF7B5FF204670BD0000000C0140A2
:1003F00070B504460D46164600F050F8204600F051
:100400001DF800F08FF818B100F06AF8012070BDF7
:10041000284600F013F800F085F800F03FF8611C62
:10042000C8B200F00BF800F07DF80020FFF7B2FF33
:10043000307000F055F80020E9E7000070B5044680
:1004400000F0C6F800224FF48061134800F03AF93A
:1004500000251AE0E2094FF400610F4800F032F97C
:100460000120FFF75BFF012291020B4800F02AF9FF
:100470006006040E0120FFF751FF00224FF4806157
:10048000054800F01FF9681CC5B2082DE2DB012009
:10049000FFF744FF70BD0000000C014010B500F0F4
:1004A00097F80122D1020D4800F00CF901229102C7
:1004B0000A4800F007F90420FFF730FF00224FF44C
:1004C0000061064800F0FEF80420FFF727FF002235
:1004D0004FF48061014800F0F5F810BD000C0140B8
:1004E00010B500F075F800224FF480610C4800F060
:1004F000E9F800224FF40061094800F0E3F8042015
:10050000FFF70CFF01229102054800F0DBF8012201
:10051000D102034800F0D6F80420FFF7FFFE10BD1B
:10052000000C014010B5002400F042F80122D10275
:10053000114800F0C7F80120FFF7F0FE01229102F8
:100540000D4800F0BFF80120FFF7E8FE07E0601C4F
:10055000C4B2FA2C03DDFFF7C3FF012010BD00F089
:100560000DF80028F3D100224FF48061024800F01A
:10057000A9F80020F2E70000000C014010B54FF48C
:100580000061024800F0F9F810BD0000000C0140C5
:1005900010B540F2036000F029F94FF480630322A4
:1005A0001021024800F093F810BD0000000C01403B
:1005B00010B540F2036000F019F94FF40063032214
:1005C0000421024800F083F810BD0000000C014037
:1005D00010B540F2036000F009F94FF40063032204
:1005E0001021024800F073F810BD0000000C01401B
:1005F00000BFFEE700BFFEE77047000010B500280F
:1006000007DA0A07140E054A00F00F031B1FD45423
:1006100003E00A07130E024A135410BD18ED00E060
:1006200000E400E07047704710B500F03FF810BDDF
:1006300010B51448006840F00100124908600846EF
:100640004068114908400F494860084600680F4952
:1006500008400C4908600846006820F480200860C3
:10066000084640680A49084006494860084600684C
:1006700006490840034908604FF41F00886000F0F5
:1006800027F910BD001002400C00FFE8FFFFF6FE46
:10069000FFFF00F700BFFEE70349086000BF024903
:1006A00009680029FBD17047080000200448006851
:1006B00020B103480068401E0149086070470000EF
:1006C000080000200AB1016100E041617047F0B507
:1006D000044616460025002201F00F0501F0100720
:1006E00007B1354300201EE0012787401F40C7B1F6
:1006F00022684FEA800C0F2707FA0CF7BA438700ED
:1007000005FA07F73A43282904D1012787401F40FB
:10071000676105E0482903D1012787401F40276111
:100720002260471CB8B20828DED3082022E0012747
:1007300087401F40E7B16268A0F108074FEA870CC5
:100740000F2707FA0CF7BA43A0F10807BF0005FA14
:1007500007F73A43282904D1012787401F406761E2
:1007600005E0482903D1012787401F4027616260C7
:10077000471CB8B21028DAD3F0BD02469068084092
:1007800008B1012070470020FCE70000002000F0C5
:1007900021F800F0A1F84FF4C06000F027F84FF402
:1007A0007A70FFF779FF40F2036000F01FF8FFF75F
:1007B000BDFD33220021A020FFF768FD0A20FFF7CE
:1007C0006BFF034A0021A020FFF712FE00BFFEE7E7
:1007D00004000020044A516821F0F00141EA0002BF
:1007E000014B5A607047000000100240064A02EBBD
:1007F0009011096800F01F0301229A401143024B37
:1008000003EB90121160704700100240002000219D
:100810002C4A126842F480322A4B1A6000BF401CF6
:10082000284A126802F4003119B94FF6FF7290425B
:10083000F5D1244A126802F400320AB900BFFEE77B
:10084000204A52681F4B5A601A4652685A601A462C
:10085000526842F480625A601A46526822F440326A
:100860005A601A46526842F440325A601A46526838
:10087000154B1A40134B5A601A465268134B1A43D1
:10088000104B5A601A46126842F080721A6000BF1C
:100890000C4A126802F00072002AF9D0094A526824
:1008A00022F00302074B5A601A46526842F00202D5
:1008B0005A6000BF034A526802F00802002AF9D0C9
:1008C0007047000000100240FFFFC3F70000280837
:1008D00010B5FFF79BFF10BD10B5124800684FF42C
:1008E0007A71B0FBF1F4601EB0F1807F01D301207A
:1008F0000FE0601E4FF0E02148610F214FF0FF3004
:10090000FFF77CFE00204FF0E0218861072008619E
:10091000002008B100BFFEE70021481EFFF76EFE71
:1009200010BD000000000020480900080000002061
:100930000C0000006C010008540900080C000020A5
:10094000644000008801000800F36F06000000000A
:0409500000000000A3
:0400000508000131BD
:00000001FF
