:020000040800F2
:1000000000040020490100089503000819030008B6
:100010009103000889010008410600080000000063
:10002000000000000000000000000000F1040008D3
:100030008D0100080000000097030008DD0500089E
:100040005F0100085F0100085F0100085F01000810
:100050005F0100085F0100085F0100085F01000800
:100060005F0100085F0100085F0100085F010008F0
:100070005F0100085F0100085F0100085F010008E0
:100080005F0100085F0100085F0100085F010008D0
:100090005F0100085F0100085F0100085F010008C0
:1000A0005F0100085F0100085F0100085F010008B0
:1000B0005F0100085F0100085F0100085F010008A0
:1000C0005F0100085F0100085F0100085F01000890
:1000D0005F0100085F0100085F0100085F01000880
:1000E0005F0100085F0100085F0100085F01000870
:1000F0005F0100085F0100085F0100085F01000860
:100100005F0100085F0100085F0100085F0100084F
:100110005F0100085F0100085F0100085F0100083F
:100120005F0100085F0100085F0100085F0100082F
:10013000DFF810D000F016F8004800476506000808
:10014000AFF300800004002005480047FEE7FEE70B
:10015000FEE7FEE7FEE7FEE7FEE7FEE7FEE7FEE777
:1001600031010008064C074D06E0E06840F001034D
:1001700094E8070098471034AC42F6D3FFF7DCFF51
:10018000A0060008B006000800BFFEE7704701B5F2
:1001900002E00098401E009000980028F9D108BDA8
:1001A0002DE9F0410246002500260020002300240E
:1001B000002791F803C00CF00F0591F803C00CF074
:1001C000100CBCF1000F03D091F802C04CEA0505F9
:1001D00091F800C0BCF1000F31D0146800202BE072
:1001E0004FF0010C0CFA00F3B1F800C00CEA030662
:1001F0009E4220D183004FF00F0C0CFA03F7BC4352
:1002000005FA03FC4CEA040491F803C0BCF1280F82
:1002100006D14FF0010C0CFA00FCC2F814C00AE041
:1002200091F803C0BCF1480F05D14FF0010C0CFA56
:1002300000FCC2F810C0401C0828D1D31460B1F8EB
:1002400000C0BCF1FF0F34DD546800202EE000F147
:10025000080C4FF0010808FA0CF3B1F800C00CEAE2
:1002600003069E4221D183004FF00F0C0CFA03F7D6
:10027000BC4305FA03FC4CEA040491F803C0BCF14A
:10028000280F05D100F1080C08FA0CF8C2F8148008
:1002900091F803C0BCF1480F07D100F1080C4FF0F2
:1002A000010808FA0CF8C2F81080401C0828CED3C8
:1002B0005460BDE8F081416170470161704710B53D
:1002C000044600F079F8012000F0CEF800BF2120AC
:1002D00000F098F80028FAD0002000F0B9F80020CB
:1002E00000F0DAF84FF4806000F0CAF821460020F0
:1002F00000F0E4F8012000F0DBF800BF392000F046
:1003000081F80028FAD0022000F0E6F800BF00F0E3
:1003100097F80828FBD110BD00BFFEE708B5012102
:10032000102000F039F80420ADF8000010208DF8FE
:10033000030003208DF8020069460948FFF730FFEB
:100340000820ADF8000069460548FFF729FF0421A1
:100350000348FFF7B2FF08210148FFF7AEFF08BDD1
:100360000010014008B50121042000F015F84FF4F9
:100370008070ADF8000018208DF8030003208DF880
:10038000020069460148FFF70BFF08BD0008014065
:1003900000BFFEE77047704729B1064A92690243E1
:1003A000044B9A6104E0034A92698243014B9A61CB
:1003B00070470000001002400F48006840F0010044
:1003C0000D490860084640680C4908400A494860E1
:1003D000084600680A49084007490860084600685E
:1003E00020F4802008600846406820F4FE00486041
:1003F0004FF41F0088607047001002400000FFF8B3
:10040000FFFFF6FE10B501460022002300204A112E
:10041000012A02D1094C236806E0022A02D1074CC6
:10042000236A01E0054C636A01F01F020124944035
:100430001C400CB1012000E0002010BD0010024063
:100440000248406800F00C007047000000100240B5
:1004500001460020034A506820F0F0000843506035
:10046000704700000010024001490860704700001A
:10047000000042420149C87170470000001002406C
:1004800001460020034A506820F4E06008435060B1
:10049000704700000010024001460020034A5068E7
:1004A00020F4605040EAC1005060704700100240E4
:1004B00001490866704700000000424202460020E1
:1004C000044B586820F47C1042EA01031843014BA6
:1004D000586070470010024001460020034A5068EF
:1004E00020F00300084350607047000000100240F5
:1004F000704710B500F002F810BD00000CB50020E8
:10050000019000903348006840F480303149086021
:1005100000BF3048006800F4003000900198401C93
:100520000190009818B90198B0F5A06FF1D1294851
:10053000006800F4003010B10120009001E00020BC
:1005400000900098012843D12348006840F0100033
:10055000214908600846006820F00300086008464A
:10056000006840F0020008601A4840681949486075
:100570000846406848600846406840F4806048602B
:100580000846406820F47C1048600846406840F403
:10059000E81048600846006840F08070086000BFBE
:1005A0000C48006800F000700028F9D00948406845
:1005B00020F00300074948600846406840F0020008
:1005C000486000BF0348406800F00C000828F9D1DB
:1005D0000CBD0000001002400020024070470000E7
:1005E00010B51348006840F0010011490860084642
:1005F0004068104908400E494860084600680E49A6
:1006000008400B4908600846006820F48020086014
:100610000846406820F4FE0048604FF41F008860E0
:10062000FFF767FF4FF000600449086010BD00004D
:10063000001002400000FFF8FFFFF6FE08ED00E0AA
:1006400000BFFEE702E008C8121F08C1002AFAD165
:1006500070477047002001E001C1121F002AFBD142
:10066000704700000020FFF72AFEFFF77BFE042002
:10067000FFF700FFFFF752FE0DE004210648FFF7E9
:100680001AFE0648FFF783FD04210348FFF715FE15
:100690000248FFF77CFDF0E700100140FFFF0F006C
:1006A000B006000800000020000400005406000806
:0400000508000131BD
:00000001FF
