:020000040800F2
:1000000068400020CD010008A10200089902000804
:100010009D020008870200083D060008000000005D
:10002000000000000000000000000000CF050008F4
:100030008B02000800000000CD050008D105000873
:10004000E7010008E7010008E7010008E7010008F0
:10005000E7010008E7010008E7010008E7010008E0
:10006000E7010008E7010008E7010008E7010008D0
:10007000E7010008E7010008E7010008E7010008C0
:10008000E7010008E7010008E7010008E7010008B0
:10009000E7010008E7010008E7010008E7010008A0
:1000A000E7010008E7010008E7010008E701000890
:1000B000E7010008E7010008E7010008E701000880
:1000C000E7010008E7010008E7010008E701000870
:1000D000E7010008E7010008E7010008E701000860
:1000E000E7010008E7010008E7010008E701000850
:1000F000E7010008E7010008E7010008E701000840
:10010000E7010008E7010008E7010008E70100082F
:10011000E7010008E7010008E7010008E70100081F
:10012000E7010008E7010008E7010008E70100080F
:1001300000F002F800F03AF80AA090E8000C8244BF
:100140008344AAF10107DA4501D100F02FF8AFF29C
:10015000090EBAE80F0013F0010F18BFFB1A43F0A5
:1001600001031847940F0000B40F0000103A24BF99
:1001700078C878C1FAD8520724BF30C830C144BF0C
:1001800004680C607047000000230024002500264E
:10019000103A28BF78C1FBD8520728BF30C148BFEA
:1001A0000B6070471FB51FBD10B510BD00F031F8D2
:1001B0001146FFF7F7FF00F0B5FA00F04FF803B46F
:1001C000FFF7F2FF03BC00F057F800000948804732
:1001D00009480047FEE7FEE7FEE7FEE7FEE7FEE729
:1001E000FEE7FEE7FEE7FEE704480549054A064B41
:1001F00070470000D90500083101000868000020A0
:100200006840002068200020682000207047704768
:100210007047754600F02CF8AE4605006946534617
:1002200020F00700854618B020B5FFF7DDFFBDE8D8
:1002300020404FF000064FF000074FF000084FF04D
:10024000000B21F00701AC46ACE8C009ACE8C009DE
:10025000ACE8C009ACE8C0098D46704710B504464B
:10026000AFF300802046BDE81040FFF7A8BF0000B4
:10027000004870470800002001491820ABBEFEE787
:1002800026000200704700BFFEE7704700B5024637
:10029000104600F0D5F900BD00BFFEE700BFFEE745
:1002A0007047000010B5002807DA0A07140E054A47
:1002B00000F00F031B1FD45403E00A07130E024A79
:1002C000135410BD18ED00E000E400E070B5002408
:1002D00019E004F1B001C8B2002100F031F90021A9
:1002E000084600F02DF90021102000F029F9002522
:1002F00005E00121002000F023F9681CC5B2802D23
:10030000F7DB601CC4B2082CE3DB70BD10B540F213
:10031000036000F04BFA4FF4807303221021514820
:1003200000F0A9F94FF40073032210214D4800F0AA
:10033000A2F94FF48053032210214A4800F09BF9A0
:100340004FF4005303221021464800F094F9002294
:100350004FF48051434800F089F900224FF40051D6
:10036000404800F083F96420FFF790FF0021AE20A1
:1003700000F0E6F80021084600F0E2F80021102025
:1003800000F0DEF80021402000F0DAF800218120A2
:1003900000F0D6F80021CF2000F0D2F80021A120F3
:1003A00000F0CEF80021C82000F0CAF80021A620F5
:1003B00000F0C6F80021A82000F0C2F800213F207C
:1003C00000F0BEF80021D32000F0BAF80021084662
:1003D00000F0B6F80021D52000F0B2F8002180200E
:1003E00000F0AEF80021D92000F0AAF80021F12099
:1003F00000F0A6F80021DA2000F0A2F80021122077
:1004000000F09EF80021DB2000F09AF80021402047
:1004100000F096F80021202000F092F80021022040
:1004200000F08EF800218D2000F08AF800211420C1
:1004300000F086F80021A42000F082F80021A62018
:1004400000F07EF80021AF2000F07AF80021AF2004
:1004500000F076F8FFF73AFF0021084600F004F8B4
:1004600010BD0000000C014070B504460D4605F1BA
:10047000B001C8B2002100F063F8102141EA141065
:10048000002100F05DF804F00F0141F001000021AF
:1004900000F056F870BD00002DE9F04107460E4609
:1004A000904600250024A8F12000C5B27F2F02DD70
:1004B0000027B01CC6B231463846FFF7D5FF0024EE
:1004C00008E004EB05110F4A505C012100F038F8F8
:1004D000601CC4B2082CF4DB701CC1B23846FFF7B4
:1004E000C3FF002409E004EB05110831054A505C04
:1004F000012100F025F8601CC4B2082CF3DBBDE834
:10050000F0810000080B00082DE9F04104460F4679
:10051000154600260EE0AA5D39462046FFF7BCFFCF
:1005200004F10800C4B2782C02DD0024B81CC7B264
:10053000701CC6B2A85D0028EDD1BDE8F0810000B6
:1005400070B504460E462EB1012211031E4800F07C
:100550008DF805E000224FF480511B4800F086F82A
:1005600000224FF40051184800F080F800251DE0EB
:1005700000224FF48071144800F078F804F08000F5
:1005800028B101225102104800F070F805E0002265
:100590004FF400710C4800F069F8012211020A487A
:1005A00000F064F86006040E681CC5B2082DDFDB9D
:1005B00001225103044800F059F8012211030248B6
:1005C00000F054F870BD0000000C01407047704707
:1005D00010B500F03FF810BD10B51448006840F0A9
:1005E00001001249086008464068114908400F4957
:1005F0004860084600680F4908400C4908600846F2
:10060000006820F480200860084640680A490840D5
:1006100006494860084600680649084003490860E2
:100620004FF41F00886000F02FF910BD0010024049
:100630000C00FFE8FFFFF6FEFFFF00F700BFFEE73C
:100640000349086000BF024909680029FBD17047CF
:10065000040000200448006820B103480068401EE0
:100660000149086070470000040000200AB10161E0
:1006700000E041617047F0B50446164600250022AF
:1006800001F00F0501F0100707B1354300201EE00F
:10069000012787401F40C7B122684FEA800C0F270F
:1006A00007FA0CF7BA43870005FA07F73A432829F7
:1006B00004D1012787401F40676105E0482903D125
:1006C000012787401F4027612260471CB8B20828D5
:1006D000DED3082022E0012787401F40E7B162688F
:1006E000A0F108074FEA870C0F2707FA0CF7BA4367
:1006F000A0F10807BF0005FA07F73A43282904D1FB
:10070000012787401F40676105E0482903D1012781
:1007100087401F4027616260471CB8B21028DAD3B7
:10072000F0BD0000002000F035F800F0B1F84FF403
:10073000C06000F03BF84FF47A70FFF781FF40F2A1
:10074000036000F033F8FFF7E1FDFFF7BFFD12E0B3
:1007500009A203210620FFF7D7FE0BA206210020E5
:10076000FFF7D2FE0AA206213F20FFF7CDFE41F29D
:100770008830FFF78BFDEBE74744333246313033A7
:10078000205445535400000047414F4348414F0017
:1007900036363600044A516821F0F00141EA000281
:1007A000014B5A607047000000100240064A02EBFD
:1007B0009011096800F01F0301229A401143024B77
:1007C00003EB9012116070470010024000200021DE
:1007D0002B4A126842F48032294B1A6000BF401C39
:1007E000274A126802F4003119B94FF6FF7290429D
:1007F000F5D1234A126802F400320AB900BFFEE7BD
:100800001F4A52681E4B5A601A4652685A601A466E
:10081000526842F480625A601A46526822F44032AA
:100820005A601A46526842F440325A601A46526878
:10083000144B1A40124B5A601A46526842F4201266
:100840005A601A46126842F080721A6000BF0C4A61
:10085000126802F00072002AF9D0094A526822F0A8
:100860000302074B5A601A46526842F002025A606D
:1008700000BF034A526802F00802002AF9D070470C
:1008800000100240FFFFC3F710B5FFF79FFF10BD38
:1008900010B5124800684FF47A71B0FBF1F4601E95
:1008A000B0F1807F01D301200FE0601E4FF0E02106
:1008B00048610F214FF0FF30FFF7F4FC00204FF0AC
:1008C000E021886107200861002008B100BFFEE731
:1008D0000021481EFFF7E6FC10BD000000000020CC
:1008E0000000000000000000002F000000000700D2
:1008F000070000147F147F1400242A7F2A1200624C
:1009000064081323003649552250000005030000F7
:1009100000001C224100000041221C000014083E7F
:1009200008140008083E0808000000A06000000845
:100930000808080800006060000000201008040299
:10094000003E5149453E0000427F40000042615157
:100950004946002141454B31001814127F100027F1
:1009600045454539003C4A494930000171090503B4
:1009700000364949493600064949291E00003636E5
:100980000000000056360000000814224100001448
:100990001414141400004122140800020151090625
:1009A00000324959513E007C1211127C007F4949A6
:1009B0004936003E41414122007F4141221C007FD7
:1009C00049494941007F09090901003E4149497AE5
:1009D000007F0808087F0000417F4100002040415F
:1009E0003F01007F08142241007F40404040007FCB
:1009F000020C027F007F0408107F003E4141413E0F
:100A0000007F09090906003E4151215E007F091956
:100A100029460046494949310001017F0101003F53
:100A20004040403F001F2040201F003F4038403FD3
:100A30000063140814630007087008070061514937
:100A4000454300007F41410000552A552A550000CA
:100A500041417F0000040201020400404040404048
:100A6000000001020400002054545478007F4844E0
:100A7000443800384444442000384444487F003817
:100A80005454541800087E0901020018A4A4A47C40
:100A9000007F080404780000447D4000004080840A
:100AA0007D00007F102844000000417F4000007C52
:100AB00004180478007C080404780038444444385E
:100AC00000FC242424180018242418FC007C0804AA
:100AD000040800485454542000043F444020003C83
:100AE0004040207C001C2040201C003C4030403C0A
:100AF000004428102844001CA0A0A07C004464549A
:100B00004C441414141414140000000000000000DD
:100B10000000000000000000000000F800000000DD
:100B2000000000333000000000100C06100C06001E
:100B3000000000000000000040C07840C078400085
:100B4000043F04043F040400007088FC08300000E7
:100B5000001820FF211E0000F008F000E01800003F
:100B600000211C031E211E0000F0088870000000F8
:100B70001E2123241927211010160E00000000004A
:100B80000000000000000000000000E01804020067
:100B9000000000071820400000020418E0000000D8
:100BA0000040201807000000404080F080404000D6
:100BB0000202010F01020200000000F0000000002C
:100BC0000101011F01010100000000000000000000
:100BD00080B0700000000000000000000000000075
:100BE00000010101010101010000000000000000FE
:100BF0000030300000000000000000008060180499
:100C0000006018060100000000E010080810E00075
:100C1000000F102020100F00001010F8000000003E
:100C20000020203F20200000007008080888700085
:100C30000030282422213000003008888848300005
:100C40000018202020110E000000C02010F8000025
:100C500000070424243F240000F8088888080800BE
:100C60000019212020110E0000E0108888180000D3
:100C7000000F112020110E0000380808C8380800A5
:100C80000000003F00000000007088080888700025
:100C9000001C222121221C0000E010080810E000A6
:100CA0000000312222110F00000000C0C00000002F
:100CB0000000003030000000000000800000000054
:100CC000000080600000000000008040201008004C
:100CD0000001020408102000404040404040400015
:100CE00004040404040404000008102040800000F0
:100CF0000020100804020100007048080808F000F5
:100D00000000003036010000C030C828E810E000C4
:100D10000718272423140B000000C038E00000004F
:100D2000203C23020227382008F8888888700000B9
:100D3000203F202020110E00C0300808080838008D
:100D4000071820202010080008F808080810E00004
:100D5000203F202020100F0008F88888E8081000A5
:100D6000203F20202320180008F88888E808100079
:100D7000203F200003000000C030080808380000B1
:100D800007182020221E020008F808000008F808B2
:100D9000203F210101213F20000808F80808000039
:100DA0000020203F2020000000000808F80808006C
:100DB000C08080807F00000008F888C028180800E4
:100DC000203F20012638200008F80800000000001D
:100DD000203F20202020300008F8F800F8F8080014
:100DE000203F003F003F200008F830C00008F8080E
:100DF000203F200007183F00E01008080810E0001E
:100E00000F10202020100F0008F808080808F00034
:100E1000203F210101010000E01008080810E00057
:100E20000F18242438504F0008F8888888887000EC
:100E3000203F2000030C302000708808080838008C
:100E40000038202121221C00180808F80808180082
:100E50000000203F2000000008F808000008F80803
:100E6000001F202020201F000878880000C83808B4
:100E7000000007380E010000F80800F80008F8002C
:100E8000033C0700073C03000818688080681808C6
:100E900020302C03032C30200838C800C838080044
:100EA0000000203F2000000010080808C838080093
:100EB0002038262120201800000000FE0202020037
:100EC0000000007F40404000000C30C000000000E7
:100ED000000000010638C00000020202FE0000000F
:100EE000004040407F0000000000040202020400B5
:100EF00000000000000000000000000000000000F2
:100F000080808080808080800002020400000000D9
:100F100000000000000000000000808080800000D1
:100F20000019242222223F2008F8008080000000BF
:100F3000003F112020110E00000000808080000082
:100F4000000E112020201100000000808088F80091
:100F5000000E112020103F200000808080800000C3
:100F6000001F222222221300008080F08888881827
:100F70000020203F20200000000080808080800032
:100F8000006B94949493600008F8008080800000C7
:100F9000203F210000203F200080989800000000A2
:100FA0000020203F202000000000008098980000D2
:100FB00000C08080807F000008F8000080808000F2
:100FC000203F24022D302000000808F80000000017
:100FD0000020203F202000008080808080808000D2
:100FE000203F20003F20003F808000808080000064
:100FF000203F210000203F200000808080800000F2
:10100000001F202020201F00808000808000000022
:1010100080FFA12020110E00000000808080800051
:10102000000E112020A0FF80808080008080800042
:1010300020203F212000010000008080808080006F
:101040000033242424241900008080E080800000E4
:101050000000001F20200000808000000080800031
:10106000001F202020103F20808080000080808092
:1010700000010E3008060100808000800080808022
:101080000F300C030C300F00008080008080800047
:101090000020312E0E312000808080000080808072
:1010A00080818E7018060100008080808080800022
:1010B0000021302C2221300000000000807C020240
:1010C00000000000003F404000000000FF00000062
:1010D00000000000FF0000000002027C8000000011
:1010E0000040403F0000000000060101020204042D
:1010F000000000000000000018110008000000209F
:10110000080000006C010008201100080800002001
:101110006040000088010008006CDC020000000054
:0400000508000131BD
:00000001FF
