:020000040800F2
:10000000B04100200D020008A90300080503000804
:10001000A5030008C7020008B50A00080000000098
:10002000000000000000000000000000DD090008E2
:10003000CB0200080000000065090008DF09000885
:1000400027020008270200082702000827020008EC
:1000500027020008270200082702000827020008DC
:1000600027020008270200082702000827020008CC
:1000700027020008270200082702000827020008BC
:1000800027020008270200082702000827020008AC
:10009000270200082702000827020008270200089C
:1000A000270200082702000827020008270200088C
:1000B000270200082702000827020008270200087C
:1000C000270200082702000827020008270200086C
:1000D000270200082702000827020008270200085C
:1000E000270200082702000827020008270200084C
:1000F000270200082702000827020008270200083C
:10010000270200082702000827020008270200082B
:10011000270200082702000827020008270200081B
:10012000270200082702000827020008270200080B
:1001300000F002F800F05AF80AA090E8000C82449F
:100140008344AAF10107DA4501D100F04FF8AFF27C
:10015000090EBAE80F0013F0010F18BFFB1A43F0A5
:1001600001031847D0140000F01400000A444FF0B7
:10017000000C10F8013B13F0070408BF10F8014B06
:100180001D1108BF10F8015B641E05D010F8016B4B
:10019000641E01F8016BF9D113F0080F1EBF10F8AF
:1001A000014BAD1C0C1B09D16D1E58BF01F801CBD2
:1001B000FAD505E014F8016B01F8016B6D1EF9D555
:1001C0009142D6D37047000000230024002500266A
:1001D000103A28BF78C1FBD8520728BF30C148BFAA
:1001E0000B6070471FB51FBD10B510BD00F031F892
:1001F0001146FFF7F7FF00F0D9FC00F04FF803B409
:10020000FFF7F2FF03BC00F057F8000009488047F1
:1002100009480047FEE7FEE7FEE7FEE7FEE7FEE7E8
:10022000FEE7FEE7FEE7FEE704480549054A064B00
:1002300070470000E909000831010008B001002002
:10024000B0410020B0210020B0210020704770474D
:100250007047754600F02CF8AE46050069465346D7
:1002600020F00700854618B020B5FFF7DDFFBDE898
:1002700020404FF000064FF000074FF000084FF00D
:10028000000B21F00701AC46ACE8C009ACE8C0099E
:10029000ACE8C009ACE8C0098D46704710B504460B
:1002A000AFF300802046BDE81040FFF7A8BF000074
:1002B000004870475001002001491820ABBEFEE7FE
:1002C00026000200704700BFFEE7704700B50246F7
:1002D000104600F0F1FB00BD10B503460C46214668
:1002E000184600F05AFC08B1012010BD0020FCE7C0
:1002F00030B503460C4615462A462146184600F0FE
:10030000F1FB30BD00BFFEE710B540F2036000F026
:10031000E5FC40F2026000F0E1FC102303221946E4
:100320001E4800F0E4FB4FF48073032210211C48A8
:1003300000F0DDFB102303221946194800F0D7FB1B
:10034000202303221021164800F0D1FB8023032232
:100350001021134800F0CBFB08230322042110488E
:1003600000F0C5FB4023032204210D4800F0BFFB31
:10037000012210210A48FFF7BBFF012211020848A1
:10038000FFF7B6FF002210210548FFF7B1FF012259
:1003900011020348FFF7ACFF10BD0000000C014044
:1003A0000008014000BFFEE7704700001FB510A124
:1003B00003C9CDE90201052202A9302000F08AF824
:1003C00005226946102000F017F8002406E01DF809
:1003D0000400A52800D003E0601CC4B2052CF6DBA5
:1003E00000BF052C02D0012004B010BD0020FBE7A7
:1003F000A5A5A5A5A50000002DE9F04107460D46DD
:10040000164600224FF480710C48FFF771FF384602
:1004100000F0B0FA8046002405E0002000F0AAFABF
:100420002855601CC4B2B442F7DB01221102034814
:10043000FFF75EFF4046BDE8F08100000008014084
:1004400070B5044600224FF480710848FFF750FF52
:10045000204600F08FFA002000F08CFA05460122B9
:1004600011020248FFF744FF284670BD0008014012
:1004700070B50546002210211548FFF739FF2022EC
:100480002946A02000F026F8012210211048FFF78D
:100490002FFF00BF08210E48FFF71EFF0028F9D1EB
:1004A0000720FFF7CDFF04462146272000F036F84D
:1004B00004F0100028B1FF21E12000F02FF81020F7
:1004C00070BD04F0200008B12020F9E7FF20F7E715
:1004D000000801402DE9F04107460C461546002270
:1004E0004FF480710C48FFF703FF384600F042FAE2
:1004F0008046002605E014F8010B00F03BFA701C62
:10050000C6B2AE42F7DB012211020348FFF7F0FE4C
:100510004046BDE8F08100000008014070B5054686
:100520000C4600224FF480710848FFF7E1FE284690
:1005300000F020FA0646204600F01CFA01221102C3
:100540000248FFF7D5FE304670BD000000080140AC
:1005500010B5002807DA0A07140E054A00F00F0349
:100560001B1FD45403E00A07130E024A135410BD94
:1005700018ED00E000E400E070B5002419E004F19B
:10058000B001C8B2002100F0A7F90021084600F030
:10059000A3F90021102000F09FF9002505E00121BA
:1005A000002000F099F9681CC5B2802DF7DB601CB3
:1005B000C4B2082CE3DB70BD10B540F2036000F05C
:1005C0008DFB4FF4807303221021514800F08FFA05
:1005D0004FF40073032210214D4800F088FA4FF4C5
:1005E0008053032210214A4800F081FA4FF400534F
:1005F00003221021464800F07AFA00224FF480517D
:10060000434800F06FFA00224FF40051404800F0D8
:1006100069FA6420FFF75AFE0021AE2000F05CF971
:100620000021084600F058F90021102000F054F98C
:100630000021402000F050F90021812000F04CF909
:100640000021CF2000F048F90021A12000F044F95A
:100650000021C82000F040F90021A62000F03CF95C
:100660000021A82000F038F900213F2000F034F9E3
:100670000021D32000F030F90021084600F02CF9C9
:100680000021D52000F028F90021802000F024F975
:100690000021D92000F020F90021F12000F01CF900
:1006A0000021DA2000F018F90021122000F014F9DE
:1006B0000021DB2000F010F90021402000F00CF9AF
:1006C0000021202000F008F90021022000F004F9A8
:1006D00000218D2000F000F90021142000F0FCF82A
:1006E0000021A42000F0F8F80021A62000F0F4F882
:1006F0000021AF2000F0F0F80021AF2000F0ECF86E
:10070000FFF73AFF0021084600F004F810BD000092
:10071000000C014070B504460D4605F1B001C8B2A9
:10072000002100F0D9F8102141EA1410002100F056
:10073000D3F804F00F0141F00100002100F0CCF8E3
:1007400070BD00002DE9F04180460E461546002799
:1007500031464046FFF7DEFF00240AE0124A02EB72
:100760008511085D012100F0B7F8781CC7B2601C44
:10077000C4B2102CF2DB701CC1B24046FFF7CAFFB6
:1007800000240CE06900491C074A02EB4111085D96
:10079000012100F0A1F8781CC7B2601CC4B2102C73
:1007A000F0DBBDE8F0810000100000202DE9F041F1
:1007B00007460E46904600250024A8F12000C5B249
:1007C0007F2F02DD0027B01CC6B231463846FFF746
:1007D000A1FF002408E004EB05110F4A505C012141
:1007E00000F07AF8601CC4B2082CF4DB701CC1B2B3
:1007F0003846FFF78FFF002409E004EB05110831AC
:10080000054A505C012100F067F8601CC4B2082C56
:10081000F3DBBDE8F0810000381000082DE9FF5F30
:10082000074691461D460E9E4FF0000A002433E015
:10083000281B401EC1B20A2000F038FAB9FBF0F0C4
:100840000A21B0FBF1F201FB1208BAF1000F13D13B
:10085000681EA04210DDB8F1000F0BD1B34606EBC5
:10086000DB71491001FB0471C8B220220199FFF726
:100870009DFF0FE04FF0010AB34606EBDB71491014
:1008800001FB0471C8B208F13001CAB20199FFF747
:100890008DFF00BF601CC4B2AC42C9DBBDE8FF9F46
:1008A0002DE9F04104460F46154600260EE0AA5DEC
:1008B00039462046FFF77AFF04F10800C4B2782CCD
:1008C00002DD0024B81CC7B2701CC6B2A85D0028A7
:1008D000EDD1BDE8F081000070B504460E462EB1A2
:1008E000012211031E4800F0FDF805E000224FF43C
:1008F00080511B4800F0F6F800224FF400511848D0
:1009000000F0F0F800251DE000224FF4807114483B
:1009100000F0E8F804F0800028B1012251021048EC
:1009200000F0E0F805E000224FF400710C4800F000
:10093000D9F8012211020A4800F0D4F86006040E2A
:10094000681CC5B2082DDFDB01225103044800F00A
:10095000C9F801221103024800F0C4F870BD00007C
:10096000000C01407047002101E000BF491C81429A
:10097000FBDB704770B50446002528E004F08000DA
:1009800028B1012280211448FFF7B2FC04E00022C4
:1009900080211148FFF7ACFC6006040E01222021E3
:1009A0000D48FFF7A5FC0A20FFF7DDFF40210A48AC
:1009B000FFF792FC08B144F0010400222021064810
:1009C000FFF796FC0A20FFF7CEFF681C85B2082DC2
:1009D000D4DB204670BD000000080140704710B510
:1009E00000F074F810BD000010B51448006840F025
:1009F00001001249086008464068114908400F4943
:100A00004860084600680F4908400C4908600846DD
:100A1000006820F480200860084640680A490840C1
:100A200006494860084600680649084003490860CE
:100A30004FF41F00886000F0BFF910BD00100240A5
:100A40000C00FFE8FFFFF6FEFFFF00F710B50022E5
:100A500010211548FFF74CFC052214493020FFF700
:100A600039FD052212492A20FFF734FD01212120FA
:100A7000FFF754FD01212220FFF750FD1A21242009
:100A8000FFF74CFD28212520FFF748FD0F212620E8
:100A9000FFF744FD0E212020FFF740FD0122102129
:100AA0000148FFF725FC10BD00080140281600088A
:100AB0002D16000800BFFEE70349086000BF024989
:100AC00009680029FBD170470C0000200448006829
:100AD00020B103480068401E0149086070470000CB
:100AE0000C0000200AB1016100E041617047F0B5DF
:100AF000044616460025002201F00F0501F01007FC
:100B000007B1354300201EE0012787401F40C7B1D1
:100B100022684FEA800C0F2707FA0CF7BA438700C8
:100B200005FA07F73A43282904D1012787401F40D7
:100B3000676105E0482903D1012787401F402761ED
:100B40002260471CB8B20828DED3082022E0012723
:100B500087401F40E7B16268A0F108074FEA870CA1
:100B60000F2707FA0CF7BA43A0F10807BF0005FAF0
:100B700007F73A43282904D1012787401F406761BE
:100B800005E0482903D1012787401F4027616260A3
:100B9000471CB8B21028DAD3F0BD0246906808406E
:100BA00008B1012070470020FCE7000008B50020D4
:100BB00000F088F800F004F94FF4C06000F08EF8FF
:100BC0004FF47A70FFF778FFFFF7F6FCFFF7D4FCDD
:100BD000FFF79AFB00BFFFF7E9FB0028FBD1FFF707
:100BE00035FF50E0FFF7C8FC002211461220FFF746
:100BF000A9FD012200212420FFF7A4FD02220021EB
:100C00003620FFF79FFD032200214820FFF79AFDC1
:100C1000042200215A20FFF795FD1BA20321062084
:100C2000FFF73EFE1CA206210020FFF739FE00243C
:100C30000FE01B4804551020194900900A5D282137
:100C400001EBC401C8B201230621FFF7E7FD601CD8
:100C5000C4B2052CEDDB1248FFF70AFC202809D1AD
:100C600010A206216020FFF71BFE40F6B830FFF708
:100C70002DFB08E00CA206216020FFF711FE40F6D4
:100C8000B830FFF723FBADE74E5246323430312007
:100C9000544553540000000053454E443A000000B0
:100CA000040000204F4B00004552520010B5024690
:100CB000012000E050430B1EA1F10104E1B2F9D183
:100CC00010BD0000044A516821F0F00141EA000221
:100CD000014B5A607047000000100240064A02EBC8
:100CE0009011096800F01F0301229A401143024B42
:100CF00003EB9012116070470010024000200021A9
:100D00002B4A126842F48032294B1A6000BF401C03
:100D1000274A126802F4003119B94FF6FF72904267
:100D2000F5D1234A126802F400320AB900BFFEE787
:100D30001F4A52681E4B5A601A4652685A601A4639
:100D4000526842F480625A601A46526822F4403275
:100D50005A601A46526842F440325A601A46526843
:100D6000144B1A40124B5A601A46526842F4201231
:100D70005A601A46126842F080721A6000BF0C4A2C
:100D8000126802F00072002AF9D0094A526822F073
:100D90000302074B5A601A46526842F002025A6038
:100DA00000BF034A526802F00802002AF9D07047D7
:100DB00000100240FFFFC3F710B5FFF79FFF10BD03
:100DC00010B5124800684FF47A71B0FBF1F4601E60
:100DD000B0F1807F01D301200FE0601E4FF0E021D1
:100DE00048610F214FF0FF30FFF7B2FB00204FF0BA
:100DF000E021886107200861002008B100BFFEE7FC
:100E00000021481EFFF7A4FB10BD000000000020D9
:100E10000000000000000000002F0000000007009C
:100E2000070000147F147F1400242A7F2A12006216
:100E300064081323003649552250000005030000C2
:100E400000001C224100000041221C000014083E4A
:100E500008140008083E0808000000A06000000810
:100E60000808080800006060000000201008040264
:100E7000003E5149453E0000427F40000042615122
:100E80004946002141454B31001814127F100027BC
:100E900045454539003C4A4949300001710905037F
:100EA00000364949493600064949291E00003636B0
:100EB0000000000056360000000814224100001413
:100EC00014141414000041221408000201510906F0
:100ED00000324959513E007C1211127C007F494971
:100EE0004936003E41414122007F4141221C007FA2
:100EF00049494941007F09090901003E4149497AB0
:100F0000007F0808087F0000417F41000020404129
:100F10003F01007F08142241007F40404040007F95
:100F2000020C027F007F0408107F003E4141413ED9
:100F3000007F09090906003E4151215E007F091921
:100F400029460046494949310001017F0101003F1E
:100F50004040403F001F2040201F003F4038403F9E
:100F60000063140814630007087008070061514902
:100F7000454300007F41410000552A552A55000095
:100F800041417F0000040201020400404040404013
:100F9000000001020400002054545478007F4844AB
:100FA000443800384444442000384444487F0038E2
:100FB0005454541800087E0901020018A4A4A47C0B
:100FC000007F080404780000447D400000408084D5
:100FD0007D00007F102844000000417F4000007C1D
:100FE00004180478007C0804047800384444443829
:100FF00000FC242424180018242418FC007C080475
:10100000040800485454542000043F444020003C4D
:101010004040207C001C2040201C003C4030403CD4
:10102000004428102844001CA0A0A07C0044645464
:101030004C441414141414140000000000000000A8
:101040000000000000000000000000F800000000A8
:10105000000000333000000000100C06100C0600E9
:10106000000000000000000040C07840C078400050
:10107000043F04043F040400007088FC08300000B2
:10108000001820FF211E0000F008F000E01800000A
:1010900000211C031E211E0000F0088870000000C3
:1010A0001E2123241927211010160E000000000015
:1010B0000000000000000000000000E01804020032
:1010C000000000071820400000020418E0000000A3
:1010D0000040201807000000404080F080404000A1
:1010E0000202010F01020200000000F000000000F7
:1010F0000101011F010101000000000000000000CB
:1011000080B070000000000000000000000000003F
:1011100000010101010101010000000000000000C8
:101120000030300000000000000000008060180463
:10113000006018060100000000E010080810E00040
:10114000000F102020100F00001010F80000000009
:101150000020203F20200000007008080888700050
:1011600000302824222130000030088888483000D0
:101170000018202020110E000000C02010F80000F0
:1011800000070424243F240000F808888808080089
:101190000019212020110E0000E01088881800009E
:1011A000000F112020110E0000380808C838080070
:1011B0000000003F000000000070880808887000F0
:1011C000001C222121221C0000E010080810E00071
:1011D0000000312222110F00000000C0C0000000FA
:1011E000000000303000000000000080000000001F
:1011F0000000806000000000000080402010080017
:1012000000010204081020004040404040404000DF
:1012100004040404040404000008102040800000BA
:101220000020100804020100007048080808F000BF
:101230000000003036010000C030C828E810E0008F
:101240000718272423140B000000C038E00000001A
:10125000203C23020227382008F888888870000084
:10126000203F202020110E00C03008080808380058
:10127000071820202010080008F808080810E000CF
:10128000203F202020100F0008F88888E808100070
:10129000203F20202320180008F88888E808100044
:1012A000203F200003000000C0300808083800007C
:1012B00007182020221E020008F808000008F8087D
:1012C000203F210101213F20000808F80808000004
:1012D0000020203F2020000000000808F808080037
:1012E000C08080807F00000008F888C028180800AF
:1012F000203F20012638200008F8080000000000E8
:10130000203F20202020300008F8F800F8F80800DE
:10131000203F003F003F200008F830C00008F808D8
:10132000203F200007183F00E01008080810E000E8
:101330000F10202020100F0008F808080808F000FF
:10134000203F210101010000E01008080810E00022
:101350000F18242438504F0008F8888888887000B7
:10136000203F2000030C3020007088080808380057
:101370000038202121221C00180808F8080818004D
:101380000000203F2000000008F808000008F808CE
:10139000001F202020201F000878880000C838087F
:1013A000000007380E010000F80800F80008F800F7
:1013B000033C0700073C0300081868808068180891
:1013C00020302C03032C30200838C800C83808000F
:1013D0000000203F2000000010080808C83808005E
:1013E0002038262120201800000000FE0202020002
:1013F0000000007F40404000000C30C000000000B2
:10140000000000010638C00000020202FE000000D9
:10141000004040407F00000000000402020204007F
:1014200000000000000000000000000000000000BC
:1014300080808080808080800002020400000000A4
:10144000000000000000000000008080808000009C
:101450000019242222223F2008F80080800000008A
:10146000003F112020110E0000000080808000004D
:10147000000E112020201100000000808088F8005C
:10148000000E112020103F2000008080808000008E
:10149000001F222222221300008080F088888818F2
:1014A0000020203F202000000000808080808000FD
:1014B000006B94949493600008F800808080000092
:1014C000203F210000203F2000809898000000006D
:1014D0000020203F2020000000000080989800009D
:1014E00000C08080807F000008F8000080808000BD
:1014F000203F24022D302000000808F800000000E2
:101500000020203F2020000080808080808080009C
:10151000203F20003F20003F80800080808000002E
:10152000203F210000203F200000808080800000BC
:10153000001F202020201F008080008080000000ED
:1015400080FFA12020110E0000000080808080001C
:10155000000E112020A0FF8080808000808080000D
:1015600020203F212000010000008080808080003A
:101570000033242424241900008080E080800000AF
:101580000000001F202000008080000000808000FC
:10159000001F202020103F2080808000008080805D
:1015A00000010E30080601008080008000808080ED
:1015B0000F300C030C300F00008080008080800012
:1015C0000020312E0E31200080808000008080803D
:1015D00080818E70180601000080808080808000ED
:1015E0000021302C2221300000000000807C02020B
:1015F00000000000003F404000000000FF0000002D
:1016000000000000FF0000000002027C80000000DB
:101610000040403F000000000006010102020404F7
:10162000000000000000000034431010013443109B
:1016300010010000541600080000002050010000B6
:101640006C010008FC1600085001002060400000FA
:10165000C801000811C46CDC020011104040424671
:101660005CD8C07F7FC0D0584E4640402008808064
:10167000C060381F07F8083F7F4040407878203A24
:101680008201000A15E2E2B29A8E868280800517F6
:1016900040C0FF7F180D407C3CFFFF1030309FFFA3
:1016A00078F8010111081010020606FFFF01054637
:1016B00063395EC7C17F3F20000F11FEFE92FEFE20
:1016C00002101117F6F4171310001111101F1F0844
:1016D000FFFF85C1713D0F0F3D71C1813808FEFECE
:1016E0002262C2F272050312FEFE1808FFFF180EF6
:0C16F000070F1E050B114FCEC6000000B6
:0400000508000131BD
:00000001FF
