:020000040800F2
:1000000070400020CD010008A9020008A1020008EC
:10001000A502000887020008450300080000000050
:10002000000000000000000000000000D7020008EF
:100030008B02000800000000D5020008D902000869
:10004000E7010008E7010008E7010008E7010008F0
:10005000E7010008E7010008E70100088D02000839
:10006000E7010008E7010008E7010008E7010008D0
:10007000E7010008E7010008E7010008E7010008C0
:10008000E7010008E7010008E7010008E7010008B0
:10009000E7010008E7010008E7010008E7010008A0
:1000A000E7010008E7010008E7010008E701000890
:1000B000E7010008E7010008E7010008E701000880
:1000C000E7010008E7010008E7010008E701000870
:1000D000E7010008E7010008E7010008E701000860
:1000E000E7010008E7010008E7010008E701000850
:1000F000E7010008E7010008E7010008E701000840
:10010000E7010008E7010008E7010008E70100082F
:10011000E7010008E7010008E7010008E70100081F
:10012000E7010008E7010008E7010008E70100080F
:1001300000F002F800F03AF80AA090E8000C8244BF
:100140008344AAF10107DA4501D100F02FF8AFF29C
:10015000090EBAE80F0013F0010F18BFFB1A43F0A5
:100160000103184784070000A4070000103A24BFC9
:1001700078C878C1FAD8520724BF30C830C144BF0C
:1001800004680C607047000000230024002500264E
:10019000103A28BF78C1FBD8520728BF30C148BFEA
:1001A0000B6070471FB51FBD10B510BD00F031F8D2
:1001B0001146FFF7F7FF00F035FA00F04FF803B4EF
:1001C000FFF7F2FF03BC00F057F800000948804732
:1001D00009480047FEE7FEE7FEE7FEE7FEE7FEE729
:1001E000FEE7FEE7FEE7FEE704480549054A064B41
:1001F00070470000E1020008310100087000002093
:100200007040002070200020702000207047704750
:100210007047754600F02CF8AE4605006946534617
:1002200020F00700854618B020B5FFF7DDFFBDE8D8
:1002300020404FF000064FF000074FF000084FF04D
:10024000000B21F00701AC46ACE8C009ACE8C009DE
:10025000ACE8C009ACE8C0098D46704710B504464B
:10026000AFF300802046BDE81040FFF7A8BF0000B4
:10027000004870470C00002001491820ABBEFEE783
:1002800026000200704700BFFEE7704710B502204D
:1002900000F0CCF855200149087010BD0400002082
:1002A00000BFFEE700BFFEE77047000010B5002862
:1002B00007DA0A07140E054A00F00F031B1FD45477
:1002C00003E00A07130E024A135410BD18ED00E0B4
:1002D00000E400E07047704710B500F03FF810BD33
:1002E00010B51448006840F0010012490860084643
:1002F0004068114908400F494860084600680F49A6
:1003000008400C4908600846006820F48020086016
:10031000084640680A49084006494860084600689F
:1003200006490840034908604FF41F00886000F048
:10033000AFFA10BD001002400C00FFE8FFFFF6FE10
:10034000FFFF00F700BFFEE70349086000BF024956
:1003500009680029FBD170470800002004480068A4
:1003600020B103480068401E014908607047000042
:100370000800002010B52C4B1B6883432A4C2360D7
:10038000231D1B688343241D2360231D1B68834397
:10039000241D2360231D1B688343241D236011B18A
:1003A00001290ED105E0204B1B6803431E4C23603E
:1003B00008E01D4B1B1D1B6803431B4C241D2360C1
:1003C00000E000BF00BF22B1012A0FD0022A27D1CE
:1003D00019E0154B08331B680343134C08342360A2
:1003E000231D1B688343241D23601AE00E4B083332
:1003F0001B6883430C4C08342360231D1B68034394
:10040000241D23600DE0084B08331B680343064C92
:1004100008342360231D1B680343241D236000E070
:1004200000BF00BF10BD000000040140014908608A
:10043000704700001404014041617047016170473A
:1004400010B500228B071C0F0F2303FA04F20429B6
:100450000EDA204B9B6893431E4CA36023469B6897
:100460008C07240F00FA04F423431A4CA3602FE0F6
:1004700008290EDA174BDB689343164CE3602346DA
:10048000DB688C07240F00FA04F42343114CE3606B
:100490001EE00C290EDA0F4B1B6993430D4C2361B0
:1004A00023461B698C07240F00FA04F42343094CEC
:1004B00023610DE0074B5B699343064C6361234660
:1004C0005B698C07240F00FA04F42343014C636139
:1004D00010BD000000000140F0B50446164600259E
:1004E000002201F00F0501F0100707B1354300208D
:1004F0001EE0012787401F40C7B122684FEA800CE9
:100500000F2707FA0CF7BA43870005FA07F73A43B3
:10051000282904D1012787401F40676105E0482949
:1005200003D1012787401F4027612260471CB8B2D2
:100530000828DED3082022E0012787401F40E7B1CA
:100540006268A0F108074FEA870C0F2707FA0CF73B
:10055000BA43A0F10807BF0005FA07F73A43282974
:1005600004D1012787401F40676105E0482903D176
:10057000012787401F4027616260471CB8B21028DE
:10058000DAD3F0BD02469068084008B101207047F8
:100590000020FCE7F0B50A460023002400210025D6
:1005A00000F00046B6F1004F02D11D4EF16901E0A6
:1005B0001B4E7168C0F3034583B200F44016B6F5D4
:1005C000401F08D121F07061154E766826F07066E4
:1005D000134F7E6012E000F48016B6F5801F06D13E
:1005E000032606FA05F4A14341F0706106E0460DCA
:1005F000360103FA06F6B14341F0706122B1460DAF
:10060000360103FA06F6314300F00046B6F1004F1A
:1006100002D1034EF16101E0014E7160F0BD0000B6
:1006200000000140002000F0B5F800F035F94FF46B
:10063000C06000F0BBF84FF47A70FFF785FE01212F
:100640002048FFF7A7FF40F2036000F0AFF8102347
:10065000032219461C48FFF73FFF40F2026000F0FA
:10066000A5F80223032248211848FFF735FF00228E
:100670000221072000F02EF801210020FFF7E0FE04
:10068000012200210220FFF775FE0220FFF7CEFEB7
:1006900016E002210D48FFF775FF88B90C48007875
:1006A00055280DD16420FFF74FFE10210648FFF7B3
:1006B000C5FE6420FFF748FE10210348FFF7BCFE8B
:1006C000E7E7000000013000000C01400008014095
:1006D000040000202DE9F04103460D461646002493
:1006E0000027A0462448006800F4E060B0F5A06F41
:1006F00015D006DCB0F5407F18D0B0F5806F19D169
:1007000010E0B0F5C06F06D0B0F5E06F12D1002751
:100710004FF0040815E001274FF0030811E002270D
:10072000B8460EE003274FF001080AE004274FF017
:10073000000806E04FF4A06000F022F80227B84657
:1007400000BF00BFC7F1040005FA00F4C8F10401BE
:100750000F20C8403040044324010848C45403F02B
:100760001F01012088405911890001F1E021C1F8E1
:100770000001BDE8F08100000CED00E000E400E0C5
:1007800002490143024A1160704700000000FA0567
:100790000CED00E0044A516821F0F00141EA00024A
:1007A000014B5A607047000000100240064A02EBFD
:1007B0009011096800F01F0301229A401143024B77
:1007C00003EB9012116070470010024000200021DE
:1007D0002C4A126842F480322A4B1A6000BF401C37
:1007E000284A126802F4003119B94FF6FF7290429C
:1007F000F5D1244A126802F400320AB900BFFEE7BC
:10080000204A52681F4B5A601A4652685A601A466C
:10081000526842F480625A601A46526822F44032AA
:100820005A601A46526842F440325A601A46526878
:10083000154B1A40134B5A601A465268134B1A4311
:10084000104B5A601A46126842F080721A6000BF5C
:100850000C4A126802F00072002AF9D0094A526864
:1008600022F00302074B5A601A46526842F0020215
:100870005A6000BF034A526802F00802002AF9D009
:100880007047000000100240FFFFC3F70000280877
:1008900010B5FFF79BFF10BD10B5124800684FF46C
:1008A0007A71B0FBF1F4601EB0F1807F01D30120BA
:1008B0000FE0601E4FF0E02148610F214FF0FF3044
:1008C000FFF7F4FC00204FF0E02188610720086169
:1008D000002008B100BFFEE70021481EFFF7E6FC3C
:1008E00010BD0000000000200809000800000020E2
:1008F0000C0000006C010008140900080C00002026
:10090000644000008801000800F36F06000000004A
:0409100000000000E3
:0400000508000131BD
:00000001FF
