:020000040800F2
:100000003820002049010008B9010008B1010008AA
:10001000B501000891010008550500080000000026
:10002000000000000000000000000000E7040008DD
:100030009501000800000000E5040008E90400083C
:100040006301000863010008630100086301000800
:1000500063010008630100086301000899010008BA
:1000600063010008630100086301000863010008E0
:1000700063010008630100086301000863010008D0
:1000800063010008630100086301000863010008C0
:1000900063010008630100086301000863010008B0
:1000A00063010008630100086301000863010008A0
:1000B0006301000863010008630100086301000890
:1000C0006301000863010008630100086301000880
:1000D0006301000863010008630100086301000870
:1000E0006301000863010008630100086301000860
:1000F0006301000863010008630100086301000850
:10010000630100086301000863010008630100083F
:10011000630100086301000863010008630100082F
:10012000630100086301000863010008630100081F
:10013000DFF810D000F01AF800480047590A00080C
:10014000AFF300803820002006488047064800476B
:10015000FEE7FEE7FEE7FEE7FEE7FEE7FEE7FEE777
:10016000FEE7FEE7F104000831010008064C074DE8
:1001700006E0E06840F0010394E807009847103477
:10018000AC42F6D3FFF7D8FFB8180008D81800081B
:1001900000BFFEE77047000010B5022000F0ACFB86
:1001A0001021024800F0AEFB10BD0000000C014021
:1001B00000BFFEE700BFFEE77047000010B5002853
:1001C00007DA0A07140E054A00F00F031B1FD45468
:1001D00003E00A07130E024A135410BD18ED00E0A5
:1001E00000E400E070B5002419E004F1B001C8B2E9
:1001F000002100F031F90021084600F02DF900211E
:10020000102000F029F9002505E00121002000F070
:1002100023F9681CC5B2802DF7DB601CC4B2082C22
:10022000E3DB70BD10B540F2036000F05BFD4FF4FE
:10023000807303221021514800F070FB4FF40073CB
:10024000032210214D4800F069FB4FF48053032234
:1002500010214A4800F062FB4FF4005303221021A2
:10026000464800F05BFB00224FF48051434800F009
:1002700050FB00224FF40051404800F04AFB64203C
:1002800000F006FB0021AE2000F0E6F80021084651
:1002900000F0E2F80021102000F0DEF800214020FC
:1002A00000F0DAF80021812000F0D6F80021CF20FC
:1002B00000F0D2F80021A12000F0CEF80021C820E3
:1002C00000F0CAF80021A62000F0C6F80021A820FE
:1002D00000F0C2F800213F2000F0BEF80021D3203A
:1002E00000F0BAF80021084600F0B6F80021D52049
:1002F00000F0B2F80021802000F0AEF80021D920F3
:1003000000F0AAF80021F12000F0A6F80021DA2080
:1003100000F0A2F80021122000F09EF80021DB205E
:1003200000F09AF80021402000F096F800212020EB
:1003300000F092F80021022000F08EF800218D20BC
:1003400000F08AF80021142000F086F80021A42093
:1003500000F082F80021A62000F07EF80021AF20F6
:1003600000F07AF80021AF2000F076F8FFF73AFFAE
:100370000021084600F004F810BD0000000C014008
:1003800070B504460D4605F1B001C8B2002100F079
:1003900063F8102141EA1410002100F05DF804F028
:1003A0000F0141F00100002100F056F870BD00007F
:1003B0002DE9F04107460E46904600250024A8F19D
:1003C0002000C5B27F2F02DD0027B01CC6B2314627
:1003D0003846FFF7D5FF002408E004EB05110F4A6B
:1003E000505C012100F038F8601CC4B2082CF4DB2A
:1003F000701CC1B23846FFF7C3FF002409E004EBCC
:1004000005110831054A505C012100F025F8601CF7
:10041000C4B2082CF3DBBDE8F0810000C81200086C
:100420002DE9F04104460F46154600260EE0AA5D70
:1004300039462046FFF7BCFF04F10800C4B2782C0F
:1004400002DD0024B81CC7B2701CC6B2A85D00282B
:10045000EDD1BDE8F081000070B504460E462EB126
:10046000012211031E4800F054FA05E000224FF467
:1004700080511B4800F04DFA00224FF400511848FB
:1004800000F047FA00251DE000224FF48071144867
:1004900000F03FFA04F0800028B101225102104818
:1004A00000F037FA05E000224FF400710C4800F02C
:1004B00030FA012211020A4800F02BFA6006040EFD
:1004C000681CC5B2082DDFDB01225103044800F08F
:1004D00020FA01221103024800F01BFA70BD00004F
:1004E000000C01407047704710B500F0DBF910BDFB
:1004F00010B51448006840F0010012490860084631
:100500004068114908400F494860084600680F4993
:1005100008400C4908600846006820F48020086004
:10052000084640680A49084006494860084600688D
:1005300006490840034908604FF41F00886000F036
:1005400063FC10BD001002400C00FFE8FFFFF6FE48
:10055000FFFF00F700BFFEE702E008C8121F08C156
:10056000002AFAD170477047002001E001C1121F34
:10057000002AFBD17047816841F00801816000BF0B
:10058000816801F008010029FAD1816841F0040175
:10059000816000BF816801F004010029FAD1704731
:1005A00030B5012902D002291AD10CE0C36A23F424
:1005B0007003C362C36A541E4FF4700505EA045405
:1005C0002343C3620DE0836B23F440138363836B87
:1005D000541E4FF4401505EA04542343836300E09E
:1005E00000BF00BF30BD000010B5164800F038F85D
:1005F000002000F0ADF801220221124800F01BF9A2
:100600000021104800F020F8012211460D48FFF7A4
:10061000C7FF05230D2200210A4800F0A7F84FF478
:1006200060220121074800F06FF8012211460548B9
:1006300000F04BF8034800F03FF80248FFF79BFF3B
:1006400010BD00000028014021B1826842F4006220
:10065000826003E0826822F40062826070470000DA
:1006600010B504461348204430B1B0F5806F0CD06B
:10067000B0F5C05F1BD111E040F2093000F052FB31
:1006800040F2093000F03EFB12E040F20A3000F088
:1006900049FB40F20A3000F035FB09E040F20F3030
:1006A00000F040FB40F20F3000F02CFB00E000BFF8
:1006B00000BF10BD00DCFEBF816801F0010119B967
:1006C000816841F001018160704772B101F001035E
:1006D0001BB1836843F48013836001F0020393B17C
:1006E000836843F4004383600DE001F001031BB114
:1006F000836823F48013836001F002031BB18368D5
:1007000023F4004383607047012902D0022910D1ED
:1007100007E0836823F46023836083681343836066
:1007200008E0836823F4E0438360836813438360B5
:1007300000E000BF00BF704702688A430260704754
:100740000246002013680B4003B1012070470000EF
:100750000549096821F47021034A116011460968AE
:10076000014311607047000004240140F0B51D46AC
:1007700006290CDA436B01EB81071F26BE40B34309
:1007800001EB810602FA06F63343436322E00C29AB
:100790000EDA036B8E1F06EB86071F26BE40B3439F
:1007A0008E1F06EB860602FA06F63343036311E05A
:1007B00010290FDAC36AA1F10C0606EB86071F2683
:1007C000BE40B343A1F10C0606EB860602FA06F61C
:1007D0003343C3620A2A0CDA046902EB4207072694
:1007E000BE40B44302EB420605FA06F63443046108
:1007F00011E0122A0FDAC468A2F10A0606EB4607D6
:100800000726BE40B443A2F10A0606EB460605FAE7
:1008100006F63443C460F0BD01F001021AB18268EB
:1008200042F48002826001F002021AB1826842F44E
:10083000001282607047AAB101F480731BB1436853
:1008400043F48073436001F480631BB1436843F455
:100850008063436001F00203CBB1836843F002037D
:10086000836014E001F480731BB1436823F4807348
:10087000436001F480631BB1436823F480634360E9
:1008800001F002031BB1836823F002038360704709
:100890000349086000BF024909680029FBD170477D
:1008A000040000200448006820B103480068401E8E
:1008B00001490860704700000400002010B540F2B4
:1008C000046000F00FFA082303220021084800F01A
:1008D00025F840F20A6000F005FA032000F040F924
:1008E000FFF782FE01210348FFF796FF10BD0000CD
:1008F00000100140002801400149086070470000D5
:1009000014040140C2680A400AB1416100E001617B
:1009100070470AB1016100E041617047F0B50446DB
:1009200016460025002201F00F0501F0100707B15F
:10093000354300201EE0012787401F40C7B12268D1
:100940004FEA800C0F2707FA0CF7BA43870005FA25
:1009500007F73A43282904D1012787401F406761E0
:1009600005E0482903D1012787401F402761226005
:10097000471CB8B20828DED3082022E001278740B0
:100980001F40E7B16268A0F108074FEA870C0F2704
:1009900007FA0CF7BA43A0F10807BF0005FA07F7FA
:1009A0003A43282904D1012787401F40676105E0A9
:1009B000482903D1012787401F4027616260471CF7
:1009C000B8B21028DAD3F0BDF0B50A4600230024EF
:1009D0000021002500F00046B6F1004F02D11D4E67
:1009E000F16901E01B4E7168C0F3034583B200F466
:1009F0004016B6F5401F08D121F07061154E76689B
:100A000026F07066134F7E6012E000F48016B6F593
:100A1000801F06D1032606FA05F4A14341F0706158
:100A200006E0460D360103FA06F6B14341F0706167
:100A300022B1460D360103FA06F6314300F00046B6
:100A4000B6F1004F02D1034EF16101E0014E716039
:100A5000F0BD000000000140002000F0A5F800F00B
:100A6000D7F94FF4C06000F03DF94FF47A70FFF70A
:100A70000FFF40F2036000F035F92E4800F086FACF
:100A8000FFF71CFFFFF7CEFBFFF7ACFB50E00221A6
:100A90002948FFF751FE00BF02212748FFF750FE0B
:100AA0000128F9D124484C300068244908800846C0
:100AB000008840F6E441484340F6FF7190FBF1F0B6
:100AC0001F49088008460088642190FBF1F01D4909
:100AD00008703220FFF7DCFE1BA203210620FFF77F
:100AE0009FFC1DA206210020FFF79AFC1548007804
:100AF0000A2190FBF1F03030C4B2224606213F209B
:100B0000FFF756FC2E2206214620FFF751FC0D4828
:100B100000780A2190FBF1F201FB12003030C4B2E0
:100B2000224606214A20FFF743FC3220FFF7B0FEA1
:100B3000ADE70000003801400028014030000020EF
:100B40003200002034000020474433324631303335
:100B50002054455354000000766F6C746167650043
:100B60000F4A51680F4A1140082814D2DFE800F0FC
:100B700004050607130A130B00BF00BF00BF41EABC
:100B8000803109E000BF20F004004FF0805242EABB
:100B90008032114300E000BF00BF014A516070473E
:100BA00000100240FF3FFFEF044A516821F0F001BE
:100BB00041EA0002014B5A607047000000100240F9
:100BC0002DE9F04F8BB00746002009903EA090E839
:100BD000004CC068CDE905BECDF810A007900FF21B
:100BE000EC0ADAE9000ACDE9020A0FF2E00ADAE9D2
:100BF000000ACDE9000A38484068C0F381000A9035
:100C00000A9820B1012804D0022829D103E03349F1
:100C100028E0324926E03048406800F48038B8F5D2
:100C2000803F09D12D4C2C48406800F40039B9F5BB
:100C3000003F02D1641000E0294C27484068C0F30F
:100C400083422548406800F0006008B142F010027D
:100C50000F2A01D2921C00E0521C04FB02F101E0B9
:100C60001E4900BF00BF1C484068C0F3031504A81C
:100C7000465D21FA06F318484068C0F3022502A831
:100C8000465D23FA06FC14484068C0F3C2251DF8EF
:100C9000056023FA06F0089037B1012F06D0022F25
:100CA00006D0032F0AD106E0099108E0099306E077
:100CB000CDF824C003E00898099000E000BF00BF11
:100CC00009980BB0BDE8F08F0000000000000000A4
:100CD00001020304060708090010024000127A000E
:100CE00000093D00064A02EB9011096800F01F035D
:100CF00001229A401143024B03EB9012116070479E
:100D000000100240064A02EB9011096800F01F0330
:100D100001229A409143024B03EB901211607047FD
:100D200000100240064A02EB9011096800F01F0310
:100D300001229A401143024B03EB9012116070475D
:100D400000100240002000212C4A126842F4803238
:100D50002A4B1A6000BF401C284A126802F4003176
:100D600019B94FF6FF729042F5D1244A126802F485
:100D700000320AB900BFFEE7204A52681F4B5A6092
:100D80001A4652685A601A46526842F480625A60A3
:100D90001A46526822F440325A601A46526842F4A7
:100DA00040325A601A465268154B1A40134B5A602B
:100DB0001A465268134B1A43104B5A601A4612686F
:100DC00042F080721A6000BF0C4A126802F0007292
:100DD000002AF9D0094A526822F00302074B5A60F0
:100DE0001A46526842F002025A6000BF034A526833
:100DF00002F00802002AF9D07047000000100240FB
:100E0000FFFFC3F70000280810B5FFF79BFF10BDD8
:100E100010B5124800684FF47A71B0FBF1F4601E0F
:100E2000B0F1807F01D301200FE0601E4FF0E02180
:100E300048610F214FF0FF30FFF7C0F900204FF05D
:100E4000E021886107200861002008B100BFFEE7AB
:100E50000021481EFFF7B2F910BD0000000000207D
:100E60002DE9F04704460D460027B846B94600264E
:100E70001D49601A8C421CD006DC1C48204470B10D
:100E8000B0F5806F1FD10FE0B0F5806F16D0B0F5D0
:100E90006C4F18D10320FFF793FE074614E00220A1
:100EA000FFF78EFE07460FE00220FFF789FE074698
:100EB0000AE00220FFF784FE074605E00220FFF764
:100EC0007FFE074600E000BF00BF07EB5500B0FB08
:100ED000F5F64FF6F07006EA000806F00F0948EA4A
:100EE0000900A060BDE8F087004C004000BCFFBFD7
:100EF00010B504462049601A8C4228D006DC1F48F1
:100F0000204490B1B0F5806F33D117E0B0F5806F19
:100F100026D0B0F56C4F2CD140F20E30FFF702FF17
:100F200040F20E30FFF7EEFE24E040F21140FFF7F2
:100F3000F9FE40F21140FFF7E5FE1BE040F21240DF
:100F4000FFF7F0FE40F21240FFF7DCFE12E040F245
:100F50001340FFF7E7FE40F21340FFF7D3FE09E02E
:100F600040F21440FFF7DEFE40F21440FFF7CAFEE5
:100F700000E000BF00BF10BD004C004000BCFFBF40
:100F8000C16841F40051C1607047000070B505466A
:100F900000242848854200D103E02748854200D13B
:100FA0000124264931F81400FFF79CFE244931F84A
:100FB0001400FFF797FE1F48854207D14FF4C06029
:100FC000FFF790FE01210420FFF7FEFC1D4951F8B8
:100FD00024301D4951F8240003221821FFF79EFCFC
:100FE0001A4951F82430184951F8240003220421E9
:100FF000FFF794FC2846FFF77BFF4FF4E1312846CA
:10100000FFF72EFF0021284600F042F80021284675
:1010100000F02EF80021284600F01AF80421284696
:1010200000F01EF80821284600F02AF82846FFF7AD
:10103000A7FF70BD0038014000440040240000209C
:10104000080000200C0000201C00002014000020DC
:10105000C26822F4C062C260C2680A43C2607047BC
:101060000A460021C16821F004011143C1607047A4
:10107000026922F44052026102690A430261704728
:101080000A460021C16821F008011143C160704780
:10109000C26822F48052C260C2680A43C2607047CC
:1010A0000000000000000000002F0000000007000A
:1010B000070000147F147F1400242A7F2A12006284
:1010C0006408132300364955225000000503000030
:1010D00000001C224100000041221C000014083EB8
:1010E00008140008083E0808000000A0600000087E
:1010F00008080808000060600000002010080402D2
:10110000003E5149453E0000427F4000004261518F
:101110004946002141454B31001814127F10002729
:1011200045454539003C4A494930000171090503EC
:1011300000364949493600064949291E000036361D
:101140000000000056360000000814224100001480
:10115000141414140000412214080002015109065D
:1011600000324959513E007C1211127C007F4949DE
:101170004936003E41414122007F4141221C007F0F
:1011800049494941007F09090901003E4149497A1D
:10119000007F0808087F0000417F41000020404197
:1011A0003F01007F08142241007F40404040007F03
:1011B000020C027F007F0408107F003E4141413E47
:1011C000007F09090906003E4151215E007F09198F
:1011D00029460046494949310001017F0101003F8C
:1011E0004040403F001F2040201F003F4038403F0C
:1011F0000063140814630007087008070061514970
:10120000454300007F41410000552A552A55000002
:1012100041417F0000040201020400404040404080
:10122000000001020400002054545478007F484418
:10123000443800384444442000384444487F00384F
:101240005454541800087E0901020018A4A4A47C78
:10125000007F080404780000447D40000040808442
:101260007D00007F102844000000417F4000007C8A
:1012700004180478007C0804047800384444443896
:1012800000FC242424180018242418FC007C0804E2
:10129000040800485454542000043F444020003CBB
:1012A0004040207C001C2040201C003C4030403C42
:1012B000004428102844001CA0A0A07C00446454D2
:1012C0004C44141414141414000000000000000016
:1012D0000000000000000000000000F80000000016
:1012E000000000333000000000100C06100C060057
:1012F000000000000000000040C07840C0784000BE
:10130000043F04043F040400007088FC083000001F
:10131000001820FF211E0000F008F000E018000077
:1013200000211C031E211E0000F008887000000030
:101330001E2123241927211010160E000000000082
:101340000000000000000000000000E0180402009F
:10135000000000071820400000020418E000000010
:101360000040201807000000404080F0804040000E
:101370000202010F01020200000000F00000000064
:101380000101011F01010100000000000000000038
:1013900080B07000000000000000000000000000AD
:1013A0000001010101010101000000000000000036
:1013B00000303000000000000000000080601804D1
:1013C000006018060100000000E010080810E000AE
:1013D000000F102020100F00001010F80000000077
:1013E0000020203F202000000070080808887000BE
:1013F000003028242221300000300888884830003E
:101400000018202020110E000000C02010F800005D
:1014100000070424243F240000F8088888080800F6
:101420000019212020110E0000E01088881800000B
:10143000000F112020110E0000380808C8380800DD
:101440000000003F0000000000708808088870005D
:10145000001C222121221C0000E010080810E000DE
:101460000000312222110F00000000C0C000000067
:10147000000000303000000000000080000000008C
:101480000000806000000000000080402010080084
:10149000000102040810200040404040404040004D
:1014A0000404040404040400000810204080000028
:1014B0000020100804020100007048080808F0002D
:1014C0000000003036010000C030C828E810E000FD
:1014D0000718272423140B000000C038E000000088
:1014E000203C23020227382008F8888888700000F2
:1014F000203F202020110E00C030080808083800C6
:10150000071820202010080008F808080810E0003C
:10151000203F202020100F0008F88888E8081000DD
:10152000203F20202320180008F88888E8081000B1
:10153000203F200003000000C030080808380000E9
:1015400007182020221E020008F808000008F808EA
:10155000203F210101213F20000808F80808000071
:101560000020203F2020000000000808F8080800A4
:10157000C08080807F00000008F888C0281808001C
:10158000203F20012638200008F808000000000055
:10159000203F20202020300008F8F800F8F808004C
:1015A000203F003F003F200008F830C00008F80846
:1015B000203F200007183F00E01008080810E00056
:1015C0000F10202020100F0008F808080808F0006D
:1015D000203F210101010000E01008080810E00090
:1015E0000F18242438504F0008F888888888700025
:1015F000203F2000030C30200070880808083800C5
:101600000038202121221C00180808F808081800BA
:101610000000203F2000000008F808000008F8083B
:10162000001F202020201F000878880000C83808EC
:10163000000007380E010000F80800F80008F80064
:10164000033C0700073C03000818688080681808FE
:1016500020302C03032C30200838C800C83808007C
:101660000000203F2000000010080808C8380800CB
:101670002038262120201800000000FE020202006F
:101680000000007F40404000000C30C0000000001F
:10169000000000010638C00000020202FE00000047
:1016A000004040407F0000000000040202020400ED
:1016B000000000000000000000000000000000002A
:1016C0008080808080808080000202040000000012
:1016D000000000000000000000008080808000000A
:1016E0000019242222223F2008F8008080000000F8
:1016F000003F112020110E000000008080800000BB
:10170000000E112020201100000000808088F800C9
:10171000000E112020103F200000808080800000FB
:10172000001F222222221300008080F0888888185F
:101730000020203F2020000000008080808080006A
:10174000006B94949493600008F8008080800000FF
:10175000203F210000203F200080989800000000DA
:101760000020203F2020000000000080989800000A
:1017700000C08080807F000008F80000808080002A
:10178000203F24022D302000000808F8000000004F
:101790000020203F2020000080808080808080000A
:1017A000203F20003F20003F80800080808000009C
:1017B000203F210000203F2000008080808000002A
:1017C000001F202020201F0080800080800000005B
:1017D00080FFA12020110E0000000080808080008A
:1017E000000E112020A0FF8080808000808080007B
:1017F00020203F21200001000000808080808000A8
:101800000033242424241900008080E0808000001C
:101810000000001F20200000808000000080800069
:10182000001F202020103F208080800000808080CA
:1018300000010E300806010080800080008080805A
:101840000F300C030C300F0000808000808080007F
:101850000020312E0E3120008080800000808080AA
:1018600080818E701806010000808080808080005A
:101870000021302C2221300000000000807C020278
:1018800000000000003F404000000000FF0000009A
:1018900000000000FF0000000002027C8000000049
:1018A0000040403F00000000000601010202040465
:1018B0000000000000000000D81800080000002010
:1018C00038000000580500081019000838000020F2
:1018D000002000006805000800F36F06000000000B
:1018E0000E06110740000000040000008000000008
:1018F00008000000000C0140000801400306020639
:10190000250000002600000000000000000000008C
:0400000508000131BD
:00000001FF
