:020000040800F2
:10000000B84100200D020008DB030008D3030008FC
:10001000D7030008C10300086108000800000000C1
:10002000000000000000000000000000F3070008CE
:10003000C503000800000000F1070008F5070008EC
:1000400027020008270200082702000827020008EC
:1000500027020008270200082702000827020008DC
:1000600027020008270200082702000827020008CC
:1000700027020008270200082702000827020008BC
:1000800027020008270200082702000827020008AC
:10009000270200082702000827020008270200089C
:1000A000270200082702000827020008270200088C
:1000B000270200082702000827020008270200087C
:1000C000270200082702000827020008270200086C
:1000D000270200082702000827020008270200085C
:1000E000270200082702000827020008270200084C
:1000F000270200082702000827020008270200083C
:10010000270200082702000827020008270200082B
:10011000270200082702000827020008270200081B
:10012000270200082702000827020008270200080B
:1001300000F002F800F05AF80AA090E8000C82449F
:100140008344AAF10107DA4501D100F04FF8AFF27C
:10015000090EBAE80F0013F0010F18BFFB1A43F0A5
:1001600001031847EC1700000C1800000A444FF078
:10017000000C10F8013B13F0070408BF10F8014B06
:100180001D1108BF10F8015B641E05D010F8016B4B
:10019000641E01F8016BF9D113F0080F1EBF10F8AF
:1001A000014BAD1C0C1B09D16D1E58BF01F801CBD2
:1001B000FAD505E014F8016B01F8016B6D1EF9D555
:1001C0009142D6D37047000000230024002500266A
:1001D000103A28BF78C1FBD8520728BF30C148BFAA
:1001E0000B6070471FB51FBD10B510BD00F031F892
:1001F0001146FFF7F7FF00F08FFC00F04FF803B453
:10020000FFF7F2FF03BC00F057F8000009488047F1
:1002100009480047FEE7FEE7FEE7FEE7FEE7FEE7E8
:10022000FEE7FEE7FEE7FEE704480549054A064B00
:1002300070470000FD07000831010008B8010020E8
:10024000B8410020B8210020B82100207047704735
:100250007047754600F02CF8AE46050069465346D7
:1002600020F00700854618B020B5FFF7DDFFBDE898
:1002700020404FF000064FF000074FF000084FF00D
:10028000000B21F00701AC46ACE8C009ACE8C0099E
:10029000ACE8C009ACE8C0098D46704710B504460B
:1002A000AFF300802046BDE81040FFF7A8BF000074
:1002B000004870475401002001491820ABBEFEE7FA
:1002C000260002007047000010B5044600BF40F24F
:1002D00001611D4800F0EEFB0028F8D11A4800F03B
:1002E00010FC00BF4FF4A061174800F0E3FB0028AA
:1002F000F8D001224621144800F0EBFB00211248FF
:1003000000F021FB00BF40F201510F4800F0D2FB8A
:100310000028F8D040F201510B4800F0B7FB00BFB5
:1003200040F20651084800F0C5FB0028F8D0064806
:1003300000F0A0FB2070044800F09CFB60700248B5
:1003400000F0E4FB10BD00000058004010B504466A
:1003500000BF40F20161194800F0ACFB0028F8D161
:10036000164800F0CEFB00BF4FF4A061134800F028
:10037000A1FB0028F8D06FF0010246210F4800F0E1
:10038000A8FB00BF40F201510C4800F093FB00288D
:10039000F8D040F20151094800F078FB21460748A7
:1003A00000F06CFB00BF40F20751044800F082FBF4
:1003B0000028F8D0014800F0A9FB10BD005800400B
:1003C00000BFFEE7704700B50246104600F04AFA4B
:1003D00000BD00BFFEE700BFFEE7704710B5002874
:1003E00007DA0A07140E054A00F00F031B1FD45446
:1003F00003E00A07130E024A135410BD18ED00E083
:1004000000E400E070B5002419E004F1B001C8B2C6
:10041000002100F0A7F90021084600F0A3F900210F
:10042000102000F09FF9002505E00121002000F0D8
:1004300099F9681CC5B2802DF7DB601CC4B2082C8A
:10044000E3DB70BD10B540F2036000F091FC4FF4A7
:10045000807303221021514800F01FFA4FF40073FB
:10046000032210214D4800F018FA4FF48053032264
:1004700010214A4800F011FA4FF4005303221021D2
:10048000464800F00AFA00224FF48051434800F039
:10049000FFF900224FF40051404800F0F9F96420C0
:1004A000FFF791FF0021AE2000F05CF90021084623
:1004B00000F058F90021102000F054F900214020EC
:1004C00000F050F90021812000F04CF90021CF20EC
:1004D00000F048F90021A12000F044F90021C820D3
:1004E00000F040F90021A62000F03CF90021A820EE
:1004F00000F038F900213F2000F034F90021D3202A
:1005000000F030F90021084600F02CF90021D52038
:1005100000F028F90021802000F024F90021D920E2
:1005200000F020F90021F12000F01CF90021DA2070
:1005300000F018F90021122000F014F90021DB204E
:1005400000F010F90021402000F00CF900212020DB
:1005500000F008F90021022000F004F900218D20AC
:1005600000F000F90021142000F0FCF80021A42084
:1005700000F0F8F80021A62000F0F4F80021AF20E8
:1005800000F0F0F80021AF2000F0ECF8FFF73AFFA0
:100590000021084600F004F810BD0000000C0140E6
:1005A00070B504460D4605F1B001C8B2002100F057
:1005B000D9F8102141EA1410002100F0D3F804F01A
:1005C0000F0141F00100002100F0CCF870BD0000E7
:1005D0002DE9F04180460E4615460027314640463B
:1005E000FFF7DEFF00240AE0124A02EB8511085DE6
:1005F000012100F0B7F8781CC7B2601CC4B2102CFF
:10060000F2DB701CC1B24046FFF7CAFF00240CE0C9
:100610006900491C074A02EB4111085D012100F005
:10062000A1F8781CC7B2601CC4B2102CF0DBBDE886
:10063000F0810000140000202DE9F04107460E462D
:10064000904600250024A8F12000C5B27F2F02DDCE
:100650000027B01CC6B231463846FFF7A1FF002480
:1006600008E004EB05110F4A505C012100F07AF814
:10067000601CC4B2082CF4DB701CC1B23846FFF712
:100680008FFF002409E004EB05110831054A505C96
:10069000012100F067F8601CC4B2082CF3DBBDE850
:1006A000F08100005E1300082DE9FF5F07469146C8
:1006B0001D460E9E4FF0000A002433E0281B401E0A
:1006C000C1B20A2000F0AAFAB9FBF0F00A21B0FB8F
:1006D000F1F201FB1208BAF1000F13D1681EA0421B
:1006E00010DDB8F1000F0BD1B34606EBDB714910FA
:1006F00001FB0471C8B220220199FFF79DFF0FE0B2
:100700004FF0010AB34606EBDB71491001FB04719F
:10071000C8B208F13001CAB20199FFF78DFF00BFDE
:10072000601CC4B2AC42C9DBBDE8FF9F2DE9F041BB
:1007300004460F46154600260EE0AA5D39462046BF
:10074000FFF77AFF04F10800C4B2782C02DD002420
:10075000B81CC7B2701CC6B2A85D0028EDD1BDE8B8
:10076000F081000070B504460E462EB1012211033F
:100770001E4800F08DF805E000224FF480511B4820
:1007800000F086F800224FF40051184800F080F87D
:1007900000251DE000224FF48071144800F078F825
:1007A00004F0800028B101225102104800F070F8D6
:1007B00005E000224FF400710C4800F069F80122B6
:1007C00011020A4800F064F86006040E681CC5B205
:1007D000082DDFDB01225103044800F059F8012203
:1007E0001103024800F054F870BD0000000C0140F5
:1007F0007047704710B500F03FF810BD10B51448B1
:10080000006840F00100124908600846406811493C
:1008100008400F494860084600680F4908400C49E5
:1008200008600846006820F4802008600846406898
:100830000A490840064948600846006806490840D9
:10084000034908604FF41F00886000F003FB10BDEF
:10085000001002400C00FFE8FFFFF6FEFFFF00F76C
:1008600000BFFEE70349086000BF0249096800298C
:10087000FBD17047100000200448006820B10348F5
:100880000068401E01490860704700001000002009
:100890000AB1016100E041617047F0B504461646B7
:1008A0000025002201F00F0501F0100707B13543C4
:1008B00000201EE0012787401F40C7B122684FEA91
:1008C000800C0F2707FA0CF7BA43870005FA07F7E1
:1008D0003A43282904D1012787401F40676105E07A
:1008E000482903D1012787401F4027612260471C08
:1008F000B8B20828DED3082022E0012787401F4035
:10090000E7B16268A0F108074FEA870C0F2707FAE2
:100910000CF7BA43A0F10807BF0005FA07F73A43FE
:10092000282904D1012787401F40676105E0482935
:1009300003D1012787401F4027616260471CB8B27E
:100940001028DAD3F0BD012904D1026842F4806294
:10095000026003E0026822F48062026070470000D7
:100960002DE9F05F04460E469346022000F06EF932
:1009700007463148B7FBF0F9B9F1360F01D34FF014
:100980003609D4F804A02AF03F0A4AEA090AC4F852
:1009900004A02A4886421ED82748B7FBF0F000F191
:1009A0000108B8F1360F02D33620206207E0B8F113
:1009B000020F02D80220206201E0C4F820807000FB
:1009C000B7FBF0F5042D00D20425E069C5F30B0157
:1009D0000843E0612EE01A4886422BD84FF4967007
:1009E00009FB00F04FF47A71B0FBF1F0401C20627B
:1009F000BBF1000F08D106EB4600B7FBF0F5E0694C
:100A000020F48040E06109E006EBC60000EB061030
:100A1000B7FBF0F5E06940F48040E061C5F30B00FE
:100A200008B945F00105E06940F40040E061E06983
:100A30002843E061BDE8F09F40420F00A08601001E
:100A4000801A060010B5002208490948FFF788FF00
:100A5000462300221146064800F045F8044800F0FD
:100A600010F801210248FFF76EFF10BDA0860100BB
:100A70000058004001460869C0B27047CAB202611E
:100A80007047016841F001010160704710B540F204
:100A90000152914202D1426982690AE000EB91124F
:100AA000126801F01F040123A3409A4300EB911345
:100AB0001A6010BD10B5024602EB9110006801F0FB
:100AC0001F040123A340184008B1012010BD0020DD
:100AD000FCE712F1020F02D121F0010101E041F027
:100AE00001010161704730B50C460021016821F019
:100AF000020121430160C3F3090342EA0305856053
:100B000030BD016841F4807101607047016841F4B3
:100B1000007101607047000008B5002000F08AF8FD
:100B200000F09CF94FF4C06000F022F94FF47A70A5
:100B3000FFF798FE40F2036000F01AF94FF44063AB
:100B400003221C212F48FFF7A8FE40F2167000F088
:100B50000FF9FFF777FFFFF775FCFFF753FC012054
:100B6000FFF7F4FB1020FFF7F1FBB420FFF72BFC9D
:100B700046E00120FFF7EAFB1020FFF7E7FBB42077
:100B8000FFF721FC2048FFF79FFB1F4949781E4AC9
:100B9000127801EB022000F06BFA04461B4900F0CA
:100BA00085F91B4908600846006800F041FA1949B8
:100BB00008601020052300900846032102680620E3
:100BC000FFF772FD14A203214820FFF7AFFD0022BA
:100BD00011461220FFF7FCFC012200212420FFF720
:100BE000F7FC022200213620FFF7F2FC032200214D
:100BF0004820FFF7EDFC042200215A20FFF7E8FC13
:100C0000B7E70000000C0140040000209A99993FCA
:100C1000080000200C0000206C78000010B502468F
:100C2000012000E050430B1EA1F10104E1B2F9D113
:100C300010BD0000044A516821F0F00141EA0002B1
:100C4000014B5A6070470000001002402DE9F04F40
:100C50008BB00746002009903EA090E8004CC06889
:100C6000CDE905BECDF810A007900FF2EC0ADAE945
:100C7000000ACDE9020A0FF2E00ADAE9000ACDE93A
:100C8000000A38484068C0F381000A900A9820B1F1
:100C9000012804D0022829D103E0334928E0324951
:100CA00026E03048406800F48038B8F5803F09D12C
:100CB0002D4C2C48406800F40039B9F5003F02D1B2
:100CC000641000E0294C27484068C0F3834225485F
:100CD000406800F0006008B142F010020F2A01D213
:100CE000921C00E0521C04FB02F101E01E4900BF0F
:100CF00000BF1C484068C0F3031504A8465D21FAF4
:100D000006F318484068C0F3022502A8465D23FA9E
:100D100006FC14484068C0F3C2251DF8056023FA9C
:100D200006F0089037B1012F06D0022F06D0032F0E
:100D30000AD106E0099108E0099306E0CDF824C045
:100D400003E00898099000E000BF00BF09980BB0CD
:100D5000BDE8F08F00000000000000000102030465
:100D6000060708090010024000127A0000093D0041
:100D7000064A02EB9011096800F01F0301229A4015
:100D80001143024B03EB90121160704700100240B8
:100D9000002000212C4A126842F480322A4B1A604B
:100DA00000BF401C284A126802F4003119B94FF6FE
:100DB000FF729042F5D1244A126802F400320AB957
:100DC00000BFFEE7204A52681F4B5A601A4652681D
:100DD0005A601A46526842F480625A601A46526853
:100DE00022F440325A601A46526842F440325A6045
:100DF0001A465268154B1A40134B5A601A465268ED
:100E0000134B1A43104B5A601A46126842F0807214
:100E10001A6000BF0C4A126802F00072002AF9D072
:100E2000094A526822F00302074B5A601A46526878
:100E300042F002025A6000BF034A526802F0080200
:100E4000002AF9D07047000000100240FFFFC3F7EE
:100E50000000280810B5FFF79BFF10BD10B5124821
:100E600000684FF47A71B0FBF1F4601EB0F1807F3E
:100E700001D301200FE0601E4FF0E02148610F21F7
:100E80004FF0FF30FFF7AAFA00204FF0E021886111
:100E900007200861002008B100BFFEE70021481EBE
:100EA000FFF79CFA10BD0000000000204FF47F0CFB
:100EB0001CEAD0121EBF1CEAD11392EA0C0F93EA6F
:100EC0000C0F00F0858090EA010F48BF42F4807259
:100ED00040F4000C41F400002CF07F4120F07F40F2
:100EE00000B58142A2EB03020FF2081CACEB504E9E
:100EF000C0F100009EF800E04FEA4E0E00FB0EFC31
:100F000038BF49004FEA2C1C02F5FA020CFB0EF325
:100F10004FEACE1E4FEA112C4FEAC1210EEB635E61
:100F200042EB22420EFB0CFC4FEA1C5300FB031168
:100F30004FEA112C4FEA01310EFB0CFC4FEADC4C5E
:100F400000FB0C11C14228BF09184CEB03335DF8BC
:100F500004EB10EB410143EBC250B2F57C0F38BFFC
:100F6000704729D512F0F00F1CBF00F1C04000F00F
:100F700000407047008182838485868788898B8CB6
:100F80008D8E8F919293959697999A9C9D9FA0A2F2
:100F9000A3A5A7A8AAACAEB0B2B3B5B7B9BCBEC042
:100FA000C2C5C7C9CCCED1D4D7D9DCDFE2E6E9ECE3
:100FB000F0F3F7FAFE0000004FEA400C0CF1807CE1
:100FC000BCF17E4F28BF7047B0F1C04000F0AEB812
:100FD00090EA010F0CEAD11348BF42F480726245D7
:100FE00038BF634507D213F47F0F16D080EA0100A3
:100FF00000F00040704710B500F052F8097EFC3E4A
:1010000000F005B880EA010000F00040704780EA77
:10101000010000F0004000F089B812F47F0F04BF17
:101020000248704780EA010000F080B80000C07FED
:10103000C10DD1F19E0206DB4FEA002343F00043CD
:1010400023FA02F07047004207D54FEA4001B1F1A0
:10105000FE4F02D24FF00000704710B500F020F8AC
:1010600049922480002070476FEA200070470000FA
:1010700010F0004148BF4042B0FA80F310FA03F28A
:10108000C3F19D030BD051EAC35101EB122053066B
:1010900038BF704700F1010008BF20F00100704721
:1010A0000EF1020E2EF0030E5EF8044B244204D41F
:1010B0004FEA4102B2F17F4F11D84FEA4003B3F13A
:1010C0007F4F0CD80ED14FEAD07CB2F17F4F0CEBA2
:1010D0004C0C0CF1020C08BF4CEBD17C04E04FF03F
:1010E000080C01E04FEAD17C0CEB4C0324FA03F42A
:1010F00004F00704B4F1040C06D20EEB840CBDE836
:1011000010404CF0010C6047DFE80CF007080202C9
:101110004FF00040A0F5800010BD0846420018BF07
:10112000D2F1807288BF00F0004010BDFF2141EA7B
:10113000D050C00570470000000000000000002FE4
:10114000000000000700070000147F147F14002433
:101150002A7F2A1200626408132300364955225060
:1011600000000503000000001C2241000000412295
:101170001C000014083E08140008083E080800007F
:1011800000A0600000080808080800006060000077
:10119000002010080402003E5149453E0000427FF5
:1011A0004000004261514946002141454B31001841
:1011B00014127F10002745454539003C4A49493003
:1011C00000017109050300364949493600064949BD
:1011D000291E0000363600000000563600000008C8
:1011E00014224100001414141414000041221408A5
:1011F00000020151090600324959513E007C12118A
:10120000127C007F49494936003E41414122007F1E
:101210004141221C007F49494941007F09090901D8
:10122000003E4149497A007F0808087F0000417F5D
:101230004100002040413F01007F08142241007F0F
:1012400040404040007F020C027F007F0408107F76
:10125000003E4141413E007F09090906003E4151DF
:10126000215E007F0919294600464949493100019C
:10127000017F0101003F4040403F001F2040201FF0
:10128000003F4038403F00631408146300070870B3
:10129000080700615149454300007F414100005566
:1012A0002A552A55000041417F0000040201020432
:1012B000004040404040000001020400002054541F
:1012C0005478007F4844443800384444442000386F
:1012D0004444487F00385454541800087E090102E1
:1012E0000018A4A4A47C007F080404780000447DB6
:1012F0004000004080847D00007F102844000000F2
:10130000417F4000007C04180478007C08040478C5
:1013100000384444443800FC2424241800182424B1
:1013200018FC007C080404080048545454200004AD
:101330003F444020003C4040207C001C2040201CBA
:10134000003C4030403C004428102844001CA0A031
:10135000A07C004464544C4414141414141400006D
:10136000000000000000000000000000000000007D
:1013700000F8000000000000003330000000001002
:101380000C06100C0600000000000000000040C029
:101390007840C0784000043F04043F04040000701B
:1013A00088FC08300000001820FF211E0000F00813
:1013B000F000E018000000211C031E211E0000F0B8
:1013C0000888700000001E21232419272110101600
:1013D0000E000000000000000000000000000000FF
:1013E00000E018040200000000071820400000027E
:1013F0000418E000000000402018070000004040F2
:1014000080F0804040000202010F01020200000053
:1014100000F0000000000101011F010101000000B7
:1014200000000000000080B070000000000000001C
:1014300000000000000000010101010101010000A5
:10144000000000000000003030000000000000003C
:10145000000080601804006018060100000000E031
:1014600010080810E000000F102020100F000010DE
:1014700010F8000000000020203F20200000007035
:10148000080808887000003028242221300000302D
:101490000888884830000018202020110E00000025
:1014A000C02010F8000000070424243F240000F8A6
:1014B0000888880808000019212020110E0000E08B
:1014C000108888180000000F112020110E0000382D
:1014D0000808C83808000000003F00000000007045
:1014E000880808887000001C222121221C0000E0CE
:1014F00010080810E0000000312222110F00000047
:1015000000C0C000000000000030300000000000FB
:10151000008000000000000080600000000000006B
:101520008040201008000001020408102000404004
:101530004040404040000404040404040400000847
:1015400010204080000000201008040201000070FC
:1015500048080808F0000000003036010000C030E4
:10156000C828E810E0000718272423140B00000007
:10157000C038E0000000203C23020227382008F891
:10158000888888700000203F202020110E00C03085
:10159000080808083800071820202010080008F85C
:1015A00008080810E000203F202020100F0008F855
:1015B0008888E8081000203F20202320180008F821
:1015C0008888E8081000203F200003000000C03099
:1015D00008080838000007182020221E020008F81A
:1015E00008000008F808203F210101213F200008E1
:1015F00008F8080800000020203F2020000000001C
:101600000808F8080800C08080807F00000008F803
:1016100088C028180800203F20012638200008F83C
:10162000080000000000203F20202020300008F8A3
:10163000F800F8F80800203F003F003F200008F8BD
:1016400030C00008F808203F200007183F00E010D5
:1016500008080810E0000F10202020100F0008F8E4
:1016600008080808F000203F210101010000E010F7
:1016700008080810E0000F18242438504F0008F81C
:10168000888888887000203F2000030C302000707C
:101690008808080838000038202121221C0018087A
:1016A00008F8080818000000203F2000000008F893
:1016B00008000008F808001F202020201F000878DC
:1016C000880000C83808000007380E010000F8083C
:1016D00000F80008F800033C0700073C0300081866
:1016E00068808068180820302C03032C30200838CC
:1016F000C800C83808000000203F20000000100883
:101700000808C838080020382621202018000000CA
:1017100000FE020202000000007F40404000000C7A
:1017200030C000000000000000010638C0000002C8
:101730000202FE000000004040407F000000000068
:10174000040202020400000000000000000000008B
:101750000000000000008080808080808080000287
:101760000204000000000000000000000000000073
:101770008080808000000019242222223F2008F867
:10178000008080000000003F112020110E000000AA
:10179000008080800000000E112020201100000039
:1017A00000808088F800000E112020103F200000EB
:1017B000808080800000001F2222222213000080EF
:1017C00080F0888888180020203F2020000000003A
:1017D000808080808000006B94949493600008F86F
:1017E000008080800000203F210000203F200080FA
:1017F0009898000000000020203F202000000000FA
:1018000000809898000000C08080807F000008F869
:10181000000080808000203F24022D30200000083E
:1018200008F8000000000020203F202000008080F9
:10183000808080808000203F20003F20003F80800B
:10184000008080800000203F210000203F20000019
:10185000808080800000001F202020201F008080CA
:1018600000808000000080FFA12020110E000000F9
:10187000008080808000000E112020A0FF808080EA
:1018800080008080800020203F2120000100000097
:10189000808080808000003324242424190000806C
:1018A00080E0808000000000001F20200000808079
:1018B000000000808000001F202020103F2080803A
:1018C00080000080808000010E30080601008080CA
:1018D0000080008080800F300C030C300F000080EF
:1018E0008000808080000020312E0E31200080801A
:1018F00080000080808080818E701806010000804A
:101900008080808080000021302C22213000000067
:101910000000807C020200000000003F4040000008
:101920000000FF00000000000000FF0000000002B7
:10193000027C800000000040403F000000000006E4
:101940000101020204040000000000000000000089
:101950007019000800000020540100006C0100080C
:10196000181A00085401002064400000C801000853
:10197000110410F36F06001110404042465CD8C0BD
:101980007F7FC0D0584E46404020088080C06038DD
:101990001F07F8083F7F4040407878203A820100D6
:1019A0000A15E2E2B29A8E86828080051740C0FF57
:1019B0007F180D407C3CFFFF1030309FFF78F8010E
:1019C0000111081010020606FFFF01054663395E8B
:1019D000C7C17F3F20000F11FEFE92FEFE021011D4
:1019E00017F6F4171310001111101F1F08FFFF85C1
:1019F000C1713D0F0F3D71C1813808FEFE2262C2E8
:101A0000F272050312FEFE1808FFFF180E070F1EE4
:081A1000050B114FCEC60000CA
:0400000508000131BD
:00000001FF
