:020000040800F2
:10000000C04100200D020008290300082103000858
:1000100025030008C7020008CD0700080000000003
:10002000000000000000000000000000430700087E
:10003000CB02000800000000410700084507000847
:1000400027020008270200082702000827020008EC
:1000500027020008270200082702000827020008DC
:1000600027020008270200082702000827020008CC
:1000700027020008270200082702000827020008BC
:1000800027020008270200082702000827020008AC
:10009000270200082702000827020008270200089C
:1000A000270200082702000827020008270200088C
:1000B000B1070008270200082702000827020008ED
:1000C000270200082702000827020008270200086C
:1000D000270200082702000827020008270200085C
:1000E000270200082702000827020008270200084C
:1000F000270200082702000827020008270200083C
:10010000270200082702000827020008270200082B
:10011000270200082702000827020008270200081B
:10012000270200082702000827020008270200080B
:1001300000F002F800F05AF80AA090E8000C82449F
:100140008344AAF10107DA4501D100F04FF8AFF27C
:10015000090EBAE80F0013F0010F18BFFB1A43F0A5
:10016000010318471C1900003C1900000A444FF015
:10017000000C10F8013B13F0070408BF10F8014B06
:100180001D1108BF10F8015B641E05D010F8016B4B
:10019000641E01F8016BF9D113F0080F1EBF10F8AF
:1001A000014BAD1C0C1B09D16D1E58BF01F801CBD2
:1001B000FAD505E014F8016B01F8016B6D1EF9D555
:1001C0009142D6D37047000000230024002500266A
:1001D000103A28BF78C1FBD8520728BF30C148BFAA
:1001E0000B6070471FB51FBD10B510BD00F031F892
:1001F0001146FFF7F7FF00F065FB00F04FF803B47E
:10020000FFF7F2FF03BC00F057F8000009488047F1
:1002100009480047FEE7FEE7FEE7FEE7FEE7FEE7E8
:10022000FEE7FEE7FEE7FEE704480549054A064B00
:10023000704700004D07000831010008C001002090
:10024000C0410020C0210020C0210020704770471D
:100250007047754600F02CF8AE46050069465346D7
:1002600020F00700854618B020B5FFF7DDFFBDE898
:1002700020404FF000064FF000074FF000084FF00D
:10028000000B21F00701AC46ACE8C009ACE8C0099E
:10029000ACE8C009ACE8C0098D46704710B504460B
:1002A000AFF300802046BDE81040FFF7A8BF000074
:1002B000004870475C01002001491820ABBEFEE7F2
:1002C00026000200704700BFFEE7704705E01821D6
:1002D00000E0491E0029FCD1401E0028F7D17047DC
:1002E0002DE9F04104460025204600F0DDFE804661
:1002F000064900F0EDFE0746054900F0F3FD06460D
:1003000000F0B2FE05462846BDE8F08100008841B5
:100310000000204100B50246104600F059FA00BD29
:1003200000BFFEE700BFFEE77047000010B50028E1
:1003300007DA0A07140E054A00F00F031B1FD454F6
:1003400003E00A07130E024A135410BD18ED00E033
:1003500000E400E070B5002419E004F1B001C8B277
:10036000002100F0A7F90021084600F0A3F90021C0
:10037000102000F09FF9002505E00121002000F089
:1003800099F9681CC5B2802DF7DB601CC4B2082C3B
:10039000E3DB70BD10B540F2036000F0C3FB4FF427
:1003A000807303221021514800F02DFA4FF400739E
:1003B000032210214D4800F026FA4FF48053032207
:1003C00010214A4800F01FFA4FF400530322102175
:1003D000464800F018FA00224FF48051434800F0DC
:1003E0000DFA00224FF40051404800F007FA642053
:1003F000FFF790FF0021AE2000F05CF900210846D5
:1004000000F058F90021102000F054F9002140209C
:1004100000F050F90021812000F04CF90021CF209C
:1004200000F048F90021A12000F044F90021C82083
:1004300000F040F90021A62000F03CF90021A8209E
:1004400000F038F900213F2000F034F90021D320DA
:1004500000F030F90021084600F02CF90021D520E9
:1004600000F028F90021F02000F024F90021D92023
:1004700000F020F90021F12000F01CF90021DA2021
:1004800000F018F90021122000F014F90021DB20FF
:1004900000F010F90021402000F00CF9002120208C
:1004A00000F008F90021022000F004F900218D205D
:1004B00000F000F90021142000F0FCF80021A42035
:1004C00000F0F8F80021A62000F0F4F80021AF2099
:1004D00000F0F0F80021AF2000F0ECF8FFF73AFF51
:1004E0000021084600F004F810BD0000000C014097
:1004F00070B504460D4605F1B001C8B2002100F008
:10050000D9F8102141EA1410002100F0D3F804F0CA
:100510000F0141F00100002100F0CCF870BD000097
:100520002DE9F04180460E461546002731464046EB
:10053000FFF7DEFF00240AE0124A02EB8511085D96
:10054000012100F0B7F8781CC7B2601CC4B2102CAF
:10055000F2DB701CC1B24046FFF7CAFF00240CE07A
:100560006900491C074A02EB4111085D012100F0B6
:10057000A1F8781CC7B2601CC4B2102CF0DBBDE837
:10058000F08100001C0000202DE9F04107460E46D6
:10059000904600250024A8F12000C5B27F2F02DD7F
:1005A0000027B01CC6B231463846FFF7A1FF002431
:1005B00008E004EB05110F4A505C012100F07AF8C5
:1005C000601CC4B2082CF4DB701CC1B23846FFF7C3
:1005D0008FFF002409E004EB05110831054A505C47
:1005E000012100F067F8601CC4B2082CF3DBBDE801
:1005F000F0810000901400082DE9FF5F0746914646
:100600001D460E9E4FF0000A002433E0281B401EBA
:10061000C1B20A2000F06EFAB9FBF0F00A21B0FB7B
:10062000F1F201FB1208BAF1000F13D1681EA042CB
:1006300010DDB8F1000F0BD1B34606EBDB714910AA
:1006400001FB0471C8B220220199FFF79DFF0FE062
:100650004FF0010AB34606EBDB71491001FB047150
:10066000C8B208F13001CAB20199FFF78DFF00BF8F
:10067000601CC4B2AC42C9DBBDE8FF9F2DE9F0416C
:1006800004460F46154600260EE0AA5D3946204670
:10069000FFF77AFF04F10800C4B2782C02DD0024D1
:1006A000B81CC7B2701CC6B2A85D0028EDD1BDE869
:1006B000F081000070B504460E462EB101221103F0
:1006C0001E4800F09BF805E000224FF480511B48C3
:1006D00000F094F800224FF40051184800F08EF812
:1006E00000251DE000224FF48071144800F086F8C8
:1006F00004F0800028B101225102104800F07EF879
:1007000005E000224FF400710C4800F077F8012258
:1007100011020A4800F072F86006040E681CC5B2A7
:10072000082DDFDB01225103044800F067F80122A5
:100730001103024800F062F870BD0000000C014097
:100740007047704710B500F04DF810BD10B5144853
:10075000006840F0010012490860084640681149ED
:1007600008400F494860084600680F4908400C4996
:1007700008600846006820F4802008600846406849
:100780000A4908400649486008460068064908408A
:10079000034908604FF41F00886000F055FA10BD4F
:1007A000001002400C00FFE8FFFFF6FEFFFF00F71D
:1007B00010B50121880700F01EFB03480068401CAB
:1007C0000149086010BD00001400002000BFFEE7D2
:1007D0000349086000BF024909680029FBD170473E
:1007E000180000200448006820B103480068401E3B
:1007F0000149086070470000180000200AB101613B
:1008000000E041617047F0B504461646002500221D
:1008100001F00F0501F0100707B1354300201EE07D
:10082000012787401F40C7B122684FEA800C0F277D
:1008300007FA0CF7BA43870005FA07F73A43282965
:1008400004D1012787401F40676105E0482903D193
:10085000012787401F4027612260471CB8B2082843
:10086000DED3082022E0012787401F40E7B16268FD
:10087000A0F108074FEA870C0F2707FA0CF7BA43D5
:10088000A0F10807BF0005FA07F73A43282904D169
:10089000012787401F40676105E0482903D10127F0
:1008A00087401F4027616260471CB8B21028DAD326
:1008B000F0BD02469068084008B101207047002052
:1008C000FCE7000008B5002000F020F900F0C0F9B6
:1008D0004FF4C06000F026F94FF47A70FFF778FF0C
:1008E00040F2036000F01EF940F2026000F01AF9D5
:1008F0000123032210214448FFF785FF022303222E
:1009000004214148FFF77FFFFFF744FDFFF722FD79
:1009100000F0CBF977E0002201213B48FFF76EFFA2
:100920000520FFF7F7FC012211463748FFF766FF65
:100930001420FFF7CBFC002201213348FFF75EFFB4
:100940001420FFF7C3FC00BF02212F48FFF7B1FFBF
:100950000028F9D02D4800682D49086000BF022109
:100960002948FFF7A6FF0128F9D028480068284940
:100970000968884211D92548006825490968401A44
:100980002449086008460068B0F5407F05D2084653
:100990000068FFF7A5FC20490860FFF7DBFC002298
:1009A00011461220FFF7BCFD012200212420FFF791
:1009B000B7FD022200213620FFF7B2FD03220021FD
:1009C0004820FFF7ADFD042200215A20FFF7A8FDC3
:1009D00012A203211820FFF751FE13A206210020C6
:1009E000FFF74CFE1020032300900B4806210268FD
:1009F0001E20FFF701FE0EA206213C20FFF73EFE5F
:100A0000C820FFF787FC86E700080140140000209B
:100A100004000020080000200C0000205352303455
:100A200020544553540000004469733A20000000EC
:100A3000636D00002DE9F04103460D461646002483
:100A40000027A0462448006800F4E060B0F5A06FDD
:100A500015D006DCB0F5407F18D0B0F5806F19D105
:100A600010E0B0F5C06F06D0B0F5E06F12D10027EE
:100A70004FF0040815E001274FF0030811E00227AA
:100A8000B8460EE003274FF001080AE004274FF0B4
:100A9000000806E04FF4A06000F022F80227B846F4
:100AA00000BF00BFC7F1040005FA00F4C8F104015B
:100AB0000F20C8403040044324010848C45403F0C8
:100AC0001F01012088405911890001F1E021C1F87E
:100AD0000001BDE8F08100000CED00E000E400E062
:100AE00002490143024A1160704700000000FA0504
:100AF0000CED00E010B50246012000E050430B1E53
:100B0000A1F10104E1B2F9D110BD0000044A51681D
:100B100021F0F00141EA0002014B5A6070470000E9
:100B200000100240064A02EB9011096800F01F0312
:100B300001229A401143024B03EB9012116070475F
:100B400000100240064A02EB9011096800F01F03F2
:100B500001229A409143024B03EB901211607047BF
:100B600000100240064A02EB9011096800F01F03D2
:100B700001229A401143024B03EB9012116070471F
:100B800000100240002000212C4A126842F48032FA
:100B90002A4B1A6000BF401C284A126802F4003138
:100BA00019B94FF6FF729042F5D1244A126802F447
:100BB00000320AB900BFFEE7204A52681F4B5A6054
:100BC0001A4652685A601A46526842F480625A6065
:100BD0001A46526822F440325A601A46526842F469
:100BE00040325A601A465268154B1A40134B5A60ED
:100BF0001A465268134B1A43104B5A601A46126831
:100C000042F080721A6000BF0C4A126802F0007253
:100C1000002AF9D0094A526822F00302074B5A60B1
:100C20001A46526842F002025A6000BF034A5268F4
:100C300002F00802002AF9D07047000000100240BC
:100C4000FFFFC3F70000280810B5FFF79BFF10BD9A
:100C500010B5124800684FF47A71B0FBF1F4601ED1
:100C6000B0F1807F01D301200FE0601E4FF0E02142
:100C700048610F214FF0FF30FFF758FB00204FF085
:100C8000E021886107200861002008B100BFFEE76D
:100C90000021481EFFF74AFB10BD000000000020A5
:100CA000016841F08001016070471FB54FF4E060BA
:100CB000FFF738FF4FF0804000F02AF86B20ADF8C6
:100CC00000000020ADF80200ADF80400632002909F
:100CD0000020ADF80C008DF80E0069464FF0804002
:100CE00000F08CF84FF4C060FFF7FAFE01220021FB
:100CF0001C20FFF79FFE0121880700F0EFF84FF05E
:100D00008040FFF7CDFF4FF0804000F06FF81FBD2F
:100D100010B504463349601A8C4244D00CDCB4F15F
:100D2000804F1CD03048204410B3B0F5806F28D0DD
:100D3000B0F5006F52D12DE0B0F5806F3CD0B0F52A
:100D40008E3F03D0B0F5923F48D13EE040F20B30E9
:100D5000FFF708FF40F20B30FFF7F4FE3FE04FF4DF
:100D60008060FFF7FFFE4FF48060FFF7EBFE36E098
:100D700040F20140FFF7F6FE40F20140FFF7E2FECD
:100D80002DE040F20240FFF7EDFE40F20240FFF797
:100D9000D9FE24E040F20340FFF7E4FE40F20340B6
:100DA000FFF7D0FE1BE040F20440FFF7DBFE40F20D
:100DB0000440FFF7C7FE12E040F20540FFF7D2FE05
:100DC00040F20540FFF7BEFE09E040F20D30FFF7AC
:100DD000C9FE40F20D30FFF7B5FE00E000BF00BFD6
:100DE00010BD00000010004000FCFFBF016841F092
:100DF000010101607047CA43026170470A8882623C
:100E0000294A904220D0B0F1804F1DD0274A90420D
:100E10001AD0274A904217D0264A904214D0264A28
:100E2000904211D0254A90420ED0254A90420BD0D4
:100E3000244A904208D0244A904205D0234A904246
:100E400002D0234A90420FD1026822F07002026061
:100E500002688B7803F060031A43026002680B7922
:100E600003F010031A4302608A68C262194A904272
:100E70000CD0194A904209D0026822F440720260F4
:100E800002688B8903F440731A430260064A904259
:100E900002D0094A904201D18A7B0263426942F042
:100EA0000102426170470000002C01400004004034
:100EB00000080040000C004000340140004C01409C
:100EC000005001400054014000180040001C004048
:100ED000002000400010004000140040C2680A4397
:100EE000C26070474FF47F0C1CEAD0121EBF1CEA90
:100EF000D11392EA0C0F93EA0C0F00F0858090EA70
:100F0000010F48BF42F4807240F4000C41F400002D
:100F10002CF07F4120F07F4000B58142A2EB03021C
:100F20000FF2081CACEB504EC0F100009EF800E040
:100F30004FEA4E0E00FB0EFC38BF49004FEA2C1C56
:100F400002F5FA020CFB0EF34FEACE1E4FEA112C0B
:100F50004FEAC1210EEB635E42EB22420EFB0CFC1A
:100F60004FEA1C5300FB03114FEA112C4FEA0131E9
:100F70000EFB0CFC4FEADC4C00FB0C11C14228BFFD
:100F800009184CEB03335DF804EB10EB410143EB24
:100F9000C250B2F57C0F38BF704729D512F0F00F60
:100FA0001CBF00F1C04000F0004070470081828308
:100FB0008485868788898B8C8D8E8F919293959668
:100FC00097999A9C9D9FA0A2A3A5A7A8AAACAEB0F2
:100FD000B2B3B5B7B9BCBEC0C2C5C7C9CCCED1D4F7
:100FE000D7D9DCDFE2E6E9ECF0F3F7FAFE00000027
:100FF0004FEA400C0CF1807CBCF17E4F28BF70475B
:10100000B0F1C04000F02BB990EA010F0CEAD11307
:1010100048BF42F48072624538BF634507D213F47B
:101020007F0F16D080EA010000F00040704710B535
:1010300000F0CFF8097EFC3E00F005B880EA010020
:1010400000F00040704780EA010000F0004000F02E
:1010500006B912F47F0F04BF0248704780EA01000E
:1010600000F0FDB80000C07FC10DD1F19E0206DB8B
:101070004FEA002343F0004323FA02F07047004296
:1010800007D54FEA4001B1F1FE4F02D24FF0000008
:10109000704710B500F09DF84992248000207047F9
:1010A0006FEA200070470000B0FA80F310FA03F2F4
:1010B000C3F19D030AD0D90501EB1220530638BFB6
:1010C000704700F1010008BF20F0010070470000E8
:1010D0004FF47F0C1CEAD0121EBF1CEAD11392EA17
:1010E0000C0F93EA0C0F00F0478090EA010F48BF05
:1010F00042F480724FF0004C4CEA00204CEA01218F
:1011000002EB0302A0FB0113A2F50002002918BFA5
:1011100043F001035B0028BF4FEA330342EB224256
:101120005FEA132C4CEBC2502EBFBCEB436FB2F501
:101130007C0F70474FEA036CBCF1004F08BF20F0F2
:101140000100B2F57C0F38BF70470BD582F0FF026B
:1011500012F5803FC8BF704700F1C040D8BF00F013
:101160000040704700F5000C5FEA4C0C48BF704728
:10117000B0F1C04000F073B890EA010F0CEAD1134F
:1011800048BF42F48072624538BF634504D280EAAA
:10119000010000F00040704710B500F01AF800BFE1
:1011A0008900013E00F007B800F009B85FEA410C81
:1011B0005FEA1C6C08D080EA010000F050B85FEADA
:1011C000400C5FEA1C6CF6D14FF00040A0F58000A7
:1011D00070470EF1020E2EF0030E5EF8044B24420F
:1011E00004D44FEA4102B2F17F4F11D84FEA4003D5
:1011F000B3F17F4F0CD80ED14FEAD07CB2F17F4FC4
:101200000CEB4C0C0CF1020C08BF4CEBD17C04E055
:101210004FF0080C01E04FEAD17C0CEB4C0324FAB0
:1012200003F404F00704B4F1040C06D20EEB840CB2
:10123000BDE810404CF0010C6047DFE80CF00708F7
:1012400002024FF00040A0F5800010BD08464200A9
:1012500018BFD2F1807288BF00F0004010BDFF219E
:1012600041EAD050C00570470000000000000000B7
:10127000002F000000000700070000147F147F14F7
:1012800000242A7F2A12006264081323003649557D
:10129000225000000503000000001C224100000055
:1012A00041221C000014083E08140008083E0808EB
:1012B000000000A060000008080808080000606046
:1012C0000000002010080402003E5149453E000085
:1012D000427F4000004261514946002141454B3167
:1012E000001814127F10002745454539003C4A4933
:1012F00049300001710905030036494949360006A5
:101300004949291E0000363600000000563600000C
:101310000008142241000014141414140000412287
:10132000140800020151090600324959513E007C5F
:101330001211127C007F49494936003E4141412249
:10134000007F4141221C007F49494941007F090932
:101350000901003E4149497A007F0808087F0000E2
:10136000417F4100002040413F01007F081422419D
:10137000007F40404040007F020C027F007F040855
:10138000107F003E4141413E007F09090906003EB1
:101390004151215E007F09192946004649494931DA
:1013A0000001017F0101003F4040403F001F2040FD
:1013B000201F003F4038403F0063140814630007BB
:1013C0000870080700615149454300007F41410012
:1013D00000552A552A55000041417F0000040201B2
:1013E0000204004040404040000001020400002090
:1013F00054545478007F48444438003844444420CE
:1014000000384444487F00385454541800087E097A
:1014100001020018A4A4A47C007F08040478000042
:10142000447D4000004080847D00007F10284400FF
:101430000000417F4000007C04180478007C080410
:10144000047800384444443800FC2424241800184C
:10145000242418FC007C0804040800485454542038
:1014600000043F444020003C4040207C001C2040C1
:10147000201C003C4030403C004428102844001C04
:10148000A0A0A07C004464544C44141414141414FC
:10149000000000000000000000000000000000004C
:1014A000000000F8000000000000003330000000E1
:1014B00000100C06100C06000000000000000000E8
:1014C00040C07840C0784000043F04043F0404005A
:1014D000007088FC08300000001820FF211E00006A
:1014E000F008F000E018000000211C031E211E007F
:1014F00000F00888700000001E2123241927211005
:1015000010160E00000000000000000000000000A7
:10151000000000E01804020000000007182040004E
:1015200000020418E000000000402018070000003E
:10153000404080F0804040000202010F01020200A2
:10154000000000F0000000000101011F0101010086
:10155000000000000000000080B0700000000000EB
:101560000000000000000000000101010101010174
:10157000000000000000000000303000000000000B
:1015800000000000806018040060180601000000E0
:1015900000E010080810E000000F102020100F00DD
:1015A000001010F8000000000020203F2020000064
:1015B00000700808088870000030282422213000BC
:1015C00000300888884830000018202020110E00C4
:1015D0000000C02010F8000000070424243F24006D
:1015E00000F80888880808000019212020110E0042
:1015F00000E0108888180000000F112020110E0054
:1016000000380808C83808000000003F000000004B
:101610000070880808887000001C222121221C000C
:1016200000E010080810E0000000312222110F0035
:10163000000000C0C00000000000003030000000CA
:10164000000000800000000000008060000000003A
:101650000000804020100800000102040810200053
:10166000404040404040400004040404040404009E
:101670000008102040800000002010080402010033
:10168000007048080808F000000000303601000033
:10169000C030C828E810E0000718272423140B00E6
:1016A0000000C038E0000000203C23020227382060
:1016B00008F8888888700000203F202020110E0044
:1016C000C03008080808380007182020201008003B
:1016D00008F808080810E000203F202020100F0024
:1016E00008F88888E8081000203F202023201800F0
:1016F00008F88888E8081000203F20000300000058
:10170000C03008080838000007182020221E0200F8
:1017100008F808000008F808203F210101213F20B7
:10172000000808F8080800000020203F20200000E2
:1017300000000808F8080800C08080807F000000D2
:1017400008F888C028180800203F2001263820000B
:1017500008F8080000000000203F20202020300072
:1017600008F8F800F8F80800203F003F003F20008C
:1017700008F830C00008F808203F200007183F0094
:10178000E01008080810E0000F10202020100F00C3
:1017900008F808080808F000203F210101010000B6
:1017A000E01008080810E0000F18242438504F00FB
:1017B00008F8888888887000203F2000030C3020BB
:1017C00000708808080838000038202121221C00F9
:1017D000180808F8080818000000203F2000000042
:1017E00008F808000008F808001F202020201F002B
:1017F0000878880000C83808000007380E0100008B
:10180000F80800F80008F800033C0700073C030054
:10181000081868808068180820302C03032C3020BA
:101820000838C800C83808000000203F2000000029
:1018300010080808C8380800203826212020180081
:10184000000000FE020202000000007F4040400055
:10185000000C30C000000000000000010638C0008D
:1018600000020202FE000000004040407F00000035
:10187000000004020202040000000000000000005A
:101880000000000000000000808080808080808058
:101890000002020400000000000000000000000040
:1018A00000008080808000000019242222223F2036
:1018B00008F8008080000000003F112020110E0079
:1018C0000000008080800000000E11202020110008
:1018D000000000808088F800000E112020103F20BA
:1018E0000000808080800000001F2222222213003E
:1018F000008080F0888888180020203F2020000089
:101900000000808080808000006B9494949360003D
:1019100008F8008080800000203F210000203F2048
:1019200000809898000000000020203F2020000048
:10193000000000809898000000C08080807F000038
:1019400008F8000080808000203F24022D30200015
:10195000000808F8000000000020203F20200000C0
:101960008080808080808000203F20003F20003FDA
:101970008080008080800000203F210000203F20E8
:101980000000808080800000001F202020201F0099
:10199000808000808000000080FFA12020110E00C8
:1019A0000000008080808000000E112020A0FF80B9
:1019B000808080008080800020203F212000010066
:1019C00000008080808080000033242424241900BB
:1019D000008080E0808000000000001F20200000C8
:1019E0008080000000808000001F202020103F2009
:1019F000808080000080808000010E300806010099
:101A000080800080008080800F300C030C300F003D
:101A100000808000808080000020312E0E31200068
:101A2000808080000080808080818E701806010098
:101A300000808080808080000021302C22213000B6
:101A400000000000807C020200000000003F4040D7
:101A500000000000FF00000000000000FF00000088
:101A60000002027C800000000040403F00000000B7
:101A70000006010102020404000000000000000052
:101A8000A01A0008000000205C0100006C010008A2
:101A9000481B00085C01002064400000C8010008E9
:101AA000110418F36F06001110404042465CD8C084
:101AB0007F7FC0D0584E46404020088080C06038AC
:101AC0001F07F8083F7F4040407878203A8201089D
:101AD0000A14E2E2B29A8E86828080650C16C0FFFC
:101AE0007F80180C7C3CFFFF1030309FFF78F8019E
:101AF0000111081010020606FFFF01054663395E5A
:101B0000C7C17F3F20000F11FEFE92FEFE021011A2
:101B100017F6F4171310001111101F1F08FFFF858F
:101B2000C1713D0F0F3D71C1813808FEFE2262C2B6
:101B3000F272050312FEFE1808FFFF180E070F1EB3
:081B4000050B114FCEC6000099
:0400000508000131BD
:00000001FF
