:020000040800F2
:1000000070400020CD010008050300088D020008A3
:100010009102000887020008A10300080000000008
:100020000000000000000000000000003303000892
:100030008B020008000000003103000835030008AF
:10004000E7010008E7010008E7010008E7010008F0
:10005000E7010008E7010008E7010008E7010008E0
:10006000E7010008E7010008E7010008E7010008D0
:10007000E7010008E7010008E7010008E7010008C0
:10008000E7010008E7010008E7010008E7010008B0
:10009000E7010008E7010008E7010008E7010008A0
:1000A000E7010008E7010008E7010008E701000890
:1000B000E7010008E7010008E7010008E701000880
:1000C000E7010008E7010008E7010008E701000870
:1000D000E7010008E7010008E7010008E701000860
:1000E000E7010008E7010008E7010008E701000850
:1000F000E7010008E7010008E7010008E701000840
:10010000E7010008E7010008E7010008E70100082F
:10011000E7010008E7010008E7010008E70100081F
:10012000E7010008E7010008E7010008E70100080F
:1001300000F002F800F03AF80AA090E8000C8244BF
:100140008344AAF10107DA4501D100F02FF8AFF29C
:10015000090EBAE80F0013F0010F18BFFB1A43F0A5
:1001600001031847DC040000FC040000103A24BF1F
:1001700078C878C1FAD8520724BF30C830C144BF0C
:1001800004680C607047000000230024002500264E
:10019000103A28BF78C1FBD8520728BF30C148BFEA
:1001A0000B6070471FB51FBD10B510BD00F031F8D2
:1001B0001146FFF7F7FF00F067F900F04FF803B4BE
:1001C000FFF7F2FF03BC00F057F800000948804732
:1001D00009480047FEE7FEE7FEE7FEE7FEE7FEE729
:1001E000FEE7FEE7FEE7FEE704480549054A064B41
:1001F000704700003D030008310100087000002036
:100200007040002070200020702000207047704750
:100210007047754600F02CF8AE4605006946534617
:1002200020F00700854618B020B5FFF7DDFFBDE8D8
:1002300020404FF000064FF000074FF000084FF04D
:10024000000B21F00701AC46ACE8C009ACE8C009DE
:10025000ACE8C009ACE8C0098D46704710B504464B
:10026000AFF300802046BDE81040FFF7A8BF0000B4
:10027000004870471000002001491820ABBEFEE77F
:1002800026000200704700BFFEE7704700BFFEE790
:1002900000BFFEE710B5002410E00A48015D01220E
:1002A000094800F095F80A2000F07CF80548015D47
:1002B0000022054800F08CF8601CC4B2042CECDB72
:1002C00010BD000008000020000C014010B5002403
:1002D00010E00A48015D0122094800F079F80A207F
:1002E00000F060F80548015D0022054800F070F854
:1002F000601CC4B2042CECDB10BD00000400002024
:10030000000C01407047000010B5002807DA0A070A
:10031000140E054A00F00F031B1FD45403E00A0714
:10032000130E024A135410BD18ED00E000E400E083
:100330007047704710B500F03FF810BD10B5144875
:10034000006840F001001249086008464068114901
:1003500008400F494860084600680F4908400C49AA
:1003600008600846006820F480200860084640685D
:100370000A4908400649486008460068064908409E
:10038000034908604FF41F00886000F02DF910BD8C
:10039000001002400C00FFE8FFFFF6FEFFFF00F731
:1003A00000BFFEE70349086000BF02490968002951
:1003B000FBD170470C0000200448006820B10348BE
:1003C0000068401E01490860704700000C000020D2
:1003D0000AB1016100E041617047F0B5044616467C
:1003E0000025002201F00F0501F0100707B1354389
:1003F00000201EE0012787401F40C7B122684FEA56
:10040000800C0F2707FA0CF7BA43870005FA07F7A5
:100410003A43282904D1012787401F40676105E03E
:10042000482903D1012787401F4027612260471CCC
:10043000B8B20828DED3082022E0012787401F40F9
:10044000E7B16268A0F108074FEA870C0F2707FAA7
:100450000CF7BA43A0F10807BF0005FA07F73A43C3
:10046000282904D1012787401F40676105E04829FA
:1004700003D1012787401F4027616260471CB8B243
:100480001028DAD3F0BD0000002000F02FF800F0B3
:10049000AFF84FF4C06000F035F840F2036000F0B0
:1004A00031F82723032210210F48FFF796FF1AE0A7
:1004B0003220FFF777FF002402E0FFF707FF641CFC
:1004C000B4F5FA7FF9DB4FF4FA70FFF76BFF002405
:1004D00002E0FFF7DFFE641CB4F5FA7FF9DB4FF4AE
:1004E000FA70FFF75FFFE3E7000C0140044A516830
:1004F00021F4605141EA0002014B5A60704700004C
:1005000000100240064A02EB9011096800F01F0338
:1005100001229A401143024B03EB90121160704785
:1005200000100240002000212C4A126842F4803260
:100530002A4B1A6000BF401C284A126802F400319E
:1005400019B94FF6FF729042F5D1244A126802F4AD
:1005500000320AB900BFFEE7204A52681F4B5A60BA
:100560001A4652685A601A46526842F480625A60CB
:100570001A46526822F440325A601A46526842F4CF
:1005800040325A601A465268154B1A40134B5A6053
:100590001A465268134B1A43104B5A601A46126897
:1005A00042F080721A6000BF0C4A126802F00072BA
:1005B000002AF9D0094A526822F00302074B5A6018
:1005C0001A46526842F002025A6000BF034A52685B
:1005D00002F00802002AF9D0704700000010024023
:1005E000FFFFC3F70000280810B5FFF79BFF10BD01
:1005F00010B5124800684FF47A71B0FBF1F4601E38
:10060000B0F1807F01D301200FE0601E4FF0E021A8
:1006100048610F214FF0FF30FFF776FE00204FF0CA
:10062000E021886107200861002008B100BFFEE7D3
:100630000021481EFFF768FE10BD000000000020EA
:100640006006000800000020100000006C01000897
:1006500070060008100000206040000088010008BB
:1006600000F36F06200402010102042000000000D4
:0400000508000131BD
:00000001FF
