:020000040800F2
:10000000E00D00204901000851010008690D0008B9
:1000100055010008570100085901000800000000C0
:100020000000000000000000000000005B0100086C
:100030005D010008000000005F010008E11E0008EB
:10004000592D0008630100086301000863010008DE
:100050006301000863010008930A000863010008B7
:1000600063010008630100086301000863010008E0
:1000700063010008630100086301000863010008D0
:100080006301000863010008ED0700086301000830
:1000900063010008630100086301000863010008B0
:1000A000630100086301000863010008852100085E
:1000B00063010008630100085D2200086301000875
:1000C0006301000863010008630100086301000880
:1000D00063010008452A0008630100086301000865
:1000E0006301000863010008630100086301000860
:1000F0006301000863010008630100086301000850
:10010000630100086301000801240008630100087E
:1001100063010008630100087D24000863010008F2
:10012000630100086301000863010008630100081F
:10013000DFF810D000F0BAFA00480047AD440008DC
:10014000AFF30080E00D00200648804706480047D6
:10015000FEE7FEE7FEE7FEE7FEE7FEE7FEE7FEE777
:10016000FEE7FEE7E51E000831010008421C10F81A
:10017000011B0029FBD1801A7047034611F8012B9F
:1001800000F8012B002AF9D11846704730B480EAF4
:10019000010202F0004530F0004221F0004013D08F
:1001A00090B1C30DD40DC2F31601C0F31600E41ACA
:1001B00041F4000140F400027D34914201D3641CFB
:1001C00000E04900002C02DA30BC002070474FF4F8
:1001D00000000023914201D3891A034340084FEAEB
:1001E0004101F7D151B1914202D14FF0004105E0F8
:1001F00002D24FF0010101E06FF0010103EBC450A6
:10020000284430BC00F063B8C10F80EAE0700844B5
:10021000CA079623002100F063B800F0004230F0D6
:1002200000400AD0C10D01F56071C0F3160042EA2A
:100230000151C20840071143704700200146704732
:1002400030B50B46014600202022012409E021FAA6
:1002500002F59D4205D303FA02F5491B04FA02F5A3
:100260002844151EA2F10102F1DC30BD2DE9F05F3A
:100270000546002092469B46884606468146402415
:100280001BE0284641464746224600F030FA5346D6
:100290005A46C01A914110D311461846224600F022
:1002A00017FA2D1A67EB01084F462246012000215C
:1002B00000F00EFA17EB00094E41201EA4F10104D4
:1002C000DFDC484631462A464346BDE8F09F002918
:1002D000A8BF7047401C490008BF20F001007047CC
:1002E00010B4B0FA80FC00FA0CF050EA010404BF2C
:1002F00010BC704749B1CCF1200421FA04F411FA82
:100300000CF118BF012121430843A3EB0C01CB1DC5
:100310004FEA00614FEA102042BF002010BC704736
:1003200000EBC35010440029A4BF10BC7047401C10
:10033000490008BF20F0010010BC70472DE9FE4FB6
:10034000804681EA0300C00F0C46009021F0004176
:1003500023F00045B8EB0200A94105D240462146F2
:1003600090461C460B46024623F00040104347D0FF
:10037000270DC7F30A00C3F30A510290401A0190F7
:1003800040286BDAC3F3130040F4801B00989246B8
:1003900020B10023D2EB030A63EB0B0B0198594603
:1003A000C0F14002504600F093F906460D46504613
:1003B0005946019A00F0ABF910EB080061410024A6
:1003C00087EA115284EAE7731A4340D0009A62B375
:1003D000019A012A4FEA075215DC001B61EB02016A
:1003E0004FF0004202EA0752CDE90042001C41F5FD
:1003F000801132462B4600F0ABF903B0BDE8F08F18
:1004000040462146F9E7001B61EB0201001C41F563
:10041000801300185B412018A2F5001747EB030179
:1004200040EAD570B6196D4111E06D084FEA360605
:1004300045EAC0754FEA0752001B61EB0201001C40
:1004400041F5801149084FEA300000195141324608
:100450002B4603B0BDE8F04F00F06BB900980122C5
:1004600040000023D0EB020263EBE07300982146CA
:100470004FEAE074B8EB000061EB0401E9E783F0B8
:1004800000435BE781F0004158E72DE9FE4F81EA28
:10049000030404F0004421F0004100944FF0000BED
:1004A00023F0004350EA01045ED052EA03045BD01B
:1004B000C3F30A54C1F30A552C44A4F2F334019453
:1004C000A0FB0254C1F3130141F48011C3F31303E1
:1004D00043F4801301FB024400FB034E840A970A95
:1004E00044EA815447EA8357A4FB076802958D0AC2
:1004F00005FB07854FEA932C04FB0C542705029D4E
:100500004FEA065847EA1637B5EB08056EEB070CBD
:10051000870E920E47EA811742EA8312A7FB020177
:10052000B6EB0B0164EB00042B0D43EA0C335E18B1
:1005300044EB1C50DA465146E7FB0201C5F31304B5
:100540004FEA0B3343EA14534FEA0432019C43EA67
:100550000603A4F10C040294009CCDE900B400F061
:10056000F7F803B0BDE8F08F00200146F9E72DE968
:10057000F04D81EA030404F0004B21F000451446DD
:100580004FF0000A23F0004150EA050220D054EA5F
:1005900001021DD0C5F30A570246C5F31303C1F388
:1005A0001300C1F30A5640F4801543F48013A7EBFF
:1005B0000608101BD64608F2FD3873EB050002D37F
:1005C00008F1010801E092185B41B8F1000F03DA6D
:1005D00000200146BDE8F08D00204FF48011064652
:1005E00084460EE0171B73EB050705D3121B63EB64
:1005F000050306434CEA010C49084FEA3000921803
:100600005B4150EA0107EDD152EA030012D082EAC1
:10061000040083EA0501084305D0101BAB4106D254
:100620000122002306E000224FF0004302E06FF0B9
:10063000010253101AEB06004CEB085110EB0A00B4
:1006400041EB0B01BDE8F04D00F073B8C1F30A5265
:10065000C1F3130140F2FF3341F480119A4202DAF0
:1006600000200146704740F233439A42A2F23342DF
:1006700002DC524200F03BB800F02AB830B5041E4C
:1006800071F1000404DB4FF00044404264EB0101CF
:10069000141E73F1000405DB1C464FF00043524268
:1006A00063EB0403994208BF904230BD064C074DEE
:1006B00006E0E06840F0010394E807009847103432
:1006C000AC42F6D3FFF738FD8C690008AC6900082E
:1006D000202A04DB203A00FA02F100207047914002
:1006E000C2F1200320FA03F3194390407047202AF7
:1006F00004DB203A21FA02F00021704721FA02F3CC
:10070000D040C2F120029140084319467047202A88
:1007100006DBCB17203A41FA02F043EAE07306E029
:1007200041FA02F3D040C2F1200291400843194639
:10073000704710B5141E73F1000408DA401C41F133
:10074000000192185B411A4301D120F0010010BD55
:100750002DE9F04D92469B4611B1B1FA81F202E0CB
:10076000B0FA80F220329046FFF7B2FF04460F46FF
:1007700040EA0A0041EA0B0153465A46084313D0A7
:10078000114653EA010019D0C8F140025046FFF764
:10079000AEFF05460E46504659464246FFF798FFC3
:1007A000084305D0012004E020463946BDE8F08D1D
:1007B0000020054346EAE0762C4337430A98630558
:1007C000E40AA0EB08000022FD0A44EA47540A307C
:1007D00002D500200146E9E7010510196941DDE96C
:1007E000084500196941BDE8F04DA2E710B54FF486
:1007F0000871084800F030F8012804D1054800F0DD
:1008000027F8054908804FF40871024800F006F8FF
:1008100010BD0000002801400000002000220A1244
:10082000D3430360704721B1826842F001028260C5
:1008300003E0826822F001028260704701460020D6
:100840008A6802F004020AB1012000E0002070472B
:100850000146C86C80B2704770B502460020002384
:1008600000240B125568CEB205EA060415681D4037
:1008700015B10CB1012000E0002070BD10B50023BF
:10088000CBB21AB144681C43446002E044689C4304
:10089000446010BD30B502460020002350680F4C64
:1008A00020400D790C6844EA05242043506090688C
:1008B0000B4C2040D1E902542C434D7944EA4504C5
:1008C00020439060D06A20F470000C7C641EE4B277
:1008D000234340EA0350D06230BD0000FFFEF0FF2A
:1008E000FDF7F1FFF0B504460D4600200021092D6B
:1008F00011DDE068A5F10A0606EB4607072606FAB1
:1009000007F18843A5F10A0606EB460603FA06F14D
:100910000843E0600CE0206905EB4507072606FA6E
:1009200007F1884305EB450603FA06F10843206109
:10093000072A0FDA606B561E06EB86071F2606FA9B
:1009400007F18843561E06EB860605FA06F10843B2
:10095000606322E00D2A0FDA206BD61F06EB8607B4
:100960001F2606FA07F18843D61F06EB860605FA0E
:1009700006F10843206310E0E06AA2F10D0606EBE1
:1009800086071F2606FA07F18843A2F10D0606EB3B
:10099000860605FA06F10843E062F0BD21B18268DF
:1009A00042F4A002826003E0826822F4A002826026
:1009B0007047816841F004018160704708B50121EA
:1009C000102000F0E1FD0220ADF800000020ADF89D
:1009D00000006946014800F02FF908BD00100140F1
:1009E00010B500F043F8FFF7E9FF00F001F810BD83
:1009F00000B585B00121880200F0C6FD00200090FE
:100A00008DF8040001208DF805004FF4602002905D
:100A10000020039001208DF8100069461248FFF76E
:100A200039FF4FF4004000F093FD052301220B2114
:100A30000D48FFF757FF01224FF408710A48FFF7EE
:100A40001DFF01210848FFF7EEFE0748FFF7B1FF41
:100A500000BF0548FFF7F2FE0028FAD10121024845
:100A6000FFF79CFF05B000BD0028014008B54FF41A
:100A7000C06000F017FA12208DF8000001208DF8F8
:100A800001008DF802008DF80300684600F0D2F9ED
:100A900008BD10B5012000F00FF818B1022108467A
:100AA00000F086F9012000F001F810BD014908604E
:100AB0007047000014040140014600200022074B4B
:100AC0001B6803EA0102054B14331B680B4013B18A
:100AD0000AB1012000E0002070470000000401403E
:100AE00038B504460B4951F82400012100F04CFDB3
:100AF000094830F81400ADF8000018208DF8030004
:100B000003208DF80200054951F82400694600F0E1
:100B100093F838BD5C0000207C0000206C000020B1
:100B20002DE9F04104460D4616461F462046FFF7C4
:100B3000D7FF3B4632462946204600F003F8BDE881
:100B4000F0810000F0B587B004460D4617461E46FA
:100B50000121022000F008FD781E80B2ADF81400DB
:100B6000681E80B2ADF810000020ADF81600ADF898
:100B700012008DF8180004A9204801F0BFFE602083
:100B8000ADF800000120ADF802000020ADF808002B
:100B9000ADF8066034B1012C0DD0022C14D0032C1A
:100BA00024D11AE06946154801F006FD08211348D2
:100BB00001F04EFD1BE06946104801F053FD08218D
:100BC0000E4801F0AEFD12E069460C4801F0B6FD9A
:100BD00008210A4801F002FE09E06946074801F0D1
:100BE00007FE0821054801F04EFE00E000BF00BFEF
:100BF0000121024801F059FC07B0F0BD000400409B
:100C000008B50121082000F0BFFC4FF40070ADF8DA
:100C1000000028208DF8030003208DF802006946AB
:100C2000044800F009F84FF40071024800F09AF807
:100C300008BD0000000C01402DE9F04102460025EE
:100C40000026002000230024002791F803C00CF0A8
:100C50000F0591F803C00CF0100CBCF1000F03D08D
:100C600091F802C04CEA050591F800C0BCF1000FF4
:100C700031D0146800202BE04FF0010C0CFA00F387
:100C8000B1F800C00CEA03069E4220D183004FF069
:100C90000F0C0CFA03F7BC4305FA03FC4CEA0404FE
:100CA00091F803C0BCF1280F06D14FF0010C0CFAEB
:100CB00000FCC2F814C00AE091F803C0BCF1480F70
:100CC00005D14FF0010C0CFA00FCC2F810C0401C1A
:100CD0000828D1D31460B1F800C0BCF1FF0F34DD97
:100CE000546800202EE000F1080C4FF0010808FACB
:100CF0000CF3B1F800C00CEA03069E4221D1830038
:100D00004FF00F0C0CFA03F7BC4305FA03FC4CEA56
:100D1000040491F803C0BCF1280F05D100F1080CC0
:100D200008FA0CF8C2F8148091F803C0BCF1480F1F
:100D300007D100F1080C4FF0010808FA0CF8C2F8CE
:100D40001080401C0828CED35460BDE8F0810246D4
:100D5000002093680B400BB1012000E00020704799
:100D6000416170470161704702A002F00BF800BFBB
:100D7000FEE70000686172646661756C74206572DC
:100D8000726F720D0A00000010B50446064A32F870
:100D90001410064A52F82400FFF7D9FF012800D1A9
:100DA00010BD0020FCE70000280000201C000020EF
:100DB00070B504460D46012D08D1114A32F81410C1
:100DC000104A52F82400FFF7CDFF17E045B90C4A4E
:100DD00032F814100B4A52F82400FFF7C1FF0DE05F
:100DE000022D0BD1074850F82400C068044931F89F
:100DF00014104840034951F82410C86070BD000029
:100E0000280000201C00002008B51E208DF80000DE
:100E10004FF4A06000F046F801208DF80100032097
:100E20008DF8020001208DF80300684600F002F8FA
:100E300008BD000070B5002100230F22C47804B360
:100E4000154C246804F4E064C4F5E064210AC1F19F
:100E50000403CA40447804FA03F18478144021431F
:100E600009010E4C0678A155047804F01F050124F1
:100E7000AC4005786D11AD0005F1E025C5F80041E5
:100E800009E0047804F01F050124AC40044D067805
:100E9000761145F8264070BD0CED00E000E400E05E
:100EA00080E100E002490143024A116070470000FE
:100EB0000000FA050CED00E070B500240CE0002500
:100EC00006E00020074901EBC5010855681CC5B2C2
:100ED000802DF6DB601CC4B2082CF0DB00F04CF96E
:100EE00070BD00005C01002010B504461CB9002153
:100EF000A62000F0F3FA012C03D10021A72000F076
:100F0000EDFA10BD10B500218D2000F0E7FA0021A8
:100F1000102000F0E3FA0021AE2000F0DFFA10BD4F
:100F200010B500218D2000F0D9FA0021142000F026
:100F3000D5FA0021AF2000F0D1FA10BD10B504465B
:100F40003CB90021C82000F0C9FA0021A12000F01E
:100F5000C5FA012C07D10021C02000F0BFFA002102
:100F6000A02000F0BBFA10BDF0B514460B46CF1719
:100F700001EB5777C7F3C702CF1701EB5777FF1085
:100F8000A1EBC707FEB20123B340DDB24CB1134B56
:100F900003EBC0039B5C2B43104F07EBC007BB5414
:100FA0001AE00E4B03EBC0039B5CDB430B4F07EBDC
:100FB000C007BB54094B03EBC0039B5C2B43074F9B
:100FC00007EBC007BB54054B03EBC0039B5CDB4343
:100FD000024F07EBC007BB54F0BD00005C010020CE
:100FE00008B501213C2000F0CFFAB020ADF8000098
:100FF00010208DF8030003208DF802006946544844
:10100000FFF71AFEB0215248FFF7ACFE2020ADF8E2
:10101000000069464F48FFF70FFE20214D48FFF7BB
:10102000A1FE4FF48050ADF8000069464A48FFF732
:1010300003FE4FF480514848FFF794FE0420ADF8BA
:10104000000069464548FFF7F7FD04214348FFF7D4
:1010500089FE04214148FFF783FEC82000F022FFEB
:1010600004213E48FFF77EFE0021AE2000F036FA54
:101070000021084600F032FA0021102000F02EFA7C
:101080000021402000F02AFA0021812000F026FAF9
:101090000021CF2000F022FA0021A12000F01EFA4A
:1010A0000021C82000F01AFA0021A62000F016FA4C
:1010B0000021A82000F012FA00213F2000F00EFAD3
:1010C0000021D32000F00AFA0021084600F006FAB9
:1010D0000021D52000F002FA0021802000F0FEF966
:1010E0000021D92000F0FAF90021F12000F0F6F9F2
:1010F0000021DA2000F0F2F90021122000F0EEF9D0
:101100000021DB2000F0EAF90021402000F0E6F9A0
:101110000021202000F0E2F90021022000F0DEF999
:1011200000218D2000F0DAF90021142000F0D6F91A
:101130000021A42000F0D2F90021A62000F0CEF971
:10114000FFF7BAFE0021AF2000F0C8F908BD00008B
:1011500000080140000C0140001001400014014053
:1011600010B50246012000E050430B1EA1F101041E
:10117000E1B2F9D110BD000070B500241CE004F10B
:10118000B001C8B2002100F0A9F90021084600F022
:10119000A5F90021102000F0A1F9002508E0084978
:1011A00001EBC501085D012100F098F9681CC5B28A
:1011B000802DF4DB601CC4B2082CE0DB70BD0000A5
:1011C0005C0100202DE9FE4F0746884692461C46EA
:1011D0000197CDF80080082C02D14FF006091FE0DE
:1011E0002046E31704EB5373DB1021464FEAE47CFF
:1011F00004EB5C7C4FEAEC0CA4EBCC0CBCF1000FD4
:1012000002D04FF0010C01E04FF0000C6344224685
:1012100004EBD27C4FEA6C0C03FB0CF303F0FF09E8
:10122000AAF12000C6B200255EE0082C07D106EB2B
:1012300046002F4901EB400010F805B01DE00C2CD2
:1012400007D106EB46002B4901EB800010F805B0F2
:1012500013E0102C05D1284800EB061010F805B05B
:101260000BE0182C07D106EBC600244901EB8000E7
:1012700010F805B001E0BDE8FE8F002002901CE0F0
:101280000BF0010028B1414638460C9AFFF76CFE7E
:1012900009E00C9808B9012000E000200246414610
:1012A0003846FFF761FE4FEA6B0B08F1010000F0D2
:1012B000FF080298401CC0B2029002980828DFDBA9
:1012C000781CC7B2082C0BD004EBD4714A100199DA
:1012D000791A8A4204D1019F00980830C0B2009068
:1012E000DDF80080681CC5B24D459EDB00BFC2E73B
:1012F0003C4A0008644C0008D8500008C856000852
:101300002DE9FC4F0746884616461C46BB46CDF8DD
:1013100004802046E21704EB5272D2102146E317F4
:1013200004EB5373DB10A4EBC3030BB1012300E008
:1013300000231A44624392B20092002555E0102C1B
:1013400005D12C4800EB461010F805A01BE0182C26
:1013500007D106EBC600284901EBC00010F805A034
:1013600011E0202C05D1254800EBC61010F805A08F
:1013700009E0402C05D1224800EB462010F805A0DA
:1013800001E0BDE8FC8F4FF000091CE00AF001000D
:1013900028B1414638460B9AFFF7E6FD09E00B9865
:1013A00008B9012000E00020024641463846FFF718
:1013B000DBFD4FEA6A0A08F1010000F0FF0809F1BD
:1013C000010000F0FF09B9F1080FDFDB781CC7B29C
:1013D000A7EB0B00A04204D15F4601980830C0B2D1
:1013E0000190DDF80480681C85B200988542A6DB78
:1013F00000BFC6E724640008C46600080C67000844
:101400008C6700082DE9FF4F82B0064691461F46C3
:10141000DDE90F4A4FF0000B082C01D14FF0020B11
:10142000002530E0781B401EC1B20A20FFF798FE6D
:10143000B9FBF0F00A21B0FBF1F201FB1208B8F1A0
:10144000000F0ED104EBD4710BEB610101FB0561C0
:10145000C8B223463022CDE900A40399FFF7B2FEBB
:101460000FE004EBD4710BEB610101FB0561C8B225
:1014700008F13001CAB22346CDE900A40399FFF771
:10148000A1FE681CC5B2BD42CCDB06B0BDE8F08F42
:101490002DE9F84106460F4614461D46DDF81C802E
:1014A00013E0CDF8008022782B4639463046FFF70E
:1014B00089FE082D02D1B01DC6B205E0284605EB15
:1014C000D07106EB6101CEB2641C2078202802DBCB
:1014D00020787E28E5DDBDE8F881000070B504467F
:1014E0000E4626B120211848FFF73CFC03E02021DE
:1014F0001548FFF735FC10211448FFF731FC002593
:1015000017E020211148FFF72BFC04F0800020B1E8
:1015100080210E48FFF726FC03E080210B48FFF7EF
:101520001FFC20210948FFF71DFC6006040E681C03
:10153000C5B2082DE5DB10210448FFF713FC20217C
:101540000148FFF70FFC70BD000C0140000801408E
:1015500001460020034A506820F440400843506090
:10156000704700000010024029B1064AD2690243C8
:10157000044BDA6104E0034AD2698243014BDA6129
:10158000704700000010024029B1064A92690243E8
:10159000044B9A6104E0034A92698243014B9A61C9
:1015A000704700000010024030B5002100220024E6
:1015B00000232D4D6D6805F00C0121B1042905D0E3
:1015C000082923D105E0294D056022E0274D05605B
:1015D0001FE0254D6D6805F47012234D6D6805F40C
:1015E0008034022505EB92421CB9214D554305601C
:1015F0000BE01D4D6D6805F400351DB11C4D5543C4
:10160000056002E0194D5543056002E0174D056085
:1016100000BF00BF144D6D6805F0F0010909154DBC
:101620006B5C0568DD4045600F4D6D6805F4E06159
:10163000090A104D6B5C4568DD4085600A4D6D6898
:1016400005F46051C90A0B4D6B5C4568DD40C5600F
:10165000054D6D6805F44041890B074D6B5CC5680D
:10166000B5FBF3F5056130BD0010024000127A00B1
:1016700000093D00DE000020EE00002010B500F063
:10168000BDF8041E6FD0682C56D012DC382C79D0EF
:1016900008DC022C36D0102C68D0182C52D0222C0A
:1016A0007BD12CE04A2C50D05A2C51D0622C74D1D2
:1016B0001BE0B02C43D008DC902C32D0982C0BD0FF
:1016C000A22C0DD0A82C68D127E0C22C1DD0E02C74
:1016D0001FD0E22C61D10DE031A001F053FB5DE0A1
:1016E00002210846FFF764FB58E001210220FFF7C2
:1016F0005FFB53E000210220FFF75AFB4EE0FFF7AB
:10170000DBFB4BE0FFF738FD48E027A001F03AFB98
:1017100044E026A001F036FB40E025A001F032FBBA
:101720003CE024A12448FEF728FD234803F002F9F9
:1017300022A001F027FB31E0FFF7F2FB2EE0FFF7DC
:10174000E1FB2BE001F06EF928E001F05BF925E008
:101750001423C8224FF4E1510320FFF7E1F90220DE
:101760001D4908701AE01AE00CE0FFE70A23C822BE
:101770004FF4E1510320FFF7D3F901201649087017
:101780000CE00AE00F23C8224FF4E1510320FFF7D9
:10179000C7F900201049087000E000BF00BF10BD6D
:1017A00048454C4C4F0D0A00360D0A00370D0A0013
:1017B000380D0A00313A0000F80000205468652016
:1017C00066696C65207363616E20697320636F6D59
:1017D000706C6574650D0A005100002010B5FFF7AC
:1017E0000FFA01F0DDF8FFF70FFB0122112102488B
:1017F00000F0D8FE10BD00000008004010B5002029
:10180000184B1B7803F040035BB3174B1B68190E92
:10181000154B1B68C3F30742D343DBB28B4211D194
:1018200081B9114B1B88C3F307210F4B1A78D3439F
:10183000DBB28B4200D108460A4B1B7823F04003F1
:10184000084C237020B1074B1B7803F0800343B989
:10185000044B1B7823F04003024C23700023034CFD
:10186000237010BD400000204400002048000020EC
:1018700021B1028842F04002028004E002884FF663
:10188000BF731A400280704770B505460C46164675
:1018900002211048FFF764FA032000F0A3F9C4F313
:1018A000074000F09FF9C4F3072000F09BF9E0B275
:1018B00000F098F904E0FF2000F094F928706D1C06
:1018C000301EA6F101018EB2F5D102210148FFF7C9
:1018D00049FA70BD000801402DE9F05F07460E4649
:1018E00014464FF00008C146C2460025AB4606F03C
:1018F000FF0ACAF10000C5B22046E11704EB1161EE
:10190000C1F30728E11704EB11610912A4EB0121CF
:1019100001F0FF09BAF1000F20D1B8F1000F05D195
:1019200022463146384600F0C5F864E009E04FF43D
:1019300080723146384600F0BDF806F5807607F52E
:101940008077B8F10000A8F1010101F0FF08EED1A5
:101950004A463146384600F0ADF84CE0B8F1000F89
:1019600018D1A94510DDA9EB050000F0FF0B2A46B0
:101970003146384600F09EF82E442F445A463146F0
:10198000384600F097F836E022463146384600F0F7
:1019900091F830E0601B84B22046E11704EB11613E
:1019A000C1F30728E11704EB11610912A4EB01212F
:1019B00001F0FF092A463146384600F07BF82E44F4
:1019C0002F4409E04FF480723146384600F072F837
:1019D00006F5807607F58077B8F10000A8F10101DF
:1019E00001F0FF08EED1B9F1000F04D04A463146AC
:1019F000384600F05FF8BDE8F09F000000B587B002
:101A000001210803FFF7C0FD01210420FFF7BCFD01
:101A10000220ADF8040003208DF8060010208DF898
:101A2000070001A92148FFF707F92020ADF80400BD
:101A300018208DF8070001A91C48FFF7FDF8402089
:101A4000ADF8040001A91948FFF7F6F88020ADF8B9
:101A5000040001A91548FFF7EFF802211348FFF72A
:101A600081F90020ADF808004FF48270ADF80A004B
:101A70000020ADF80C000220ADF80E000120ADF8FA
:101A800010004002ADF812000020ADF81400ADF8CF
:101A900016000720ADF8180002A9054800F026F945
:101AA00001210348FFF7E4FE07B000BD0008014034
:101AB0000030014070B505460C46164600F0E8F8C7
:101AC00002211548FFF74CF9022000F08BF8C4F30F
:101AD000074000F087F8C4F3072000F083F8E0B275
:101AE00000F080F8B6F5807F04DD4FF480760BA01F
:101AF00001F048F903E0287800F074F86D1C301EFE
:101B0000A6F101018EB2F6D102210348FFF72AF9AE
:101B100000F0A4F870BD0000000801403C3C2D46D8
:101B20004C4153482D4552524F522D3E3E2053506A
:101B3000495F464C4153485F50616765577269740D
:101B40006520746F6F206C61726765210A00000068
:101B50002DE9F041002400250026002702210F482E
:101B6000FFF7FEF89F2000F03DF8FF2000F03AF864
:101B70000546FF2000F036F80646FF2000F032F858
:101B8000074602210548FFF7EDF8280440EA062041
:101B900040EA07042046BDE8F0810000000801404B
:101BA00010B5044600F074F800F058F802210C4813
:101BB000FFF7D6F8202000F015F8C4F3074000F036
:101BC00011F8C4F3072000F00DF8E0B200F00AF8B5
:101BD00002210348FFF7C6F800F040F810BD0000EE
:101BE0000008014010B504464FF4805019490860C0
:101BF0000AE018490868411E164A116020B9002001
:101C000000F092F8C0B210BD0221134800F060F855
:101C10000028EED02146104800F066F84FF48050BE
:101C20000C4908600AE00B490868411E094A116026
:101C300020B9012000F078F8C0B2E4E7012106489D
:101C400000F046F80028EED0034800F04AF8C0B291
:101C5000D9E70000300000200030014010B500241A
:101C600002210A48FFF77CF80520FFF7BBFF00BF01
:101C7000FF20FFF7B7FF044604F001000028F7D16A
:101C800002210248FFF76EF810BD00000008014075
:101C900010B502210548FFF763F80620FFF7A2FF01
:101CA00002210248FFF75EF810BD00000008014065
:101CB00010B502210548FFF753F8AB20FFF792FF5C
:101CC00002210248FFF74EF810BD00000008014055
:101CD0000246002013890B400BB1012000E00020D8
:101CE00070470146888970478181704710B500228E
:101CF000028802F441520B884C8823438C8823438A
:101D0000CC8823430C8923434C8923438C89234368
:101D1000CC8923431A430280838B4FF2FF74234004
:101D200083830B8A038210BD10B50446214602A0AE
:101D300001F028F8002010BD3C3C2D464C41534892
:101D40002D4552524F522D3E3E2053504920B5C88A
:101D5000B4FDB3ACCAB1216572726F72436F646532
:101D6000203D2025640A000010B500F001F810BDE8
:101D70000CB50020019000903348006840F480309A
:101D80003149086000BF3048006800F4003000901E
:101D90000198401C0190009818B90198B0F5A06F07
:101DA000F1D12948006800F4003010B10120009002
:101DB00001E0002000900098012843D123480068EA
:101DC00040F01000214908600846006820F0070034
:101DD00008600846006840F0020008601A48406841
:101DE000194948600846406848600846406840F421
:101DF000806048600846406820F47C1048600846CF
:101E0000406840F4E81048600846006840F0807080
:101E1000086000BF0C48006800F000700028F9D08E
:101E20000948406820F003000749486008464068B8
:101E300040F00200486000BF0348406800F00C001A
:101E40000828F9D10CBD000000100240002002401B
:101E500030B50146481EB0F1807F01D3012030BD6E
:101E6000481E4FF0E022506150170F22002804DB7B
:101E700013071C0E094B1C5406E013071D0E084BDC
:101E800000F00F04241F1D5500BF00204FF0E0227A
:101E90009061072010610020E1E7000000E400E00D
:101EA00018ED00E010B504460C48FFF7D1FF002004
:101EB00008E000BF4FF0E021096901F480310029FA
:101EC000F8D0401CA042F4D34FF0E020006920F08D
:101ED00001004FF0E021086110BD00004019010031
:101EE0007047000010B51348006840F00100114928
:101EF000086008464068104908400E494860084696
:101F000000680E4908400B4908600846006820F444
:101F1000802008600846406820F4FE0048604FF4C6
:101F20001F008860FFF720FF4FF000600449086041
:101F300010BD0000001002400000FFF8FFFFF6FE99
:101F400008ED00E0F0B50C46154600220021068C95
:101F50004FF6FE773E400684028B018C4FF60C76DE
:101F600032407E1C06EA03162E433243104EB04226
:101F70000ED0104EB0420BD0B0F1804F08D00E4EB4
:101F8000B04205D00D4EB04202D00D4EB04206D147
:101F90004FF6FD76314044F00106314305E04FF63F
:101FA000F576314044F00106314302830184F0BDEF
:101FB000002C0140003401400004004000080040B3
:101FC000000C0040F0B50C4615460022002100260A
:101FD000078C4FF6EF7C07EA0C070784028B018C15
:101FE0004FF6FF7707EA041640F6FF473A404FF6F0
:101FF000FF7707EA03373A434FF6FF7707EA0527EB
:102000003A43114FB8420ED0104FB8420BD0B0F146
:10201000804F08D00E4FB84205D00E4FB84202D0C4
:102020000D4FB84206D14FF6DF77394046F0100722
:10203000394305E04FF65F77394044F010073943E4
:1020400002830184F0BD0000002C014000340140F7
:102050000004004000080040000C0040F0B50C46B1
:102060001546002200210026078C4FF6FF6C07EA78
:102070000C070784828B018C4FF6FF7707EA042652
:102080004FF60C773A404FF6FF7707EA03172F43D6
:102090003A43114FB8420ED0104FB8420BD0B0F1B6
:1020A000804F08D00E4FB84205D00E4FB84202D034
:1020B0000D4FB84206D14FF6FF57394046F48077AE
:1020C000394305E04FF2FF57394044F480773943F4
:1020D00082830184F0BD0000002C014000340140E7
:1020E0000004004000080040000C0040F0B50C4621
:1020F0001546002200210026078C4EF6FF7C07EAD9
:102100000C070784828B018C4FF6FF7707EA0436B1
:1021100040F6FF473A404FF6FF7707EA05273A4374
:102120004FF6FF7707EA03373A43114FB8420ED014
:10213000104FB8420BD0B0F1804F08D00E4FB842CC
:1021400005D00E4FB84202D00D4FB84206D14DF621
:10215000FF77394046F48057394305E047F6FF578B
:10216000394044F48057394382830184F0BD000034
:10217000002C0140003401400004004000080040F1
:10218000000C00402DE9FC410221254800F08AF9AD
:10219000234800F096F923490880214800F094F97B
:1021A000214908801F480088002832D01D48008837
:1021B000401CFEF729F804461B490988491C642283
:1021C00001FB02F0FEF720F805462146FDF7DEFF91
:1021D0001649086013480088401CFEF715F80446AD
:1021E00021461348FDF7D2FF1249086008460068EF
:1021F000FEF713F804460D460C480068FEF70DF88C
:10220000064632460B460CA0CDE9004500F0BAFD6B
:1022100004E000200549086006490860BDE8FC812B
:10222000002C0140060000200400002008000020CF
:10223000002474490C000020D5BCBFD5B1C8A3BA96
:1022400025302E32662525202020C6B5C2CAA3BA65
:1022500025302E3266487A0A0000000010B50121B0
:10226000614800F038F9F8B16048007800F080006B
:10227000D0B15E48007820F010005C490870084634
:10228000007800F00F0020B90846007840F04000C8
:1022900008705648007800F00F000E2805DA534801
:1022A0000078401C514908700AE05048007820F03E
:1022B00080004E4908700846007800F0F000087071
:1022C0001021494800F007F9002813D04FF400719D
:1022D0004748FEF73CFD70B10221434800F0C6FAC2
:1022E0000021414800F0DCFA4048007840F010003E
:1022F0003E49087070E03C4800F0E9F83D4908802C
:102300000021394800F0B2FA3848007800F0100097
:1023100000285BD03548007800F08000F0B33548E5
:102320000088B0F5967F0DDD32480088B0F5487F13
:1023300008DA3148006840002F4908600846006804
:10234000086043E02B480088B0F5AF6F0FDD2948E7
:102350000088B0F5E16F0ADA274800684000264996
:1023600008600846006840F0010008602EE021483F
:10237000008840F69801884228DD1E48008840F613
:102380002821884222DA1D480078401C1B49087029
:102390001648007800F0F000144900E001E00870F1
:1023A00014E01448008841F2680188420EDD1148AB
:1023B000008841F25C21884208DA0C48007840F03D
:1023C00080000A49087000200C490870074800780E
:1023D00020F01000054908701121034800F062F850
:1023E000FFF74CF910BD000000080040400000203D
:1023F000000C014042000020440000204800002062
:1024000010B501211B4800F066F840B11A488088D9
:10241000401C194988800121164800F043F8042126
:10242000144800F058F820B31348407878B90021D8
:10243000104800F035FA00200F49888048800221BA
:102440000C4800F061F901200B4948700DE0094883
:1024500000F03AF8084948800021064800F054F995
:10246000002005494870012008700421014800F04F
:1024700019F810BD000C00405400002010B50121D7
:10248000064800F028F840B105480088401C04497F
:1024900008800121014800F005F810BD001000403F
:1024A00002000020CA430282704721B1028842F034
:1024B0000102028004E002884FF6FE731A40028097
:1024C00070470146888E70470146088F7047014665
:1024D000B1F84000704730B50246002000230024C8
:1024E000158A05EA0103958905EA010413B10CB1C7
:1024F000012000E0002030BD70B505460C462448A0
:1025000085420ED0234885420BD0B5F1804F08D0CC
:102510002148854205D02148854202D02048854285
:1025200000D100E000BF208850B92389A2886188CB
:102530002846FFF707FDE188284600F0B3F925E0BB
:10254000208804280AD12389A28861882846FFF7B9
:1025500039FDE188284600F0AEF917E02088082808
:102560000AD12389A28861882846FFF777FDE18890
:10257000284600F0ADF909E02389A2886188284641
:10258000FFF7B4FDE188284600F0ABF970BD00000C
:10259000002C0140003401400004004000080040CD
:1025A000000C00401AB183890B43838102E08389C8
:1025B0008B4383817047000070B500240022002304
:1025C000058C4FF6FE7635400584028C8388048B9B
:1025D0004FF68F752C40B51E2C400D882C43751E70
:1025E0002A400D892A434D882A43144DA8420BD016
:1025F000134DA84208D0134DA84205D0124DA84251
:1026000002D0124DA84213D14FF6F7752A404D89DA
:102610002A434FF6FB752A408D882A434FF6FF6503
:102620002B404FF6FF552B408D892B43CD892B43F3
:1026300083800483CD888586028470BD002C014090
:102640000034014000400140004401400048014086
:102650000A460021018B4FF6F7731940114301839D
:102660007047000070B5002400220023058C4FF64F
:10267000EF7635400584028C8388048B48F6FF751D
:102680002C404FF6FF452C400D884FF6FF7606EAAA
:1026900005252C434FF6DF752A400D8906EA0515FE
:1026A0002A434D8806EA05152A43154DA84202D053
:1026B000144DA8421DD14FF67F752A404D894FF623
:1026C000FF7606EA05152A434FF6BF752A408D8826
:1026D00006EA05152A434FF6FF352B404FF2FF75EA
:1026E0002B408D8906EA85052B43CD8906EA8505B1
:1026F0002B4383800483CD880587028470BD00004E
:10270000002C0140003401400A460021018C4FF6A4
:10271000DF7319404FF6FF7303EA02131943018474
:1027200070470A460021018B4FF2FF7319404FF6A4
:10273000FF7303EA022319430183704770B5002435
:1027400000220023058C4FF6FF6635400584028C7D
:102750008388848B4FF68F752C404FF6FC752C4088
:102760000D882C434FF6FF552A400D894FF6FF7612
:1027700006EA05252A434D8806EA05252A43154D14
:10278000A84202D0144DA8421DD14FF2FF752A4035
:102790004D894FF6FF7606EA05252A434FF6FF35A9
:1027A0002A408D8806EA05252A434EF6FF752B4000
:1027B0004DF6FF752B408D8906EA05152B43CD8913
:1027C00006EA05152B4383808483CD8885870284A0
:1027D00070BD0000002C0140003401400A46002179
:1027E000818B4FF6F77319401143818370470000C6
:1027F00070B5002200230024058C4EF6FF7635408C
:102800000584038C8488828B48F6FF752A404FF636
:10281000FF452A400D884FF6FF7606EA05252A4334
:102820004DF6FF752B400D8906EA05352B434D8883
:1028300006EA05352B430B4DA84202D00A4DA842AB
:1028400008D14BF6FF752C408D894FF6FF7606EACE
:1028500085152C4384808283CD88A0F84050038462
:1028600070BD0000002C0140003401400A460021E8
:10287000018C4DF6FF7319404FF6FF7303EA0233E4
:102880001943018470470A460021818B4FF2FF7380
:1028900019404FF6FF7303EA0223194381837047FF
:1028A00081847047028B4FF6F3731A400283028BC8
:1028B0000A4302837047028B4FF2FF331A400283B0
:1028C000028B4FF6FF7303EA01231A43028370471A
:1028D000828B4FF6F3731A408283828B0A43828382
:1028E0007047828B4FF2FF331A408283828B4FF600
:1028F000FF7303EA01231A43828370470022028890
:102900001D4B98420ED01D4B98420BD0B0F1804F1A
:1029100008D01B4B984205D01A4B984202D01A4B54
:10292000984204D14FF68F731A404B881A43174BC5
:10293000984207D0164B984204D04FF6FF431A40F6
:10294000CB881A4302808B8883850B8803850A4BCA
:1029500098420BD0094B984208D00E4B984205D0B4
:102960000D4B984202D00D4B984201D10B7A038651
:102970000123838270470000002C01400034014095
:102980000004004000080040000C0040001000401F
:102990000014004000400140004401400048014054
:1029A00000B587B001210420FEF7DEFD42F20F7072
:1029B000ADF814004720ADF810000020ADF8160067
:1029C000ADF8120004A90E48FFF798FF0C20ADF8EF
:1029D00004000020ADF806000120ADF8080000203A
:1029E000ADF80A000320ADF80C0001A90448FFF778
:1029F00083FD01210248FFF758FD07B000BD00002C
:102A0000000800400648007818B902200449087000
:102A100004E003480078401E014908707047000038
:102A20005000002006480078022803D10020044905
:102A3000087004E002480078401C014908707047A3
:102A40005000002010B540F22551064800F097F8DC
:102A500038B1044800F070F9C4B22146014800F0D2
:102A600070F910BD0038014021B1828942F4005252
:102A7000828104E082894DF6FF731A40828170479B
:102A800070B586B004460D4616462F4951F824000D
:102A90000121FEF779FD34B92C4951F824000121B8
:102AA000FEF772FD11E0012C01D1012000E00020B1
:102AB000022C01D1012100E00021084328B1234963
:102AC00051F824000121FEF74FFD214830F8140091
:102AD000ADF8140018208DF8170003208DF81600AB
:102AE0001C4951F8240005A9FEF7A6F81A4830F849
:102AF0001400ADF8140004208DF81700174951F8A0
:102B0000240005A9FEF798F801960020ADF808000A
:102B1000ADF80A00ADF80C00ADF810000C20ADF8CF
:102B20000E000F4951F8240001A900F077F8012D9B
:102B300002D1204600F0DEF8094951F824000121B5
:102B4000FFF792FF06B070BD8400002090000020C7
:102B5000A80000209C000020BC000020B000002045
:102B6000C400002002460020B1F5007F00D100BF64
:102B700013880B400BB1012000E00020704770B5B6
:102B80000246002400230025002040F66A16B142C8
:102B900000D100BFC1F3421501F01F03012606FA60
:102BA00003F3012D02D19689334006E0022D02D1B4
:102BB000168A334001E0968A33400C12012606FA49
:102BC00004F41688344013B10CB1012000E0002059
:102BD00070BDF0B50346002400260025002040F615
:102BE0006A17B94200D100BF1846C1F3421401F080
:102BF0001F06012707FA06F5012C01D10C3004E06D
:102C0000022C01D1103000E014301AB107682F43B4
:102C1000076002E00768AF430760F0BD2DE9F047A9
:102C200086B005460E460024A24600BFA1460027F6
:102C3000B08900B100BF2F462C8A4CF6FF700440CB
:102C4000F08804432C82AC894EF6F3100440B0881F
:102C500031890843718908430443AC81AC8A4FF63B
:102C6000FF400440B0890443AC8201A8FEF79CFCFD
:102C70001F48874202D1DDF810A001E0DDF80CA06A
:102C8000A88900F4004040B10AEBCA0000EB0A102A
:102C900031684900B0FBF1F807E00AEBCA0000EB2D
:102CA0000A1031688900B0FBF1F86420B8FBF0F03D
:102CB00004012009642101FB1089A88900F4004067
:102CC00040B1322000EBC900B0FBF1F000F007008A
:102CD000044308E0322000EB09106421B0FBF1F05E
:102CE00000F00F0004432C8106B0BDE8F08700001F
:102CF0000038014038B504464FF4A060FEF7D2F822
:102D00000B48005D8DF8000001208DF801008DF862
:102D100002008DF803006846FEF78CF8054951F86B
:102D20002400012240F22551FFF753FF38BD000077
:102D3000D0000020C400002001468888C0F30800AD
:102D40007047C1F3080282807047000000200149EB
:102D500008607047082C004010B50548007800F066
:102D600009F8FFF7F3FF02210846FEF721F810BD2E
:102D7000D300002000F07F01014A1160704700007D
:102D8000002C00400FB4054B10B503A9044A02986B
:102D900000F0EEF810BC5DF814FB00007142000872
:102DA000F40000200FB4084B10B504A902AA039840
:102DB00000F0DEF8044602A9002000F05CFC20468A
:102DC00010BC5DF814FB00007736000802E008C86C
:102DD000121F08C1002AFAD170477047002001E095
:102DE00001C1121F002AFBD1704700002DE9FF5FCF
:102DF00082B00021DDE90430020DDDF840B003436C
:102E000018D044F61050A2F2FF3242431514119824
:102E100001281FD0A5EB0B00401C5FEA000A4FF011
:102E200000064E4FDFF83891B046504615D5CAF12E
:102E3000000413E0119801244AA3012801D16FEA8C
:102E40000B010298119AC0E90031C0E9024206B0B4
:102E5000BDE8F09FCBF10000DFE704460021404AC7
:102E6000491842EB0450CDE9001012E0E00707D00A
:102E700032463B4640464946FDF707FB80468946B9
:102E800032463B4610461946FDF7FFFA06460F4606
:102E90006410002CEAD1DDE90401DDE90023BAF178
:102EA000000F06DAFDF7F1FA42464B46FDF7EDFA60
:102EB00005E0FDF75CFB42464B46FDF758FB044638
:102EC0000E460022284BFDF7D9FB03D84FF0FF3008
:102ED000014607E00022254B20463146FDF72EFA39
:102EE000FDF7B4FB102409E0002C0ADB0A220023C2
:102EF000FDF7BCF9039B30321A55641E50EA0102FB
:102F0000F2D1641C039AC4F111031444119A012AEA
:102F100003D0012208430DD10AE0084304D0002069
:102F20004FF0110B119072E7A3EB0B056D1E0DE036
:102F30005B4504DD4FF0000205F1010504E003DA12
:102F40004FF00002A5F10105002AECD0029811997A
:102F5000C0E90231C0E9004579E7000000001440F3
:102F60000000F03F300000000000F0430000E03FB0
:102F70002DE9FF4F95B09A46884606460025EEE1BA
:102F8000252877D100242746F94A0121039400E03F
:102F9000044316F8013F203B01FA03F01042F7D139
:102FA00030782A2811D06FF02F033078A0F130024A
:102FB000092A16D8039A44F0020402EB820203EBBA
:102FC00042021044761C0390EFE758F8042B03925A
:102FD000002A03DA504244F40054039044F00204FF
:102FE000761C30782E2816D116F8010F44F0040410
:102FF0002A280DD06FF02F023078A0F13003092B72
:1030000009D807EB870302EB4303C718761CF3E7E5
:1030100058F8047B761C30786C280FD006DC4C28DE
:1030200017D068280DD06A2814D104E0742810D075
:103030007A280FD10DE044F400140AE044F480141F
:1030400001E044F440147278824202D104F5801405
:10305000761C761C307866280BD013DC582877D085
:1030600009DC002875D04528F6D04628F4D047283A
:103070001AD193E118E0632835D0642879D0652807
:1030800012D18BE1702873D008DC6728F1D0692851
:103090006FD06E280DD06F2806D1ACE073282CD0ED
:1030A000752874D0782853D05246179990476D1CD4
:1030B00054E1C4F30250022809D003280DD0D8F8F7
:1030C000001004280DD00D6008F1040846E1D8F87E
:1030D0000010EA17C1E90052F6E7D8F800100D8099
:1030E000F2E70D70F0E718F8041B8DF800100020CF
:1030F0008DF80100EB46012003E058F804BB4FF0C7
:10310000FF3061074FF0000102D40DE009F1010129
:103110008946B9420FDA8145F8DB1BF8091000290E
:10312000F4D108E009F1010189468142FADB1BF87C
:1031300009100029F6D103985346A0EB0907214650
:103140003846179A00F080FA284400EB090507E09A
:1031500044E008E10DE01BF8010B52461799904737
:10316000B9F10109F7D2534621463846179AF2E0E1
:1031700039E00A21C4F302524FF0000B0091022AF9
:1031800006D058F8040BC117032A09D00AE023E03F
:1031900008F1070020F00702F2E80201904605E07E
:1031A00000B2C117042A01D140B2C117002906DAC2
:1031B0000A460021404261EB02012D2202E0220575
:1031C00004D52B228DF80420012203E0E20701D070
:1031D0002022F7E7914657E00A2100E010214FF046
:1031E000000B00910BE010214FF0000B44F00404A1
:1031F0000827009103E008204FF0000B0090C4F373
:103200000252022A05D058F8040B0021032A08D0E4
:1032100008E008F1070020F00702F2E802019046FA
:1032200003E080B2042A00D1C0B24FF000092207A7
:103230002AD53278702A07D0DDF800C08CF0100C47
:103240005CEA0B0C05D00EE040228DF80420012230
:1032500008E050EA010306D030238DF804308DF8E1
:10326000052002229146009B83F0080353EA0B03DA
:103270000AD150EA010201D1620705D530228DF84A
:1032800004204FF001097F1E3278582A04D039A259
:103290000C920CAA02920BE03BA2F9E75B46009A63
:1032A000FCF7E4FF0C9B9B5C029A521E0292137087
:1032B00050EA0102F2D1029804A9081A00F1200B89
:1032C000600702D524F4803400E001275F4502DD69
:1032D000A7EB0B0000E0002000EB0B01009003982F
:1032E0004944401A0390E00306D453462146179AF6
:1032F000039800F0A9F90544002706E001A852460A
:10330000C05D179990476D1C7F1C4F45F6DBE003AD
:103310000CD553462146179A039800F095F90544B9
:1033200004E030205246179990476D1C0099481EC2
:1033300000900029F5DC08E00298029952460078D6
:10334000491C0291179990476D1CBBF10001ABF12C
:10335000010BF1DC5BE100F065F90544761C307887
:1033600000287FF40DAE19B02846BDE8F08F0000AC
:10337000092801003031323334353637383961624B
:10338000636465660000000030313233343536370F
:10339000383941424344454600000000600700D4EC
:1033A000062708F1070020F00700F0E80223804616
:1033B00003F0004C5FEA0C0001D097A009E0200563
:1033C00001D596A005E0E00701D095A001E0AFF29D
:1033D0004C001390307823F0004365280CD006DCB5
:1033E000452809D046281DD047287FD13BE06628D4
:1033F00018D067287AD136E00021112F01DB112087
:1034000000E0781CCDE9000104A90CA8FFF7EEFC50
:10341000DDE90D010C9A4FF0000B07F10109109244
:1034200000914EE04FF000400097CDE9011004A953
:103430000CA8FFF7DBFCDDE90D020C9B0F994FF0A8
:10344000000B91461093009211B9791C00EB010911
:10345000B7EB090003D4C0F1FF3B07F10109A9EB69
:103460000700019042E0012F00DA01270021112F0F
:1034700001DD112000E03846CDE9000104A90CA8C7
:10348000FFF7B4FCDDE90D010C9A00914FF0000B41
:10349000B946109221070FD4009A4A4503DA9146A3
:1034A00001E0A9F10109B9F1010F05DD109AA9F1B7
:1034B0000101515C3029F4D0B84202DA10F1040F56
:1034C00003DA0121CDE9011010E0002803DC834478
:1034D000A9EB000102E0411C494500DD8946A0EB53
:1034E0000B00401C01904FF000400290200705D4D3
:1034F0000198484502DB4FF0FF30019000208DF825
:103500004B0002980DF14B07B0F1004F25D002207F
:103510000C902B200D90029800280CDA404202906B
:103520002D200D9007E00A210298FCF789FE30312A
:10353000029007F8011D0C99481E0C900029F2DC3E
:1035400002980028EFD1791E0D980870307800F0AD
:10355000200040F0450007F8020D11A8C01BC01D57
:1035600002901398007800B1012000EB0901019846
:1035700001EBE071029801440398401A401E039049
:10358000E00306D453462146179A039800F05CF8EE
:1035900005441398007818B15246179990476D1C4E
:1035A000E00323D553462146179A039800F04CF8C0
:1035B00005441BE0BBF1000F07DB0098584504DD14
:1035C0001098179910F80B0001E017993020524617
:1035D000904701980BF1010B401E05F10105019088
:1035E00004D12E205246179990476D1CB9F1000165
:1035F000A9F10109DEDC05E017F8010B5246179925
:1036000090476D1C0299481E02900029F4DC534635
:103610002146179A03989EE62D0000002B0000001B
:10362000200000002DE9F041044600251E46174603
:10363000880404D405E039462020B0476D1C641E80
:10364000F9D52846BDE8F0812DE9F0410446002572
:103650001E469046C80301D5302700E02027880485
:1036600004D505E041463846B0476D1C641EF9D5C7
:103670002846BDE8F0810A68531C0B601070704743
:1036800070B504460D4600202071401EE0622946B8
:10369000204601F070F808B1032070BD94F82E1296
:1036A00094F82F0241EA00204AF65521884201D0C1
:1036B0000220F2E794F86900010694F8680041EAF4
:1036C000004194F8670041EA002094F8661008432E
:1036D00020F07F400D49884201D10020DDE794F8B9
:1036E0008500010694F8840041EA004194F88300C3
:1036F00041EA002094F88210084320F07F400349FB
:10370000884201D10020C8E70120C6E746415400A5
:10371000024600E0521C107810B110788842F9D1AE
:10372000107870470246891E5069801E884201D871
:10373000002070479378906A01FB0300F9E72DE9B8
:10374000F04704468946B9F1000F06D1E76817B182
:103750006069B84215D8012713E04946204600F0B9
:1037600099FD0646022E02D20120BDE8F087701CAA
:1037700008B93046F9E76069B04201D93046F4E74C
:103780004F463D4600BF6D1C6069A84204D8022523
:10379000BD4201D90020E8E72946204600F07AFD25
:1037A000064606B909E0701C08B1012E01D1304669
:1037B000DBE7BD42E7D10020D7E700BF6FF07042E2
:1037C0002946204600F0F1FF8046B8F1000F08D1ED
:1037D000B9F1000F05D02A464946204600F0E5FF22
:1037E0008046B8F1000F0BD1E5602069401C78B12C
:1037F0002069401E2061607940F00100607107E09F
:10380000B8F1010F02D14FF0FF3000E00120054672
:103810002846AAE72DE9F35F0198D0F8009001E06F
:1038200009F1010999F800002F28F9D099F8000052
:103830005C28F5D0009886690B222021304600F0E4
:1038400090FF00252F46AB464FF0080A00BF5846B0
:103850000BF1010B19F80040202C03DD2F2C01D0B7
:103860005C2C00D153E02E2C01D057450DD3BAF17A
:10387000080F01D12E2C02D00620BDE8FC9F08279E
:103880004FF00B0AA806050EE1E7802C01DB45F09E
:103890000305812C20DBFE2C1EDC58460BF1010BAE
:1038A00019F80080B8F1400F02DBB8F17E0F05DD9A
:1038B000B8F1800F06DBB8F1FE0F03DCAAF10100BE
:1038C000B84201D80620D8E738467F1C3454384621
:1038D0007F1C06F8008019E0214620A0FFF718FFA2
:1038E00008B10620C9E7412C04DB5A2C02DC45F064
:1038F000020508E0612C06DB7A2C04DC45F00105AA
:10390000A4F12000C4B238467F1C34549FE700BFA6
:1039100009EB0B0101980160202C01DC042000E080
:10392000002004460FB90620A7E73078E52801D12A
:1039300005203070BAF1080F01D1A806050E05F078
:103940000300012801D144F0100405F00C00042804
:1039500001D144F00804F47200208EE7222A2B2CB7
:103960003A3B3C3D3E3F5B5D7C7F00002DE9F041F2
:1039700004460021204600F0FDF8054615B1284612
:10398000BDE8F08100BF2169206800F0F4FE054623
:1039900005B116E0666937780FB9042511E0F07AB1
:1039A00000F0080030B90B223046A16900F0C6FED5
:1039B00000B906E00021204600F006F80546002D7B
:1039C000E1D000BF2846DBE72DE9F04104468846F8
:1039D000E088461CB0B208B1206910B90420BDE8E7
:1039E000F08121684889C11700EBD1614911B6FB0C
:1039F000F1F201FB1261002971D12069401C2061A4
:103A0000E06828B920680089B04268D80420E6E759
:103A100021684889C11700EBD1614911B6FBF1F16A
:103A200022689278521E1140002958D1E16820681E
:103A300000F030FC0546012D01D80220CFE7681CBC
:103A400008B90120CBE720684069A84241D8B8F105
:103A5000000F01D10420C2E7E1682068FFF76FFE84
:103A600005460DB90720BAE7012D01D10220B6E7BE
:103A7000681C08B90120B2E7206800F09DFF08B17A
:103A80000120ACE721684A8901F13000002100F0F3
:103A900068FE29462068FFF745FE2168C8620027B6
:103AA0000EE0012021680871206800F085FF08B150
:103AB000012094E72068C06A401C2168C8627F1C0E
:103AC00020688078B842ECD82068C06AC01B2168A2
:103AD000C862E56029462068FFF724FE2061E68081
:103AE00021684889C11700EBD1614911B6FBF1F299
:103AF00001FB12612268303202EB4111616100204A
:103B00006DE72DE9F04704468946042528E0216940
:103B1000206800F030FE054605B124E0D4F814809A
:103B200098F800600EB904251DE098F80B0000F02D
:103B30003F07E52E0DD02E2E0BD00F2F09D027F0EA
:103B40002000082801D1012000E00020484500D1D4
:103B500009E000212046FFF737FF054605B102E0E6
:103B600020690028D3D100BF0DB100202061284674
:103B7000BDE8F0872DE9F04104460E46E680A568D1
:103B8000012D03D020684069A84202D80220BDE878
:103B9000F0812DB920680078032801D12068456A9A
:103BA00045B920680089B04201D80220EFE72068BB
:103BB000476A24E021684889C11700EBD1614911A7
:103BC0002268927801FB02F812E02946206800F092
:103BD00061FB0546681C08B90120D8E7022D03D314
:103BE00020684069A84201D80220D0E7A6EB080669
:103BF0004645EAD229462068FFF794FD0746E5606E
:103C00000FB90220C3E721684889C11700EBD161D1
:103C10004911B6FBF1F13944216121684889C11786
:103C200000EBD1614911B6FBF1F201FB1261226890
:103C3000303202EB411161610020A8E710B5044663
:103C400014B1012C0AD101E0284610BDFDF7D6FEC3
:103C5000FEF72EF8012000F03FF8F6E70120F4E728
:103C600010B5034613B1012B18D101E0204610BD59
:103C7000012904D0022906D003290BD107E04FF413
:103C80008060106006E04FF48050108002E0012058
:103C9000108000BF00BF00242046E8E70420E6E7CC
:103CA0002DE9F04106460F4614461D4616B1012E79
:103CB00010D102E04046BDE8F08100BF4FF6FF7032
:103CC00000EA053221033846FDF7DEFD4FF000081B
:103CD0004046F0E70420EEE770B5054615B1012D2A
:103CE0000CD101E0204670BDFDF732FF0449884247
:103CF00001D1002400E001242046F4E70120F2E78E
:103D00001640EF002DE9F04106460F4614461D46C9
:103D100016B1012E13D102E04046BDE8F08100BF8C
:103D20002003FDF73DFF4FF6FF7000EA0532210347
:103D30003846FDF7D1FD4FF000084046EDE704207E
:103D4000EBE733B585B0044614B9092007B030BDA0
:103D5000002206A904A800F057F805461DBB0498E8
:103D6000206001A8A0612046069900F039FA0546B6
:103D7000B5B9606958B16069C07A00F0100028B127
:103D80006169049800F081FBA06000E005253DB961
:103D90000498C088A08000212046FFF7EBFE05466E
:103DA000042D00D105250DB1002020602846CDE767
:103DB000FEB505460E46284600F027FE04460CBB1D
:103DC0002EB900212846FFF7D5FE04461AE0C5F8B3
:103DD00018D000212846FFF794FE0446042C02D197
:103DE0000020286100246CB93146284600F0F1FA21
:103DF00000212846FFF7E8FD0446042C02D10020EC
:103E0000286100242046FEBD2DE9F74F8AB000212D
:103E10000A9801600B9800F013FB0990099800289C
:103E200003DA0B200DB0BDE8F08FE949099851F88D
:103E300020400CB90C20F5E70A980460207878B18E
:103E40006078FFF749FF814609F0010040B90C98FE
:103E500020B109F0040008B10A20E3E70020E1E7FF
:103E600000202070099860706078FFF7E7FE8146B7
:103E700009F0010008B10320D4E70C9820B109F043
:103E8000040008B10A20CDE7607804F10A0202219B
:103E9000FFF7E6FE38B96089B0F5007F03DB608983
:103EA000B0F5805F01DD0120BCE7002739462046E0
:103EB000FFF7E6FB0546012D01D09DBB32E0002651
:103EC0001AE004F5F77000EB061898F8040070B1DA
:103ED00098F80B00010698F80A0041EA004198F8AA
:103EE000090041EA002098F80810084300E000208B
:103EF00002A941F82600761C042EE2D3002606B162
:103F0000761E00BF02A850F8267027B13946204619
:103F1000FFF7B6FB00E0022005461DB1701C064607
:103F20000428EFD3032D01D101207BE70DB10D2033
:103F300078E73B20015D94F83C0041EA002061896C
:103F4000884201D00D206DE74620015D94F84700BE
:103F500041EA002ABAF1000F0ED194F85700010689
:103F600094F8560041EA004194F8550041EA0020D7
:103F700094F8541040EA010AC4F818A04020005DEB
:103F8000E070E078012804D0E078022801D00D200C
:103F900048E7E0780AFB00FA3D20005DA070A078B9
:103FA00018B1A078411E084008B10D203AE7412021
:103FB000015D94F8420041EA002020816089C11728
:103FC00000EBD1614911228992FBF1F301FB13212E
:103FD00009B10D2026E74320015D94F8440041EA31
:103FE00000200890089870B994F85300010694F8DE
:103FF000520041EA004194F8510041EA002094F84F
:104000005010084308903E20015D94F83F0041EABB
:1040100000200190019808B90D2003E76089C117BD
:1040200000EBD1614911228992FBF1F201995144CF
:1040300011440791DDE90710884201D20D20F1E615
:10404000DDE90710401AA178B0FBF1FBBBF1000FCE
:1040500001D10D20E6E6012540F6F670834500D338
:1040600002254FF6F670834500D303250BF10200BD
:104070006061E76101983844206207983844A06283
:10408000032D16D1208908B10D20CBE694F85F00EE
:10409000010694F85E0041EA004194F85D0041EAAF
:1040A000002094F85C10084360626069800006900C
:1040B00014E0208908B90D20B4E6206A50446062FB
:1040C000022D02D16069400007E0207D00F0010070
:1040D000616901EB410100EB510006906089401ECF
:1040E000069908446189B0FBF1F0A169884201D9C1
:1040F0000D2097E64FF0FF302061E0608020607176
:10410000032D5AD194F8601094F8610041EA002020
:10411000012852D1791C204600F02DFBE8BB00207D
:10412000607194F82E1294F82F0241EA00204AF6AA
:104130005521884241D13320005D01063220005DC7
:1041400041EA00413120005D41EA002094F830103E
:1041500008432049884230D194F81702010694F8A8
:10416000160241EA004194F8150241EA002094F851
:1041700014120843184988421FD194F81B02010603
:1041800094F81A0241EA004194F8190241EA002029
:1041900094F818120843206100E00EE094F81F0222
:1041A000010694F81E0241EA004194F81D0241EA1A
:1041B000002094F81C120843E0602570074800882E
:1041C000401C80B205490880E08000202AE60000FB
:1041D000D40000205252614172724161DC00002023
:1041E0002DE9F3410446019800782F2803D0019867
:1041F00000785C2802D10198401C01900020A0604A
:1042000001980078202807D200212046FFF7B2FC51
:1042100005460020606128E000BF01A92046FFF7A5
:10422000F9FA054605B11FE02046FFF79FFB05465A
:10423000A069C67A3DB1042D04D100BF06F0040088
:1042400000B9052510E006F0040000B10CE0676934
:10425000F87A00F0100008B9052505E03946206815
:1042600000F013F9A060D8E700BF2846BDE8FC8144
:1042700070B504460D46E1B20548FEF762FD00BF89
:1042800080210348FEF76EFC0028F9D0204670BD5F
:10429000003801402DE9F05F04460D46022D02D39F
:1042A0006069A84202D84FF001098FE04FF0FF3952
:1042B0002078012804D002283CD003287ED157E082
:1042C0002F4607EB57076089B7FBF0F0216A00EB38
:1042D000010A5146204600F04EFA00B175E038461A
:1042E0007F1C6189B0FBF1F201FB120104F1300087
:1042F00010F801806089B7FBF0F0216A00EB010A39
:104300005146204600F037FA00B15EE06089B7FB05
:10431000F0F100FB117104F13000405C48EA002824
:1043200005F0010010B14FEA181001E0C8F30B00CE
:1043300081464AE0B4F80AA00AEBDA704010B5FBF7
:10434000F0F0216A00EB010B5946204600F013FA09
:1043500000B13AE068006189B0FBF1F201FB1201A3
:1043600004F130000E183078717840EA01292CE011
:10437000B4F80AA04FEAEA700AEB90708010B5FB1F
:10438000F0F0216A00EB010B5946204600F0F3F9EA
:1043900000B11AE0A8006189B0FBF1F201FB120143
:1043A00004F130000E18F0780006B17840EA0140C0
:1043B000717840EA01203178084300E002E020F003
:1043C000704902E04FF0010900BF00BF4846BDE858
:1043D000F09FF0B5044601F109022669002E2CD0A9
:1043E0006069002310E01E465B1C855D202D00D116
:1043F0000AE0052D00D1E525092B02D12E2602F871
:10440000016B02F8015B00BF0B2BECD3C67A0E7276
:10441000C67F3706867F47EA0647467F47EA062675
:10442000077F3E430E60077E467E47EA06268E8063
:10443000877DC67D47EA0626CE8000261670F0BD31
:1044400070B502464FF0FF301568E5B1116800E025
:10445000491C0D78212D02D30D783A2DF8D10D7815
:104460003A2D0FD1146814F8015BA5F130030A2B23
:1044700007D28C4205D1022B03D218464D1C294687
:10448000156070BD002000BFFBE710B502468C7EB2
:10449000CB7E44EA03201378032B05D10C7D4B7DA2
:1044A00044EA032340EA034010BD00001CB54FF46A
:1044B000E13200210846FEF7E3FAFDF78FF9782391
:1044C000F02201210320FCF72BFBFCF789FD0020E3
:1044D000FCF70AFD0020FCF731FDFCF781FA12E140
:1044E0008948018889A0FEF74DFCFCF7E5FC8A4865
:1044F0000078002873D18948008840F2EE61081ADC
:10450000052190FBF1F0193084B2012010230F2215
:10451000242100900020FCF7F3FE012010231A460E
:10452000242100901220FCF7EBFE012010237CA236
:10453000242100902620FCF7ABFF0120102102234C
:104540002246CDE9001024213820FCF75BFF012032
:1045500010231122242100904A20FCF7D1FE0120D3
:10456000102370A2242100905020FCF791FF01201D
:1045700010230022114600901046FCF7C1FE0120D6
:1045800010230246002100901220FCF7B9FE664875
:10459000007880B9012010230522002100902420FA
:1045A000FCF7AEFE012010230622002100903620E9
:1045B000FCF7A6FE28E05C480078012810D1102303
:1045C0000E22002100902420FCF79AFE01201023E7
:1045D0000422002100903620FCF792FE14E053E004
:1045E0005148007802280FD1012010230D2200210C
:1045F00000902420FCF784FE0120102304220021D7
:1046000000903620FCF77CFE0120102307221221A7
:1046100000900020FCF774FE0120102308221221D4
:1046200000900846FCF76CFE0220FCF7ADFB012869
:104630000FD110230922122100902420FCF760FEE4
:10464000012010230A22122100903620FCF758FE88
:104650000FE0012010230B22122100902420FCF7F0
:104660004FFE012010230C22122100903620FCF76F
:1046700047FEFCF781FD012010232CA23021009081
:104680006C20FCF705FF3BE023480078012821D18E
:1046900010231222002100901046FCF731FE012069
:1046A00010231322002100902420FCF729FE012072
:1046B00010231422002100903620FCF721FE012057
:1046C00010231BA2302100906C20FCF7E1FEFCF7C8
:1046D00053FD15E010480078022811D10120102365
:1046E00014A2122100905020FCF7D2FE01201023CA
:1046F00011A2242100906C20FCF7CAFEFCF73CFDBF
:104700006420FDF7CFFBEBE6000000204144433A74
:1047100025640D0A00000000500000203C0000202D
:104720003A0000004300000051000020503000001B
:1047300050310000454E440050320000F0B50346B1
:104740001C460D46002000BF161EA2F1010207D034
:1047500014F8017B15F801CBA7EB0C06301EF3D043
:10476000F0BD30B5034601E003F8011B141EA2F1B1
:104770000102F9D130BD70B504460D460026E06A4D
:10478000A84210D0204600F017F906465EB96078BE
:1047900001232A4604F13001FFF782FA10B14FF0ED
:1047A000FF350126E562304670BD2DE9F05F044615
:1047B0000E461746022E02D36069B04202D84FF06F
:1047C0000208B3E02078012804D0022852D0032840
:1047D00072D172E0B14609EB59096089B9FBF0F07A
:1047E000216A00EB010A51462046FFF7C4FF8046CC
:1047F000B8F1000F00D098E0484609F1010961893D
:10480000B0FBF1F201FB120104F130000D1806F0CB
:10481000010020B1F9B2287861F31F1000E038469A
:104820002870012020716089B9FBF0F0216A00EB4B
:10483000010A51462046FFF79EFF8046B8F1000F5F
:1048400000D072E06089B9FBF0F100FB119104F136
:1048500030000D1806F0010010B1C7F3071005E095
:10486000287800F0F000C7F30321084328700120E6
:1048700020715AE0B4F80AA00AEBDA704010B6FBD7
:10488000F0F0216A00EB010B59462046FFF773FF59
:104890008046B8F1000F00D047E070006189B0FB9E
:1048A000F1F201FB120104F130000D182F70380AEB
:1048B00068700120207138E034E0B4F80AA04FEAB3
:1048C000EA700AEB90708010B6FBF0F0216A00EB02
:1048D000010B59462046FFF74EFF8046B8F1000F06
:1048E00000D022E0B0006189B0FBF1F201FB1201BF
:1048F00004F130000D18E8780006A97840EA01407C
:10490000697840EA01202978084300F070400743A5
:104910002F70380A6870380CA870380EE8700120C3
:10492000207102E04FF0020800BF00BF4046BDE822
:10493000F09F0000F0B58DB0044621466846FFF7B1
:1049400000FA0546002D2DD12046FBF70FFC064648
:1049500000BF07A96846FFF72BFA054615B99DF871
:10496000250000B91DE00DF1250738782E2800D16B
:10497000EFE79DF8240000F0100060B1A0193A465E
:104980000AA1FEF70FFA2046FFF7D4FF05460020E4
:10499000A0552DB105E03A46214605A0FEF7F2F9F3
:1049A000D7E700BF28460DB0F0BD00002F257300EB
:1049B00025732F25730D0A002DE9F04104460027C9
:1049C0002079F8B1E56A607801232A4604F13001C4
:1049D000FFF798F908B1012714E000202071206A40
:1049E000281AA16988420DD2E67809E0A069054439
:1049F000607801232A4604F13001FFF783F9761E1F
:104A0000022EF3D23846BDE8F08170B505462C463B
:104A100084B1206870B12068007858B12068C088DF
:104A2000A188884206D121684878FFF755F900F03F
:104A3000010008B1092070BD0020FCE70000000063
:104A400000000000002F0000000007000700001415
:104A50007F147F1400242A7F2A1200626408132323
:104A600000364955225000000503000000001C22BA
:104A70004100000041221C000014083E08140008F8
:104A8000083E0808000000A06000000808080808A8
:104A9000000060600000002010080402003E514940
:104AA000453E0000427F40000042615149460021DE
:104AB00041454B31001814127F10002745454539F8
:104AC000003C4A4949300001710905030036494953
:104AD000493600064949291E00003636000000000C
:104AE0005636000000081422410000141414141457
:104AF0000000412214080002015109060032495900
:104B0000513E007C1211127C007F49494936003E1B
:104B100041414122007F4141221C007F49494941D6
:104B2000007F09090901003E4149497A007F0808D0
:104B3000087F0000417F4100002040413F01007F8D
:104B400008142241007F40404040007F020C027F59
:104B5000007F0408107F003E4141413E007F09096B
:104B60000906003E4151215E007F09192946004691
:104B7000494949310001017F0101003F4040403F68
:104B8000001F2040201F003F4038403F00631408B2
:104B9000146300070870080700615149454300008D
:104BA0007F41410000552A552A55000041417F00B0
:104BB00000040201020400404040404000000102A5
:104BC0000400002054545478007F4844443800388E
:104BD0004444442000384444487F00385454541816
:104BE00000087E0901020018A4A4A47C007F080428
:104BF00004780000447D4000004080847D00007FF8
:104C0000102844000000417F4000007C0418047814
:104C1000007C0804047800384444443800FC242410
:104C200024180018242418FC007C080404080048F8
:104C30005454542000043F444020003C4040207C19
:104C4000001C2040201C003C4030403C0044281008
:104C50002844001CA0A0A07C004464544C441414BC
:104C600014141414000000000000000000000000F4
:104C70000000FC000000000002000000000C020C1C
:104C8000020000000000000090D0BCD0BC900003E7
:104C9000000300001824FE448C00030207020100F8
:104CA0001824D8B04C80000300010201C038E43859
:104CB000E0000102020102020806000000000000FC
:104CC00000000000000000F80402000000010204DF
:104CD000000204F800000004020100009060F86087
:104CE00090000000010000002020FC2020000000B7
:104CF00001000000000000000000080600000000A5
:104D00002020202020000000000000000000000003
:104D100000000002000000000080601C020004038C
:104D200000000000F8040404F8000102020201007F
:104D30000008FC0000000002030200001884442464
:104D4000180003020202020008042424D800010211
:104D50000202010040B088FC800000000003020055
:104D60003C242424C400010202020100F824242C63
:104D7000C0000102020201000C04E41C0400000057
:104D800003000000D8242424D800010202020100FC
:104D900038444444F80000030202010000001000FF
:104DA00000000000020000000000200000000000E1
:104DB00006000000002050880402000000000102EC
:104DC0009090909090000000000000000002048885
:104DD00050200002010000001804C4241800000044
:104DE00002000000F804E494F8000102020202004C
:104DF00000E09CF0800002030000030204FC242475
:104E0000D800020302020100F80404040C000102AD
:104E10000202010004FC0404F80002030202010083
:104E200004FC24740C0002030202030004FC24743A
:104E30000C00020302000000F0080444CC40000112
:104E40000202010004FC2020FC0402030000030213
:104E50000404FC040400020203020200000404FC37
:104E6000040406040403000004FC24D00C04020320
:104E70000200030204FC0400000002030202020319
:104E8000FC3CC03CFC0003000300030004FC30C4F5
:104E9000FC04020302000300F8040404F800010209
:104EA0000202010004FC2424180002030200000096
:104EB000F8848404F80001020207050004FC24645D
:104EC0009800020302000302182424448C00030209
:104ED000020201000C04FC040C00000203020000AA
:104EE00004FC0000FC04000102020100047C80E0DC
:104EF0001C040000030000001CE03CE01C00000358
:104F000000030000049C609C0400020300030200F4
:104F1000041CE01C04000002030200000C84641C5A
:104F200004000203020203000000FE02020000006F
:104F300007040400000E30C0000000000001020061
:104F4000000202FE00000004040700000004020446
:104F50000000000000000000000000000000080841
:104F6000080808080000020000000000000000001F
:104F70000040A0A0C00000010202030204FC2020A7
:104F8000C00000030202010000C0202060000001F8
:104F90000202020000C02024FC0000010202030201
:104FA00000C0A0A0C0000001020202000020F824FE
:104FB00024040002030202000040A0A060200007B9
:104FC0000A0A0A0404FC2020C000020302000302B3
:104FD0000020E4000000000203020000000020E4C2
:104FE000000008080807000004FC80E020200203FD
:104FF000020003020404FC0000000202030202009B
:10500000E020E020C00003000300030020E0202097
:10501000C00002030200030200C02020C000000103
:105020000202010020E02020C000080F0A02010057
:1050300000C02020E0000001020A0F0820E040200C
:1050400020000203020000000060A0A02000000277
:10505000020203000020F82000000000010202000C
:1050600020E00020E00000010202030220E0208096
:1050700060200000030100006080E0806000000309
:105080000003000020608060200002030003020093
:1050900020E0208060200808070100000020A060B8
:1050A0002000000203020200000020DE02000000D7
:1050B00000070400000000FF00000000000F0000D7
:1050C0000002DE20000000040700000002010204CC
:1050D00004020000000000000000000000000000CA
:1050E0000000000000000000000000F800000000C8
:1050F000000000333000000000100C06100C060009
:10510000000000000000000040C07840C07840006F
:10511000043F04043F040400007088FC08300000D1
:10512000001820FF211E0000F008F000E018000029
:1051300000211C031E211E0000F0088870000000E2
:105140001E2123241927211010160E000000000034
:105150000000000000000000000000E01804020051
:10516000000000071820400000020418E0000000C2
:105170000040201807000000404080F080404000C0
:105180000202010F01020200000000F00000000016
:105190000101011F010101000000000000000000EA
:1051A00080B070000000000000000000000000005F
:1051B00000010101010101010000000000000000E8
:1051C0000030300000000000000000008060180483
:1051D000006018060100000000E010080810E00060
:1051E000000F102020100F00001010F80000000029
:1051F0000020203F20200000007008080888700070
:1052000000302824222130000030088888483000EF
:105210000018202020110E000000C02010F800000F
:1052200000070424243F240000F8088888080800A8
:105230000019212020110E0000E0108888180000BD
:10524000000F112020110E0000380808C83808008F
:105250000000003F0000000000708808088870000F
:10526000001C222121221C0000E010080810E00090
:105270000000312222110F00000000C0C000000019
:10528000000000303000000000000080000000003E
:105290000000806000000000000080402010080036
:1052A00000010204081020004040404040404000FF
:1052B00004040404040404000008102040800000DA
:1052C0000020100804020100007048080808F000DF
:1052D0000000003036010000C030C828E810E000AF
:1052E0000718272423140B000000C038E00000003A
:1052F000203C23020227382008F8888888700000A4
:10530000203F202020110E00C03008080808380077
:10531000071820202010080008F808080810E000EE
:10532000203F202020100F0008F88888E80810008F
:10533000203F20202320180008F88888E808100063
:10534000203F200003000000C0300808083800009B
:1053500007182020221E020008F808000008F8089C
:10536000203F210101213F20000808F80808000023
:105370000020203F2020000000000808F808080056
:10538000C08080807F00000008F888C028180800CE
:10539000203F20012638200008F808000000000007
:1053A000203F20202020300008F8F800F8F80800FE
:1053B000203F003F003F200008F830C00008F808F8
:1053C000203F200007183F00E01008080810E00008
:1053D0000F10202020100F0008F808080808F0001F
:1053E000203F210101010000E01008080810E00042
:1053F0000F18242438504F0008F8888888887000D7
:10540000203F2000030C3020007088080808380076
:105410000038202121221C00180808F8080818006C
:105420000000203F2000000008F808000008F808ED
:10543000001F202020201F000878880000C838089E
:10544000000007380E010000F80800F80008F80016
:10545000033C0700073C03000818688080681808B0
:1054600020302C03032C30200838C800C83808002E
:105470000000203F2000000010080808C83808007D
:105480002038262120201800000000FE0202020021
:105490000000007F40404000000C30C000000000D1
:1054A000000000010638C00000020202FE000000F9
:1054B000004040407F00000000000402020204009F
:1054C00000000000000000000000000000000000DC
:1054D00080808080808080800002020400000000C4
:1054E00000000000000000000000808080800000BC
:1054F0000019242222223F2008F8008080000000AA
:10550000003F112020110E0000000080808000006C
:10551000000E112020201100000000808088F8007B
:10552000000E112020103F200000808080800000AD
:10553000001F222222221300008080F08888881811
:105540000020203F2020000000008080808080001C
:10555000006B94949493600008F8008080800000B1
:10556000203F210000203F2000809898000000008C
:105570000020203F202000000000008098980000BC
:1055800000C08080807F000008F8000080808000DC
:10559000203F24022D302000000808F80000000001
:1055A0000020203F202000008080808080808000BC
:1055B000203F20003F20003F80800080808000004E
:1055C000203F210000203F200000808080800000DC
:1055D000001F202020201F0080800080800000000D
:1055E00080FFA12020110E0000000080808080003C
:1055F000000E112020A0FF8080808000808080002D
:1056000020203F2120000100000080808080800059
:105610000033242424241900008080E080800000CE
:105620000000001F2020000080800000008080001B
:10563000001F202020103F2080808000008080807C
:1056400000010E300806010080800080008080800C
:105650000F300C030C300F00008080008080800031
:105660000020312E0E31200080808000008080805C
:1056700080818E701806010000808080808080000C
:105680000021302C2221300000000000807C02022A
:1056900000000000003F404000000000FF0000004C
:1056A00000000000FF0000000002027C80000000FB
:1056B0000040403F00000000000601010202040417
:1056C00000000000000000000000000000000000DA
:1056D00000000000000000000000000000000000CA
:1056E00000000000000000000000000000000000BA
:1056F00000F0F0F0000000000000000000017F0159
:105700000000000000000000001C1C1C0000000045
:1057100000008060301C8C60301C0C000000000019
:105720000000000000000000000000000000000079
:1057300000000000000000E00000000000E00000A9
:105740000086E69F86868686E69F860000011F010A
:10575000010101011F010100000080C06020F8204C
:10576000E0C00000000003070C18FF70E18100009A
:105770000000070F10107F100F07000080602060EE
:1057800080000000E02000000F3020309F70DC37E8
:105790001030C0000000100E03000718101807009A
:1057A0000000C02020E0C0000000000080E01F38A2
:1057B000E88703C43C040000070F1810100B070D06
:1057C0001010080000808C4C380000000000000021
:1057D00000000000000000000000000000000000C9
:1057E000000000000000000000000000000080E059
:1057F000300804000000000000FEFF01000000006F
:10580000000000000000030F1820400000040830D2
:10581000E0800000000000000000000001FFFE002A
:1058200000000000004020180F03000000000000EE
:10583000000000000000C00000000000004266669A
:105840003C18FF183C6666420000000000000300A0
:1058500000000000000000000000800000000000C8
:10586000001010101010FF10101010100000000099
:105870000000030000000000000000000000000025
:105880000000000000000000000000000000000018
:1058900000808C4C38000000000000000000000078
:1058A0000000000000000000001010101010101088
:1058B00010101000000000000000000000000000B8
:1058C00000000000000000000000000000000000D8
:1058D000000000000000000000001C1C1C00000074
:1058E000000000000000000000000000E0380C0094
:1058F0000000000080701C03000000000060380EF3
:105900000100000000000000000080C06020206056
:10591000C080000000FEFF010000000001FFFE004B
:105920000001070E181010180E07010000008080FB
:1059300080C0E000000000000000000000FFFF0049
:105940000000000000001010101F1F1010100000B9
:105950000080402020202060C08000000003030061
:10596000804020381F070000001C1A19181818184A
:10597000181F00000080C020202060C080000000B0
:10598000000303001010182FE780000000070F101D
:10599000101010180F070000000000000000C0E009
:1059A000F000000000C0B088868180FFFF8080008A
:1059B000000000000010101F1F1010000000E06029
:1059C000606060606060000000003F100808081818
:1059D000F0E0000000070B101010101C0F03000077
:1059E000000080C040202020E0C0000000FCFF211B
:1059F0001008080818F0E0000001070C181010103B
:105A0000080F03000000C0E06060606060E06000BC
:105A1000000003000000E018070000000000000084
:105A2000001F1F00000000000080C0602020202018
:105A300060C080000087EF2C1818303068CF8300DA
:105A400000070F0810101010180F07000000C0C04A
:105A500020202020C0800000001F3F6040404020E8
:105A600010FFFE0000000C1C101010080F030000B7
:105A70000000000000000000000000000000000026
:105A8000000E0E0E0000000000000000001C1C1C98
:105A90000000000000000000000000000000000006
:105AA00000000000000C0C000000000000000000DE
:105AB00000583800000000000000000000000080D6
:105AC0004020100000001028448201000000000067
:105AD00000000000000001020408100000000000A7
