:020000040800F2
:1000000018040020490100085101000853010008AC
:1000100055010008570100085901000800000000C0
:100020000000000000000000000000005B0100086C
:100030005D010008000000005F010008790200086F
:100040006301000863010008630100086301000800
:1000500063010008630100086301000863010008F0
:1000600063010008630100086301000863010008E0
:1000700063010008630100086301000863010008D0
:1000800063010008630100086301000863010008C0
:1000900063010008630100086301000863010008B0
:1000A00063010008630100086301000863010008A0
:1000B0006301000863010008630100086301000890
:1000C0006301000863010008630100086301000880
:1000D00063010008E10200086301000863010008F1
:1000E0006301000863010008630100086301000860
:1000F0006301000863010008630100086301000850
:10010000630100086301000863010008630100083F
:10011000630100086301000863010008630100082F
:10012000630100086301000863010008630100081F
:10013000DFF810D000F01AF8004800475F0300080D
:10014000AFF30080180400200648804706480047A7
:10015000FEE7FEE7FEE7FEE7FEE7FEE7FEE7FEE777
:10016000FEE7FEE78102000831010008064C074D5A
:1001700006E0E06840F0010394E807009847103477
:10018000AC42F6D3FFF7D8FF6403000884030008ED
:1001900010B500F001F810BD0CB5002001900090E2
:1001A0003348006840F480303149086000BF30486F
:1001B000006800F4003000900198401C0190009805
:1001C00018B90198B0F5A06FF1D12948006800F482
:1001D000003010B10120009001E000200090009854
:1001E000012843D12348006840F0100021490860ED
:1001F0000846006820F0030008600846006840F0E8
:10020000020008601A48406819494860084640687A
:1002100048600846406840F480604860084640688E
:1002200020F47C1048600846406840F4E8104860BC
:100230000846006840F08070086000BF0C48006805
:1002400000F000700028F9D00948406820F0030051
:10025000074948600846406840F00200486000BF17
:100260000348406800F00C000828F9D10CBD0000DC
:1002700000100240002002404FF0E020006970476B
:1002800010B51348006840F00100114908600846A5
:100290004068104908400E494860084600680E4909
:1002A00008400B4908600846006820F48020086078
:1002B0000846406820F4FE0048604FF41F00886044
:1002C000FFF766FF4FF000600449086010BD0000B2
:1002D000001002400000FFF8FFFFF6FE08ED00E00E
:1002E0001348008800F0200000B31148008820F077
:1002F00020000F490880081D00880E490E4A127818
:10030000885408460C490978405C232809D10B48D9
:10031000007830B9002008490870012007490870AA
:1003200004E005480078401C03490870704700004D
:1003300000380140040000200000002001000020DF
:1003400002E008C8121F08C1002AFAD1704770479E
:10035000002001E001C1121F002AFBD1704700BF3D
:10036000FEE70000840300080000002004000000F5
:100370004003000888030008040000201404000063
:0803800050030008000000001A
:0400000508000131BD
:00000001FF
