:020000040800F2
:10000000A0400020CD010008B50300088D020008C3
:10001000B103000887020008510400080000000036
:10002000000000000000000000000000E3030008E2
:100030008B02000800000000E1030008E50300084F
:10004000E7010008E7010008E7010008E7010008F0
:10005000E7010008E7010008E7010008E7010008E0
:10006000E7010008E7010008E7010008E7010008D0
:10007000E7010008E7010008E7010008E7010008C0
:10008000E7010008E7010008E7010008E7010008B0
:10009000E7010008E7010008E7010008E7010008A0
:1000A000E7010008E7010008E7010008E701000890
:1000B000E7010008E7010008E7010008E701000880
:1000C000E7010008E7010008E7010008E701000870
:1000D000E7010008E7010008E7010008E701000860
:1000E000E7010008E7010008E7010008E701000850
:1000F000E7010008E7010008E7010008E701000840
:10010000E7010008E7010008E7010008E70100082F
:10011000E7010008E7010008E7010008E70100081F
:10012000E7010008E7010008E7010008E70100080F
:1001300000F002F800F03AF80AA090E8000C8244BF
:100140008344AAF10107DA4501D100F02FF8AFF29C
:10015000090EBAE80F0013F0010F18BFFB1A43F0A5
:100160000103184780050000A0050000103A24BFD5
:1001700078C878C1FAD8520724BF30C830C144BF0C
:1001800004680C607047000000230024002500264E
:10019000103A28BF78C1FBD8520728BF30C148BFEA
:1001A0000B6070471FB51FBD10B510BD00F031F8D2
:1001B0001146FFF7F7FF00F0BFF900F04FF803B466
:1001C000FFF7F2FF03BC00F057F800000948804732
:1001D00009480047FEE7FEE7FEE7FEE7FEE7FEE729
:1001E000FEE7FEE7FEE7FEE704480549054A064B41
:1001F00070470000ED03000831010008A000002056
:10020000A0400020A0200020A020002070477047C0
:100210007047754600F02CF8AE4605006946534617
:1002200020F00700854618B020B5FFF7DDFFBDE8D8
:1002300020404FF000064FF000074FF000084FF04D
:10024000000B21F00701AC46ACE8C009ACE8C009DE
:10025000ACE8C009ACE8C0098D46704710B504464B
:10026000AFF300802046BDE81040FFF7A8BF0000B4
:10027000004870473C00002001491820ABBEFEE753
:1002800026000200704700BFFEE7704700BFFEE790
:1002900070B531480078314944182578284600F077
:1002A00061F8012000F05EF8002220212C4800F0C7
:1002B000E7F8012000F0CEF801222021284800F0C4
:1002C000DFF825484078254944182578284600F06D
:1002D00049F8022000F046F800222021204800F0D2
:1002E000CFF8012000F0B6F8012220211C4800F0D0
:1002F000C7F81948807819494418207800F07F051C
:10030000284600F02FF8042000F02CF800222021CD
:10031000134800F0B5F8012000F09CF801222021DC
:100320000F4800F0ADF80C48C0780C494418257807
:10033000284600F017F8082000F014F800222021C9
:10034000074800F09DF8012000F084F801222021E8
:10035000034800F095F870BD300000201A0000201E
:100360000008014070B5044608251BE004F0800039
:1003700028B1012240210D4800F082F804E000225B
:1003800040210A4800F07CF86006040E002210218B
:10039000064800F075F801221021044800F070F8BA
:1003A000681EC5B2012DE1DA70BD000000080140F1
:1003B00000BFFEE77047000010B5002807DA0A0703
:1003C000140E054A00F00F031B1FD45403E00A0764
:1003D000130E024A135410BD18ED00E000E400E0D3
:1003E0007047704710B500F03FF810BD10B51448C5
:1003F000006840F001001249086008464068114951
:1004000008400F494860084600680F4908400C49F9
:1004100008600846006820F48020086008464068AC
:100420000A490840064948600846006806490840ED
:10043000034908604FF41F00886000F027F910BDE1
:10044000001002400C00FFE8FFFFF6FEFFFF00F780
:1004500000BFFEE70349086000BF024909680029A0
:10046000FBD17047380000200448006820B10348E1
:100470000068401E014908607047000038000020F5
:100480000AB1016100E041617047F0B504461646CB
:100490000025002201F00F0501F0100707B13543D8
:1004A00000201EE0012787401F40C7B122684FEAA5
:1004B000800C0F2707FA0CF7BA43870005FA07F7F5
:1004C0003A43282904D1012787401F40676105E08E
:1004D000482903D1012787401F4027612260471C1C
:1004E000B8B20828DED3082022E0012787401F4049
:1004F000E7B16268A0F108074FEA870C0F2707FAF7
:100500000CF7BA43A0F10807BF0005FA07F73A4312
:10051000282904D1012787401F40676105E0482949
:1005200003D1012787401F4027616260471CB8B292
:100530001028DAD3F0BD0000002000F029F800F008
:10054000A9F84FF4C06000F02FF840F2026000F00C
:100550002BF87023032210210B48FFF796FF012090
:100560000A49087002204870032088700420C8706F
:100570000520087106204871072088710820C8717D
:1005800001E0FFF785FEFCE7000801403000002095
:10059000044A516821F4605141EA0002014B5A605B
:1005A0007047000000100240064A02EB90110968F3
:1005B00000F01F0301229A401143024B03EB9012FB
:1005C0001160704700100240002000212C4A126880
:1005D00042F480322A4B1A6000BF401C284A12683D
:1005E00002F4003119B94FF6FF729042F5D1244A56
:1005F000126802F400320AB900BFFEE7204A5268CE
:100600001F4B5A601A4652685A601A46526842F4A2
:1006100080625A601A46526822F440325A601A4682
:10062000526842F440325A601A465268154B1A40DA
:10063000134B5A601A465268134B1A43104B5A60B8
:100640001A46126842F080721A6000BF0C4A1268A3
:1006500002F00072002AF9D0094A526822F003021F
:10066000074B5A601A46526842F002025A6000BFB5
:10067000034A526802F00802002AF9D070470000CD
:1006800000100240FFFFC3F70000280810B5FFF775
:100690009BFF10BD10B5124800684FF47A71B0FB93
:1006A000F1F4601EB0F1807F01D301200FE0601EE5
:1006B0004FF0E02148610F214FF0FF30FFF77CFE43
:1006C00000204FF0E021886107200861002008B178
:1006D00000BFFEE70021481EFFF76EFE10BD0000C0
:1006E0000000002004070008000000203C0000007B
:1006F0006C010008400700083C0000206440000036
:100700008801000800F36F06C0F9A4B0999282F83E
:100710008090804020100804020100000000C0F911
:10072000A4B0999282F880908CBFC6A1867F7F008A
:1007300000000000000000000000000000000000B9
:0400000508000131BD
:00000001FF
