:020000040800F2
:1000000098400020CD010008CB020008C302000880
:10001000C70200088702000865030008000000000E
:10002000000000000000000000000000F7020008CF
:10003000C102000800000000F5020008F9020008F3
:10004000E7010008E7010008E7010008E7010008F0
:10005000E7010008E7010008E7010008E7010008E0
:10006000E7010008E7010008E7010008E7010008D0
:10007000E7010008E7010008E7010008E7010008C0
:10008000E7010008E7010008E7010008E7010008B0
:10009000E70100088D020008E7010008E7010008F9
:1000A000E7010008E7010008E7010008E701000890
:1000B000E7010008E7010008E7010008E701000880
:1000C000E7010008E7010008E7010008E701000870
:1000D000E7010008E7010008E7010008E701000860
:1000E000E7010008E7010008E7010008E701000850
:1000F000E7010008E7010008E7010008E701000840
:10010000E7010008E7010008E7010008E70100082F
:10011000E7010008E7010008E7010008E70100081F
:10012000E7010008E7010008E7010008E70100080F
:1001300000F002F800F03AF80AA090E8000C8244BF
:100140008344AAF10107DA4501D100F02FF8AFF29C
:10015000090EBAE80F0013F0010F18BFFB1A43F0A5
:1001600001031847D40B0000F40B0000103A24BF21
:1001700078C878C1FAD8520724BF30C830C144BF0C
:1001800004680C607047000000230024002500264E
:10019000103A28BF78C1FBD8520728BF30C148BFEA
:1001A0000B6070471FB51FBD10B510BD00F031F8D2
:1001B0001146FFF7F7FF00F041FC00F04FF803B4E1
:1001C000FFF7F2FF03BC00F057F800000948804732
:1001D00009480047FEE7FEE7FEE7FEE7FEE7FEE729
:1001E000FEE7FEE7FEE7FEE704480549054A064B41
:1001F000704700000103000831010008980000204A
:1002000098400020982000209820002070477047D8
:100210007047754600F02CF8AE4605006946534617
:1002200020F00700854618B020B5FFF7DDFFBDE8D8
:1002300020404FF000064FF000074FF000084FF04D
:10024000000B21F00701AC46ACE8C009ACE8C009DE
:10025000ACE8C009ACE8C0098D46704710B504464B
:10026000AFF300802046BDE81040FFF7A8BF0000B4
:10027000004870473400002001491820ABBEFEE75B
:1002800026000200704700BFFEE7000010B5094AD3
:100290000121094800F095F90648006840F2213133
:1002A000884205D10348007A10B90120034908703B
:1002B00010BD00000C00002000640040040000207D
:1002C000704700BFFEE700BFFEE7704710B500288B
:1002D00007DA0A07140E054A00F00F031B1FD45457
:1002E00003E00A07130E024A135410BD18ED00E094
:1002F00000E400E07047704710B500F01FFB10BD30
:1003000010B51448006840F0010012490860084622
:100310004068114908400F494860084600680F4985
:1003200008400C4908600846006820F480200860F6
:10033000084640680A49084006494860084600687F
:1003400006490840034908604FF41F00886000F028
:10035000C7FC10BD001002400C00FFE8FFFFF6FED6
:10036000FFFF00F700BFFEE710B5044605488442D2
:1003700007D140F2194000F041FC40F2194000F072
:100380002DFC10BD0064004010B50021837A0122CD
:1003900002FA03F13E4A126842F001023C4B1A6035
:1003A0003B4A1C3212688A43394B1C331A60C2899B
:1003B000DAB9374A0C3212688A43354B0C331A606B
:1003C000C288344B03EA024243881A434389304CC3
:1003D000403444F8332082882E4B03EA02420388DB
:1003E0001A43438904EBC3035A60C289012A1BD113
:1003F000274A0C3212680A43254B0C331A600288D4
:10040000244B03EA024243881A434389204C403478
:1004100044F8332082881F4B03EA0242C3881A4300
:10042000438904EBC3035A6082893AB9184A121D02
:1004300012688A43164B1B1D1A6006E0144A121DEF
:1004400012680A43124B1B1D1A6002893AB9104AFE
:10045000143212688A430E4B14331A6006E00C4AB9
:10046000143212680A430A4B14331A60027C012AC0
:1004700006D1074A1C3212680A43054B1C331A6026
:10048000034A126822F00102014B1A6010BD0000FD
:10049000006600400000FFFF70B502464FF6FF7394
:1004A0000020146824F002041460146844F001046D
:1004B000146000E05B1E546804F001040CB9002BCA
:1004C000F8D1546804F001040CB9002074E00C78F1
:1004D0004FF0404505EA84744D784FF0407606EAC7
:1004E00005652C438D784FF4702606EA05452C43AC
:1004F000CD784FF4E00606EA05552C434D896D1E74
:10050000C5F309052C43D4610C79012C04D114687E
:1005100044F08004146003E0146824F08004146044
:100520004C79012C04D1146844F04004146003E0B9
:10053000146824F0400414608C79012C04D11468F0
:1005400044F02004146003E0146824F020041460D4
:10055000CC79012C04D1146844F01004146003E039
:10056000146824F0100414600C7A012C04D114686F
:1005700044F00804146003E0146824F008041460D4
:100580004C7A012C04D1146844F00404146003E094
:10059000146824F004041460146824F00104146046
:1005A0004FF6FF7300E05B1E546804F001040CB1C9
:1005B000002BF8D103B1012070BD42690A434261AA
:1005C000704710B500F5D87303EB01131B6803F0F7
:1005D00004031372137A3BB900F5D87303EB0113CC
:1005E0001B685B0D136006E000F5D87303EB011385
:1005F0001B68DB08536000F5D87303EB01131B681D
:1006000003F00203537200F5DA7303EB01131B6866
:100610001B0AD37400F5DA7303EB01131B6803F0B4
:100620000F03937200F5DC7303EB01131B68D372A5
:1006300000F5DC7303EB01131B681C0A147300F54F
:10064000DC7303EB01131B681C0C547300F5DC73A3
:1006500003EB01131B681C0E947300F5DE7303EBB0
:1006600001131B68D37300F5DE7303EB01131B68E2
:100670001C0A147400F5DE7303EB01131B681C0CD9
:10068000547400F5DE7303EB01131B681C0E9474A5
:1006900021B9C36843F02003C36003E0036943F05A
:1006A0002003036110BD000030B502460B46002157
:1006B000906800F08060B0F1806F00D110E0906829
:1006C00000F00060B0F1006F01D1012108E09068F6
:1006D00000F08050B0F1805F01D1022100E00321E1
:1006E000032901D1032030BD02F5C07000EB0110D9
:1006F000006800F0010402F5C07000EB0110046016
:10070000187A88B918883B4C04EA40505C7A204338
:1007100002F5C07404EB01142468204302F5C07490
:1007200004EB0114206013E06FF00704586804EA3A
:10073000C0001C7A20435C7A204302F5C07404EBAD
:1007400001142468204302F5C07404EB01142060F6
:1007500002F5C27000EB0110006820F00F0402F5F2
:10076000C27000EB0110046002F5C27000EB0110D2
:1007700000689C7A204302F5C27404EB01142060E7
:10078000987B4FF07F4404EA00605C7B4FF47F0568
:1007900005EA044420431C7B2D1205EA042420436F
:1007A000DC7A204302F5C47404EB01142060987CC9
:1007B0002C0404EA00605C7C2D0205EA044420431A
:1007C0001C7C2D1205EA04242043DC7B204302F527
:1007D000C67404EB0114206002F5C07000EB011038
:1007E000006840F0010402F5C07000EB01100460E5
:1007F000084678E70000E0FF00B589B006A90020B0
:1008000000F042F801A9012000F03EF81D48FFF772
:10081000ABFD00208DF81C008DF81D008DF81E002A
:100820008DF81F008DF820008DF821008DF818003C
:100830008DF8190004208DF81A0002208DF81B0095
:100840001820ADF8220006A90E48FFF725FE00206B
:10085000ADF80E00ADF810000120ADF81200002038
:10086000ADF80400ADF80600ADF80800ADF80A00D8
:100870000120ADF80C008DF8140001A8FFF784FDED
:1008800009B000BD0064004010B5024632B1012A33
:1008900016D0022A20D0032A41D12EE000234B712A
:1008A000CB718B7140F2FF334B8100230B724B7085
:1008B00002238B700023CB700B714B720B7030E0F6
:1008C0000123CB8100230B740B810B804B808B8029
:1008D000CB808B814B8124E0002005E0002401F1D6
:1008E0000B031C54431CD8B20828F7D300238B7287
:1008F0004B600B724B720B6013E0002005E000248C
:1009000001F10B031C54431CD8B20828F7D3002371
:100910008B724B600B72CB744B720B6001E000BFAB
:10092000FEE700BF10BD00000349086000BF024998
:1009300009680029FBD170470800002004480068BE
:1009400020B103480068401E01490860704700005C
:100950000800002010B540F2197000F02FF940F2A5
:10096000026000F02BF94FF4C06000F027F94FF45B
:10097000006303224821054800F00AF84FF4805331
:1009800003221821014800F003F810BD00080140BF
:10099000F0B5044616460025002201F00F0501F0CF
:1009A000100707B1354300201EE0012787401F4094
:1009B000C7B122684FEA800C0F2707FA0CF7BA4339
:1009C000870005FA07F73A43282904D10127874011
:1009D0001F40676105E0482903D1012787401F4078
:1009E00027612260471CB8B20828DED3082022E025
:1009F000012787401F40E7B16268A0F108074FEA6E
:100A0000870C0F2707FA0CF7BA43A0F10807BF00BD
:100A100005FA07F73A43282904D1012787401F40E8
:100A2000676105E0482903D1012787401F402761FE
:100A30006260471CB8B21028DAD3F0BD002000F085
:100A4000B1F800F051F94FF4C06000F0B7F8FFF7CB
:100A500081FF00F03FF8FFF7CFFE10211948FFF7A4
:100A6000ACFD19490220FFF70FFF40F22130164973
:100A700008600120486000204872087208208872CF
:100A800012490320FFF700FF1AE0114800780128FF
:100A900016D100200E4908700C4800680A49086009
:100AA00001F10B0009490B310A6802604968416095
:100AB00005490448FFF7F8FD4FF47A70FFF734FF5B
:100AC000E3E7000000640040200000200C0000204C
:100AD0000400002010B500221146152000F002F895
:100AE00010BD00002DE9F04103460D4616460024D6
:100AF0000027A0462448006800F4E060B0F5A06F2D
:100B000015D006DCB0F5407F18D0B0F5806F19D154
:100B100010E0B0F5C06F06D0B0F5E06F12D100273D
:100B20004FF0040815E001274FF0030811E00227F9
:100B3000B8460EE003274FF001080AE004274FF003
:100B4000000806E04FF4A06000F022F80227B84643
:100B500000BF00BFC7F1040005FA00F4C8F10401AA
:100B60000F20C8403040044324010848C45403F017
:100B70001F01012088405911890001F1E021C1F8CD
:100B80000001BDE8F08100000CED00E000E400E0B1
:100B900002490143024A1160704700000000FA0553
:100BA0000CED00E0044A516821F0F00141EA000236
:100BB000014B5A607047000000100240064A02EBE9
:100BC0009011096800F01F0301229A401143024B63
:100BD00003EB90121160704700100240064A02EBCE
:100BE0009011096800F01F0301229A409143024BC3
:100BF00003EB90121160704700100240064A02EBAE
:100C00009011096800F01F0301229A401143024B22
:100C100003EB901211607047001002400020002189
:100C20002C4A126842F480322A4B1A6000BF401CE2
:100C3000284A126802F4003119B94FF6FF72904247
:100C4000F5D1244A126802F400320AB900BFFEE767
:100C5000204A52681F4B5A601A4652685A601A4618
:100C6000526842F480625A601A46526822F4403256
:100C70005A601A46526842F440325A601A46526824
:100C8000154B1A40134B5A601A465268134B1A43BD
:100C9000104B5A601A46126842F080721A6000BF08
:100CA0000C4A126802F00072002AF9D0094A526810
:100CB00022F00302074B5A601A46526842F00202C1
:100CC0005A6000BF034A526802F00802002AF9D0B5
:100CD0007047000000100240FFFFC3F70000280823
:100CE00010B5FFF79BFF10BD10B5124800684FF418
:100CF0007A71B0FBF1F4601EB0F1807F01D3012066
:100D00000FE0601E4FF0E02148610F214FF0FF30EF
:100D1000FFF7DCFA00204FF0E0218861072008612E
:100D2000002008B100BFFEE70021481EFFF7CEFA01
:100D300010BD000000000020580D00080000002039
:100D40000C0000006C010008640D00080C0000207D
:100D50008C4000008801000800F36F0600000000CE
:040D6000000000008F
:0400000508000131BD
:00000001FF
