:020000040800F2
:100000003820002049010008D5010008CD01000872
:10001000D1010008BD0100087102000800000000C5
:1000200000000000000000000000000003020008C3
:10003000C1010008000000000102000805020008DC
:100040006301000863010008630100086301000800
:10005000630100086301000863010008C301000890
:1000600063010008630100086301000863010008E0
:1000700063010008630100086301000863010008D0
:1000800063010008630100086301000863010008C0
:1000900063010008630100086301000863010008B0
:1000A00063010008630100086301000863010008A0
:1000B0006301000863010008630100086301000890
:1000C0006301000863010008630100086301000880
:1000D0006301000863010008630100086301000870
:1000E0006301000863010008630100086301000860
:1000F0006301000863010008630100086301000850
:10010000630100086301000863010008630100083F
:10011000630100086301000863010008630100082F
:10012000630100086301000863010008630100081F
:10013000DFF810D000F030F800480047BD08000894
:10014000AFF300803820002006488047064800476B
:10015000FEE7FEE7FEE7FEE7FEE7FEE7FEE7FEE777
:10016000FEE7FEE70D0200083101000830B50B463E
:10017000014600202022012409E021FA02F59D42D7
:1001800005D303FA02F5491B04FA02F52844151EAB
:10019000A2F10102F1DC30BD064C074D06E0E0683B
:1001A00040F0010394E8070098471034AC42F6D3BE
:1001B000FFF7C2FFD80E0008F80E000800BFFEE7E8
:1001C000704710B5022000F0C3FA10BD00BFFEE773
:1001D00000BFFEE77047000010B5002807DA0A07E5
:1001E000140E054A00F00F031B1FD45403E00A0746
:1001F000130E024A135410BD18ED00E000E400E0B5
:100200007047704710B500F097FA10BD10B514484C
:10021000006840F001001249086008464068114932
:1002200008400F494860084600680F4908400C49DB
:1002300008600846006820F480200860084640688E
:100240000A490840064948600846006806490840CF
:10025000034908604FF41F00886000F0DFFC10BD08
:10026000001002400C00FFE8FFFFF6FEFFFF00F762
:1002700000BFFEE70FB4054B10B503A9044A02986E
:1002800000F018F810BC5DF814FB00005D070008D2
:100290003400002002E008C8121F08C1002AFAD169
:1002A00070477047002001E001C1121F002AFBD1F6
:1002B000704700002DE9FF4F89B09B46044600259A
:1002C00006E025280BD05A460B999047641C6D1CFC
:1002D00020780028F5D10DB02846BDE8F08F002722
:1002E000B8460122474900E0074314F8013F203B8C
:1002F00002FA03F00842F7D120782E2819D114F819
:10030000010F47F004072A280ED06FF02F02207843
:10031000A0F1300109290CD808EB880102EB41015A
:1003200000EB0108641CF2E70A98641C50F8048B87
:100330000A9020780028CED0642808D0692806D0FA
:1003400075281ED05A460B9990476D1C58E00A99A3
:100350004FF00A0901C90A91002802DA40422D2112
:1003600002E0390504D52B218DF82010012103E08E
:10037000F90704D02021F7E78A4608AE0DE00021F6
:10038000FAE70A994FF00A0901C90A91F7E74946C5
:10039000FFF7ECFE303106F8011D0028F7D1ADEB78
:1003A000060000F12009780701D44FF00108C84584
:1003B00002DDA8EB090000E000208046002706E0EF
:1003C00008A85A46C05D0B9990476D1C7F1C574585
:1003D000F6DB04E030205A460B9990476D1CB8F1CB
:1003E0000001A8F10108F5DC05E016F8010B5A46FA
:1003F0000B9990476D1CB9F10001A9F10109F4DCDA
:10040000641C65E709280100816841F008018160EA
:1004100000BF816801F008010029FAD1816841F02C
:100420000401816000BF816801F004010029FAD154
:10043000704730B5012902D002291AD10CE0C36AF5
:1004400023F47003C362C36A541E4FF4700505EAB7
:1004500004542343C3620DE0836B23F4401383638E
:10046000836B541E4FF4401505EA04542343836301
:1004700000E000BF00BF30BD10B5174800F03AF8EB
:10048000002000F0AFF801220221134800F01DF90E
:100490000021114800F022F8012211460E48FFF712
:1004A000C8FF05230D2200210B4800F0A9F84FF4E6
:1004B00060220121084800F071F801221146064827
:1004C00000F04DF8044800F041F8012000F02AF94E
:1004D0000148FFF799FF10BD0028014021B1826853
:1004E00042F40062826003E0826822F4006282606B
:1004F0007047000010B504461348204430B1B0F5F1
:10050000806F0CD0B0F5C05F1BD111E040F2093014
:1005100000F012FB40F2093000F0FEFA12E040F267
:100520000A3000F009FB40F20A3000F0F5FA09E069
:1005300040F20F3000F000FB40F20F3000F0ECFA18
:1005400000E000BF00BF10BD00DCFEBF816801F00D
:10055000010119B9816841F001018160704772B1F0
:1005600001F001031BB1836843F48013836001F041
:10057000020393B1836843F4004383600DE001F00C
:1005800001031BB1836823F48013836001F002032D
:100590001BB1836823F4004383607047012902D0B4
:1005A000022910D107E0836823F460238360836805
:1005B0001343836008E0836823F4E0438360836827
:1005C0001343836000E000BF00BF704702688A43A6
:1005D000026070470246002013680B4003B10120FF
:1005E000704700000549096821F47021034A116031
:1005F000114609680143116070470000042401405E
:10060000F0B51D4606290CDA436B01EB81071F2666
:10061000BE40B34301EB810602FA06F6334343635F
:1006200022E00C290EDA036B8E1F06EB86071F26CD
:10063000BE40B3438E1F06EB860602FA06F633432E
:10064000036311E010290FDAC36AA1F10C0606EB6F
:1006500086071F26BE40B343A1F10C0606EB8606B3
:1006600002FA06F63343C3620A2A0CDA046902EB83
:1006700042070726BE40B44302EB420605FA06F6DF
:100680003443046111E0122A0FDAC468A2F10A06A9
:1006900006EB46070726BE40B443A2F10A0606EB66
:1006A000460605FA06F63443C460F0BD01F00102C7
:1006B0001AB1826842F48002826001F002021AB12B
:1006C000826842F4001282607047AAB101F480731C
:1006D0001BB1436843F48073436001F480631BB132
:1006E000436843F48063436001F00203CBB1836845
:1006F00043F00203836014E001F480731BB143688C
:1007000023F48073436001F480631BB1436823F4D6
:100710008063436001F002031BB1836823F002038E
:10072000836070470349086000BF024909680029D7
:10073000FBD17047080000200448006820B103483E
:100740000068401E01490860704700000800002052
:1007500001490860704700001404014070B5044668
:100760000D46E1B2054800F0CDFA00BF072103486D
:1007700000F019FB0028F9D0204670BD0038014078
:10078000F0B5044616460025002201F00F0501F0E1
:10079000100707B1354300201EE0012787401F40A6
:1007A000C7B122684FEA800C0F2707FA0CF7BA434B
:1007B000870005FA07F73A43282904D10127874023
:1007C0001F40676105E0482903D1012787401F408A
:1007D00027612260471CB8B20828DED3082022E037
:1007E000012787401F40E7B16268A0F108074FEA80
:1007F000870C0F2707FA0CF7BA43A0F10807BF00D0
:1008000005FA07F73A43282904D1012787401F40FA
:10081000676105E0482903D1012787401F40276110
:100820006260471CB8B21028DAD3F0BDF0B50A46B2
:10083000002300240021002500F00046B6F1004FFF
:1008400002D11D4EF16901E01B4E7168C0F30345F2
:1008500083B200F44016B6F5401F08D121F0706154
:10086000154E766826F07066134F7E6012E000F435
:100870008016B6F5801F06D1032606FA05F4A143BB
:1008800041F0706106E0460D360103FA06F6B14309
:1008900041F0706122B1460D360103FA06F631438C
:1008A00000F00046B6F1004F02D1034EF16101E0C5
:1008B000014E7160F0BD000000000140002000F01A
:1008C0007DF800F0AFF94FF4C06000F015F94FF477
:1008D0007A70FFF727FF40F2046000F00DF908235B
:1008E000032200211C48FFF74BFF40F20A6000F092
:1008F00003F9032000F03EF8FFF7BEFD0121174881
:10090000FFF7D4FE164800F05DFA23E002211348F9
:10091000FFF75CFE00BF02211048FFF75BFE0128D5
:10092000F9D10E484C3000680E490880084600880E
:1009300040F6E441484340F6FF7190FBF1F00A496C
:1009400008800846018809A0FFF794FC4FF4FA706C
:10095000FFF7E8FEDAE70000001001400028014040
:100960000038014004000020060000206164633A62
:10097000256400000F4A51680F4A1140082814D21C
:10098000DFE800F004050607130A130B00BF00BFE1
:1009900000BF41EA803109E000BF20F004004FF0C1
:1009A000805242EA8032114300E000BF00BF014A9A
:1009B0005160704700100240FF3FFFEF044A51684A
:1009C00021F0F00141EA0002014B5A60704700003B
:1009D000001002402DE9F04F8BB00746002009902F
:1009E0003EA090E8004CC068CDE905BECDF810A04F
:1009F00007900FF2EC0ADAE9000ACDE9020A0FF2D9
:100A0000E00ADAE9000ACDE9000A38484068C0F394
:100A100081000A900A9820B1012804D0022829D127
:100A200003E0334928E0324926E03048406800F4CA
:100A30008038B8F5803F09D12D4C2C48406800F42F
:100A40000039B9F5003F02D1641000E0294C274875
:100A50004068C0F383422548406800F0006008B158
:100A600042F010020F2A01D2921C00E0521C04FB3B
:100A700002F101E01E4900BF00BF1C484068C0F3FE
:100A8000031504A8465D21FA06F318484068C0F330
:100A9000022502A8465D23FA06FC14484068C0F30C
:100AA000C2251DF8056023FA06F0089037B1012F22
:100AB00006D0022F06D0032F0AD106E0099108E0E4
:100AC000099306E0CDF824C003E00898099000E0FF
:100AD00000BF00BF09980BB0BDE8F08F0000000018
:100AE000000000000102030406070809001002408C
:100AF00000127A0000093D00064A02EB90110968D5
:100B000000F01F0301229A401143024B03EB9012A5
:100B10001160704700100240064A02EB901109680C
:100B200000F01F0301229A409143024B03EB901205
:100B30001160704700100240064A02EB90110968EC
:100B400000F01F0301229A401143024B03EB901265
:100B50001160704700100240002000212C4A1268EA
:100B600042F480322A4B1A6000BF401C284A1268A7
:100B700002F4003119B94FF6FF729042F5D1244AC0
:100B8000126802F400320AB900BFFEE7204A526838
:100B90001F4B5A601A4652685A601A46526842F40D
:100BA00080625A601A46526822F440325A601A46ED
:100BB000526842F440325A601A465268154B1A4045
:100BC000134B5A601A465268134B1A43104B5A6023
:100BD0001A46126842F080721A6000BF0C4A12680E
:100BE00002F00072002AF9D0094A526822F003028A
:100BF000074B5A601A46526842F002025A6000BF20
:100C0000034A526802F00802002AF9D07047000037
:100C100000100240FFFFC3F70000280810B5FFF7DF
:100C20009BFF10BD10B5124800684FF47A71B0FBFD
:100C3000F1F4601EB0F1807F01D301200FE0601E4F
:100C40004FF0E02148610F214FF0FF30FFF7C4FA69
:100C500000204FF0E021886107200861002008B1E2
:100C600000BFFEE70021481EFFF7B6FA10BD0000E6
:100C7000000000202DE9F04704460D460027B84645
:100C8000B94600261D49601A8C421CD006DC1C485F
:100C9000204470B1B0F5806F1FD10FE0B0F5806FC8
:100CA00016D0B0F56C4F18D10320FFF793FE07461E
:100CB00014E00220FFF78EFE07460FE00220FFF748
:100CC00089FE07460AE00220FFF784FE074605E09A
:100CD0000220FFF77FFE074600E000BF00BF07EBE2
:100CE0005500B0FBF5F64FF6F07006EA000806F086
:100CF0000F0948EA0900A060BDE8F087004C0040F9
:100D000000BCFFBFC1F308024260704710B5044643
:100D10002049601A8C4228D006DC1F48204490B13C
:100D2000B0F5806F33D117E0B0F5806F26D0B0F505
:100D30006C4F2CD140F20E30FFF7FEFE40F20E3029
:100D4000FFF7EAFE24E040F21140FFF7F5FE40F223
:100D50001140FFF7E1FE1BE040F21240FFF7ECFE0E
:100D600040F21240FFF7D8FE12E040F21340FFF7C6
:100D7000E3FE40F21340FFF7CFFE09E040F21440DB
:100D8000FFF7DAFE40F21440FFF7C6FE00E000BFB6
:100D900000BF10BD004C004000BCFFBFC16841F463
:100DA0000051C160704710B5024602EB9110006817
:100DB00001F01F040123A340184008B1012010BD19
:100DC0000020FCE770B5054600242848854200D184
:100DD00003E02748854200D10124264931F8140058
:100DE000FFF78AFE244931F81400FFF785FE1F48FB
:100DF000854207D14FF4C060FFF77EFE0121042039
:100E0000FFF714FD1D4951F824301D4951F8240005
:100E100003221821FFF7B4FC1A4951F8243018496D
:100E200051F8240003220421FFF7AAFC2846FFF70B
:100E30006DFF4FF4E1312846FFF71CFF00212846E3
:100E400000F042F80021284600F02EF80021284644
:100E500000F01AF80421284600F01EF80821284660
:100E600000F02AF82846FFF799FF70BD00380140CE
:100E700000440040280000200C000020100000204A
:100E80002000002018000020C26822F4C062C26066
:100E9000C2680A43C26070470A460021C16821F057
:100EA00004011143C1607047026922F4405202619B
:100EB00002690A43026170470A460021C16821F0B5
:100EC00008011143C1607047C26822F48052C260B9
:100ED000C2680A43C2607047F80E00080000002094
:100EE0003800000094020008300F0008380000208D
:100EF00000200000A402000800F36F0600000000BC
:100F0000000000000E061107400000000400000071
:100F10008000000008000000000C014000080140B3
:100F20000306020625000000260000000000000065
:0400000508000131BD
:00000001FF
