:020000040800F2
:1000000068400020CD010008950200088D0200081C
:100010009102000887020008310300080000000078
:10002000000000000000000000000000C302000803
:100030008B02000800000000C1020008C502000891
:10004000E7010008E7010008E7010008E7010008F0
:10005000E7010008E7010008E7010008E7010008E0
:10006000E7010008E7010008E7010008E7010008D0
:10007000E7010008E7010008E7010008E7010008C0
:10008000E7010008E7010008E7010008E7010008B0
:10009000E7010008E7010008E7010008E7010008A0
:1000A000E7010008E7010008E7010008E701000890
:1000B000E7010008E7010008E7010008E701000880
:1000C000E7010008E7010008E7010008E701000870
:1000D000E7010008E7010008E7010008E701000860
:1000E000E7010008E7010008E7010008E701000850
:1000F000E7010008E7010008E7010008E701000840
:10010000E7010008E7010008E7010008E70100082F
:10011000E7010008E7010008E7010008E70100081F
:10012000E7010008E7010008E7010008E70100080F
:1001300000F002F800F03AF80AA090E8000C8244BF
:100140008344AAF10107DA4501D100F02FF8AFF29C
:10015000090EBAE80F0013F0010F18BFFB1A43F0A5
:1001600001031847F004000010050000103A24BFF6
:1001700078C878C1FAD8520724BF30C830C144BF0C
:1001800004680C607047000000230024002500264E
:10019000103A28BF78C1FBD8520728BF30C148BFEA
:1001A0000B6070471FB51FBD10B510BD00F031F8D2
:1001B0001146FFF7F7FF00F075F900F04FF803B4B0
:1001C000FFF7F2FF03BC00F057F800000948804732
:1001D00009480047FEE7FEE7FEE7FEE7FEE7FEE729
:1001E000FEE7FEE7FEE7FEE704480549054A064B41
:1001F00070470000CD0200083101000868000020AF
:100200006840002068200020682000207047704768
:100210007047754600F02CF8AE4605006946534617
:1002200020F00700854618B020B5FFF7DDFFBDE8D8
:1002300020404FF000064FF000074FF000084FF04D
:10024000000B21F00701AC46ACE8C009ACE8C009DE
:10025000ACE8C009ACE8C0098D46704710B504464B
:10026000AFF300802046BDE81040FFF7A8BF0000B4
:10027000004870470800002001491820ABBEFEE787
:1002800026000200704700BFFEE7704700BFFEE790
:1002900000BFFEE77047000010B5002807DA0A0724
:1002A000140E054A00F00F031B1FD45403E00A0785
:1002B000130E024A135410BD18ED00E000E400E0F4
:1002C0007047704710B500F03FF810BD10B51448E6
:1002D000006840F001001249086008464068114972
:1002E00008400F494860084600680F4908400C491B
:1002F00008600846006820F48020086008464068CE
:100300000A4908400649486008460068064908400E
:10031000034908604FF41F00886000F06FF910BDBA
:10032000001002400C00FFE8FFFFF6FEFFFF00F7A1
:1003300000BFFEE70349086000BF024909680029C1
:10034000FBD17047040000200448006820B1034836
:100350000068401E0149086070470000040000204A
:100360004161704701617047F0B5044616460025AB
:10037000002201F00F0501F0100707B135430020FE
:100380001EE0012787401F40C7B122684FEA800C5A
:100390000F2707FA0CF7BA43870005FA07F73A4325
:1003A000282904D1012787401F40676105E04829BB
:1003B00003D1012787401F4027612260471CB8B244
:1003C0000828DED3082022E0012787401F40E7B13C
:1003D0006268A0F108074FEA870C0F2707FA0CF7AD
:1003E000BA43A0F10807BF0005FA07F73A432829E6
:1003F00004D1012787401F40676105E0482903D1E8
:10040000012787401F4027616260471CB8B210284F
:10041000DAD3F0BDF0B50A46002300240021002500
:1004200000F00046B6F1004F02D11D4EF16901E027
:100430001B4E7168C0F3034583B200F44016B6F555
:10044000401F08D121F07061154E766826F0706665
:10045000134F7E6012E000F48016B6F5801F06D1BF
:10046000032606FA05F4A14341F0706106E0460D4B
:10047000360103FA06F6B14341F0706122B1460D30
:10048000360103FA06F6314300F00046B6F1004F9C
:1004900002D1034EF16101E0014E7160F0BD000038
:1004A00000000140002000F02BF800F0ABF84FF402
:1004B000C06000F031F801210F48FFF7ABFF40F2B8
:1004C000036000F029F81023032219460B48FFF7B8
:1004D0004BFF0FE010210948FFF744FF4FF47A70FB
:1004E000FFF728FF10210548FFF73AFF4FF47A7015
:1004F000FFF720FFEEE7000000013000000C014094
:10050000044A516821F0F00141EA0002014B5A60AF
:100510007047000000100240064A02EB9011096883
:1005200000F01F0301229A401143024B03EB90128B
:100530001160704700100240002000212C4A126810
:1005400042F480322A4B1A6000BF401C284A1268CD
:1005500002F4003119B94FF6FF729042F5D1244AE6
:10056000126802F400320AB900BFFEE7204A52685E
:100570001F4B5A601A4652685A601A46526842F433
:1005800080625A601A46526822F440325A601A4613
:10059000526842F440325A601A465268154B1A406B
:1005A000134B5A601A465268134B1A43104B5A6049
:1005B0001A46126842F080721A6000BF0C4A126834
:1005C00002F00072002AF9D0094A526822F00302B0
:1005D000074B5A601A46526842F002025A6000BF46
:1005E000034A526802F00802002AF9D0704700005E
:1005F00000100240FFFFC3F70000280810B5FFF706
:100600009BFF10BD10B5124800684FF47A71B0FB23
:10061000F1F4601EB0F1807F01D301200FE0601E75
:100620004FF0E02148610F214FF0FF30FFF734FE1B
:1006300000204FF0E021886107200861002008B108
:1006400000BFFEE70021481EFFF726FE10BD000098
:1006500000000020740600080000002008000000D0
:100660006C0100087C0600080800002060400000C3
:0C0670008801000800F36F060000000085
:0400000508000131BD
:00000001FF
