:020000040800F2
:1000000088400020CD010008950200088D020008FC
:100010009102000887020008C903000800000000E0
:10002000000000000000000000000000C302000803
:100030008B02000800000000C1020008C502000891
:10004000E7010008E7010008E7010008E7010008F0
:10005000E7010008E7010008E7010008E7010008E0
:10006000E7010008E7010008E7010008E7010008D0
:10007000E7010008E7010008E7010008E7010008C0
:10008000E7010008E7010008E7010008E7010008B0
:10009000E7010008E7010008E7010008E7010008A0
:1000A000E7010008E7010008E7010008E701000890
:1000B000E7010008E7010008E7010008E701000880
:1000C000E7010008E7010008E7010008E701000870
:1000D000E701000831030008E7010008E701000814
:1000E000E7010008E7010008E7010008E701000850
:1000F000E7010008E7010008E7010008E701000840
:10010000E7010008E7010008E7010008E70100082F
:10011000E7010008E7010008E7010008E70100081F
:10012000E7010008E7010008E7010008E70100080F
:1001300000F002F800F03AF80AA090E8000C8244BF
:100140008344AAF10107DA4501D100F02FF8AFF29C
:10015000090EBAE80F0013F0010F18BFFB1A43F0A5
:10016000010318479C0A0000BC0A0000103A24BF93
:1001700078C878C1FAD8520724BF30C830C144BF0C
:1001800004680C607047000000230024002500264E
:10019000103A28BF78C1FBD8520728BF30C148BFEA
:1001A0000B6070471FB51FBD10B510BD00F031F8D2
:1001B0001146FFF7F7FF00F003FA00F04FF803B421
:1001C000FFF7F2FF03BC00F057F800000948804732
:1001D00009480047FEE7FEE7FEE7FEE7FEE7FEE729
:1001E000FEE7FEE7FEE7FEE704480549054A064B41
:1001F00070470000CD02000831010008880000208F
:100200008840002088200020882000207047704708
:100210007047754600F02CF8AE4605006946534617
:1002200020F00700854618B020B5FFF7DDFFBDE8D8
:1002300020404FF000064FF000074FF000084FF04D
:10024000000B21F00701AC46ACE8C009ACE8C009DE
:10025000ACE8C009ACE8C0098D46704710B504464B
:10026000AFF300802046BDE81040FFF7A8BF0000B4
:10027000004870472400002001491820ABBEFEE76B
:1002800026000200704700BFFEE7704700BFFEE790
:1002900000BFFEE77047000010B5002807DA0A0724
:1002A000140E054A00F00F031B1FD45403E00A0785
:1002B000130E024A135410BD18ED00E000E400E0F4
:1002C0007047704710B500F08BF810BD10B514489A
:1002D000006840F001001249086008464068114972
:1002E00008400F494860084600680F4908400C491B
:1002F00008600846006820F48020086008464068CE
:100300000A4908400649486008460068064908400E
:10031000034908604FF41F00886000F029FB10BDFE
:10032000001002400C00FFE8FFFFF6FEFFFF00F7A1
:1003300010B51C491C4800F01FFCB0B11A4800F071
:100340008BFBC1B2194802880088401C174B1880EB
:10035000174881541846008816490978884204D104
:1003600040F20531104800F0EDFB13490E4800F053
:1003700003FCA8B1114802780078401C0F4B18709C
:100380000F48815C084800F06CFB0C4800780D4970
:100390000978884204D140F20731034800F0D2FBCB
:1003A00010BD0000050305000038014012000020C8
:1003B0001800002010000020070307001100002093
:1003C000040000200F00002000BFFEE70349086082
:1003D00000BF024909680029FBD1704714000020C2
:1003E0000448006820B103480068401E01490860C5
:1003F000704700001400002010B540F2036000F0C8
:1004000025FA40F20E6000F021FA0121042000F0EC
:100410008FF8402303221821184800F033F8802376
:1004200003220421154800F02DF8154800F01EFBAA
:100430004FF41651124800F0C7FA0021104800F09E
:10044000D7FB00210E4800F0C3FB00210C4800F050
:10045000AFFB00210A4800F06DFB0021084800F0C6
:1004600061FB0821064800F0BBFB0421044800F0B2
:10047000A7FB034800F042FB10BD0000000C014048
:1004800000380140F0B5044616460025002201F070
:100490000F0501F0100707B1354300201EE00127CA
:1004A00087401F40C7B122684FEA800C0F2707FA28
:1004B0000CF7BA43870005FA07F73A43282904D115
:1004C000012787401F40676105E0482903D10127C4
:1004D00087401F4027612260471CB8B20828DED33E
:1004E000082022E0012787401F40E7B16268A0F1A1
:1004F00008074FEA870C0F2707FA0CF7BA43A0F159
:100500000807BF0005FA07F73A43282904D1012755
:1005100087401F40676105E0482903D101278740D4
:100520001F4027616260471CB8B21028DAD3F0BDC3
:10053000F0B50A46002300240021002500F0004603
:10054000B6F1004F02D11D4EF16901E01B4E7168FA
:10055000C0F3034583B200F44016B6F5401F08D13E
:1005600021F07061154E766826F07066134F7E603C
:1005700012E000F48016B6F5801F06D1032606FAB5
:1005800005F4A14341F0706106E0460D360103FA1F
:1005900006F6B14341F0706122B1460D360103FA0F
:1005A00006F6314300F00046B6F1004F02D1034E8B
:1005B000F16101E0014E7160F0BD000000000140FA
:1005C000002000F0A5F800F0D7F94FF4C06000F06B
:1005D0003DF94FF47A70FFF7F9FEFFF70DFF0022A7
:1005E0001146252000F034F840F20531134800F0A0
:1005F000B6FA22E0124800881249097888421CDBCA
:1006000000200F4908801049087040F207310B485C
:1006100000F0A5FA00BF0C4800780C490978884220
:10062000F9DB00BF0621054800F06DFA0028F9D07B
:1006300040F20531014800F092FADBE70038014052
:100640001200002010000020110000200F000020E8
:100650002DE9F04103460D46164600240027A0462A
:100660002448006800F4E060B0F5A06F15D006DC07
:10067000B0F5407F18D0B0F5806F19D110E0B0F51B
:10068000C06F06D0B0F5E06F12D100274FF004081C
:1006900015E001274FF0030811E00227B8460EE0ED
:1006A00003274FF001080AE004274FF0000806E096
:1006B0004FF4A06000F022F80227B84600BF00BF48
:1006C000C7F1040005FA00F4C8F104010F20C84086
:1006D0003040044324010848C45403F01F010120A2
:1006E00088405911890001F1E021C1F80001BDE8FD
:1006F000F08100000CED00E000E400E0024901435D
:10070000024A1160704700000000FA050CED00E09D
:10071000044A516821F0F00141EA0002014B5A609D
:1007200070470000001002402DE9F04F8BB00746E3
:10073000002009903EA090E8004CC068CDE905BEBD
:10074000CDF810A007900FF2EC0ADAE9000ACDE923
:10075000020A0FF2E00ADAE9000ACDE9000A384895
:100760004068C0F381000A900A9820B1012804D0A3
:10077000022829D103E0334928E0324926E03048F5
:10078000406800F48038B8F5803F09D12D4C2C48E2
:10079000406800F40039B9F5003F02D1641000E070
:1007A000294C27484068C0F383422548406800F040
:1007B000006008B142F010020F2A01D2921C00E042
:1007C000521C04FB02F101E01E4900BF00BF1C489F
:1007D0004068C0F3031504A8465D21FA06F31848E3
:1007E0004068C0F3022502A8465D23FA06FC1448BF
:1007F0004068C0F3C2251DF8056023FA06F0089092
:1008000037B1012F06D0022F06D0032F0AD106E000
:10081000099108E0099306E0CDF824C003E00898A8
:10082000099000E000BF00BF09980BB0BDE8F08F51
:100830000000000000000000010203040607080990
:100840000010024000127A0000093D00064A02EB47
:100850009011096800F01F0301229A401143024BD6
:1008600003EB90121160704700100240064A02EB41
:100870009011096800F01F0301229A409143024B36
:1008800003EB90121160704700100240064A02EB21
:100890009011096800F01F0301229A401143024B96
:1008A00003EB9012116070470010024000200021FD
:1008B0002C4A126842F480322A4B1A6000BF401C56
:1008C000284A126802F4003119B94FF6FF729042BB
:1008D000F5D1244A126802F400320AB900BFFEE7DB
:1008E000204A52681F4B5A601A4652685A601A468C
:1008F000526842F480625A601A46526822F44032CA
:100900005A601A46526842F440325A601A46526897
:10091000154B1A40134B5A601A465268134B1A4330
:10092000104B5A601A46126842F080721A6000BF7B
:100930000C4A126802F00072002AF9D0094A526883
:1009400022F00302074B5A601A46526842F0020234
:100950005A6000BF034A526802F00802002AF9D028
:100960007047000000100240FFFFC3F70000280896
:1009700010B5FFF79BFF10BD10B5124800684FF48B
:100980007A71B0FBF1F4601EB0F1807F01D30120D9
:100990000FE0601E4FF0E02148610F214FF0FF3063
:1009A000FFF77AFC00204FF0E02188610720086102
:1009B000002008B100BFFEE70021481EFFF76CFCD5
:1009C00010BD0000000000202DE9F04704460D4650
:1009D0000027B846B94600261D49601A8C421CD033
:1009E00006DC1C48204470B1B0F5806F1FD10FE0C9
:1009F000B0F5806F16D0B0F56C4F18D10320FFF71B
:100A000093FE074614E00220FFF78EFE07460FE034
:100A10000220FFF789FE07460AE00220FFF784FE66
:100A2000074605E00220FFF77FFE074600E000BF13
:100A300000BF07EB5500B0FBF5F64FF6F07006EA85
:100A4000000806F00F0948EA0900A060BDE8F08739
:100A5000004C004000BCFFBF01464868C0F30800DE
:100A60007047C1F3080242607047000010B50446A9
:100A70002049601A8C4228D006DC1F48204490B1DF
:100A8000B0F5806F33D117E0B0F5806F26D0B0F5A8
:100A90006C4F2CD140F20E30FFF7F8FE40F20E30D2
:100AA000FFF7E4FE24E040F21140FFF7EFFE40F2D2
:100AB0001140FFF7DBFE1BE040F21240FFF7E6FEBD
:100AC00040F21240FFF7D2FE12E040F21340FFF76F
:100AD000DDFE40F21340FFF7C9FE09E040F214408A
:100AE000FFF7D4FE40F21440FFF7C0FE00E000BF65
:100AF00000BF10BD004C004000BCFFBFC16841F406
:100B00000051C160704710B5024602EB91100068B9
:100B100001F01F040123A340184008B1012010BDBB
:100B20000020FCE70A460021416921F400711143CD
:100B3000416170470A460021416921F480711143E7
:100B40004161704710B5C1F38912825801F01F044A
:100B50000123A3409A43C1F38913C25010BD10B5BD
:100B6000C1F38912825801F01F040123A3401A43E4
:100B7000C1F38913C25010BD70B502460023002492
:100B8000C1F38910105801F01F060125B54000EA95
:100B9000050302EB91500068C1F304460125B540FE
:100BA00000EA050414B10BB1012070BD0020FCE780
:100BB000C26822F4C062C260C2680A43C260704761
:100BC0000A460021C16821F004011143C160704749
:100BD000026922F44052026102690A4302617047CD
:100BE0000A460021C16821F008011143C160704725
:100BF000C26822F48052C260C2680A43C260704771
:100C0000200C000800000020180000006C01000803
:100C1000380C00081800002070400000880100080F
:100C200000F36F0648454C4C4F574F524C44000A56
:080C30000A00000000000000B2
:0400000508000131BD
:00000001FF
